:020000040000FA
:10000000900A002029110000233D00007910000013
:1000100079100000791000007910000079100000BC
:10002000791000007910000079100000690F0000BD
:100030007910000079100000150F0000213C00002D
:10004000E9100000E9100000E9100000E9100000CC
:10005000E9100000E9100000E9100000E9100000BC
:10006000E9100000E9100000E9100000E9100000AC
:10007000E9100000E9100000E9100000E91000009C
:10008000E9100000E9100000E9100000E91000008C
:10009000E9100000E9100000E9100000E91000007C
:1000A000E9100000E9100000E9100000E91000006C
:1000B000E9100000E9100000E9100000E91000005C
:1000C000E9100000E9100000E9100000E91000004C
:1000D000E9100000E9100000E9100000E91000003C
:1000E000E9100000E9100000E9100000E91000002C
:1000F000E9100000E9100000E9100000E91000001C
:10010000E9100000E9100000E9100000E91000000B
:10011000E9100000E9100000E9100000E9100000FB
:10012000E9100000E9100000E9100000E9100000EB
:10013000E9100000E9100000E9100000E9100000DB
:10014000E9100000000000000000000000000000B6
:10015000000000000000000000000000000000009F
:10016000000000000000000000000000000000008F
:10017000000000000000000000000000000000007F
:10018000000000000000000000000000000000006F
:10019000000000000000000000000000000000005F
:1001A000000000000000000000000000000000004F
:1001B000000000000000000000000000000000003F
:1001C000000000000000000000000000000000002F
:1001D000000000000000000000000000000000001F
:1001E000000000000000000000000000000000000F
:1001F00000000000000000000000000000000000FF
:10020000DEE61E284CBBCE8F025B00003C000000E7
:10021000008000000100000000000000000000005D
:10022000FFFF02910000000000000000000000003D
:1002300000000000000000000000000053B94AB9AF
:10024000002908BF00281CBF4FF0FF314FF0FF30DE
:1002500000F070B9ADF1080C6DE904CE00F006F8BD
:10026000DDF804E0DDE9022304B070472DE9F04F2A
:10027000099E04468946002B40F083808A42154639
:1002800045D9B2FA82F24AB1C2F1200701FA02F36B
:100290009540944020FA07F747EA03094FEA154EC4
:1002A000230C1FFA85F8B9FBFEFC0EFB1C990CFB16
:1002B00008F143EA094399420AD9EB182CBF0120FF
:1002C0000020994202D9002800F01D810CF1FF3C6A
:1002D000591AA3B2B1FBFEF00EFB101100FB08F897
:1002E00043EA0144A04505D92C1902D2A04500F2E9
:1002F0000E810138A4EB080440EA0C4000271EB12F
:10030000D4400023C6E900433946BDE8F08F002AF7
:1003100051D0B2FA82F2002A40F0AF80491B4FEA76
:10032000154E1FFA85F80127230CB1FBFEFC0EFBCE
:100330001C1108FB0CF043EA014398420AD9EB1860
:100340002CBF01210021984202D9002900F0D7805A
:100350000CF1FF3C191AA3B2B1FBFEF00EFB101119
:1003600008FB00F843EA0144A04505D92C1902D244
:10037000A04500F2C1800138A4EB080440EA0C401B
:10038000BDE78B4208D9002E74D00027C6E90001D2
:1003900038463946BDE8F08FB3FA83F767B98B4228
:1003A000C0F0A480824240F2A1803846002EABD03B
:1003B000C6E90049A8E7FFDEC7F12005BB4002FA05
:1003C00007FC01FA07F4EA4020FA05F8E94000FAD0
:1003D00007FE1A4348EA04044FEA1248200C1FFAA9
:1003E00082F9B1FBF8FA08FB1A110AFB09FB40EA93
:1003F00001418B450AD951182CBF012300238B459D
:1004000002D9002B00F088800AF1FF3AA1EB0B0122
:10041000A4B2B1FBF8F008FB101100FB09F944EAA3
:100420000141894504D9511801D289457BD8013849
:1004300040EA0A40A1EB0901A0FB0C89494544466A
:100440004B4602D306D1C64504D20138B8EB0C04A2
:1004500069EB0203002E5DD0BEEB040261EB0301E9
:1004600001FA05F522FA07F3F94000271D43C6E912
:10047000005149E73746304646E7C2F12000954033
:1004800001FA02F721FA00F34FEA154E24FA00F1BF
:100490001FFA85F894403943B3FBFEF00F0C0EFBB6
:1004A000103300FB08FC47EA03439C4507D9EB18CF
:1004B0002CBF012700279C4500D98FB30138A3EB3F
:1004C0000C0389B2B3FBFEF70EFB173307FB08FCE6
:1004D00041EA03418C4504D9691801D28C4525D8DD
:1004E000013FA1EB0C0147EA00471DE7841A61EBCD
:1004F00003030120994659E702382C443CE7ACF14C
:10050000020C2B4426E7ACF1020C2B44E0E6023847
:100510002C44EFE63746F7E6AAF1020A114475E7E4
:1005200002382B44CBE70238114481E7023F2944CB
:10053000D7E700BF704700BF2DE9E04F2746A04630
:10054000A146A246A346A4462DED108B4FF0000510
:1005500045EC185B45EC195A45EC1A5A45EC1B5A08
:1005600045EC1C5A45EC1D5A45EC1E5A45EC1F5AE9
:10057000F1EE105A4FF66076C0F6FF763540E1EEA8
:10058000105A84F3008825462646A447BDEC108BFC
:10059000BDE8E08F0B6801330B60014B1B68184707
:1005A000D01300202DE9F04F85B00E9C9B46012C06
:1005B000B8BF0124012B0CBF3023202316468246EE
:1005C000884601250A270022DFF86C900293B6FBCB
:1005D000F9F301930AB9B1451CD8019B414603F1D7
:1005E0003000D04701220135019B013F09FB136612
:1005F0000A23012FB9FBF3F9E9D1414606F1300096
:10060000D047BBF1030F02D1641B002C0EDC05B0F8
:10061000BDE8F08FBC42E7DBBBF1020FE4D84146F6
:10062000029803920135D047039ADDE74146202026
:10063000D047013CE9E700BF00CA9A3B014B186074
:10064000704700BFD0130020002307B50246019376
:1006500003480B4601A903F060F803B05DF804FB02
:10066000950500004FF02002EFF3118382F311880B
:10067000BFF36F8F0121044AC2F8401583F311883C
:10068000BFF36F8F00207047009003500A2838B5E1
:100690000446074D04D1286843680D215B689847DC
:1006A00028684368E1B25B689847204638BD00BFC0
:1006B0000800002010B5044C204601F097F82046B1
:1006C000BDE81040FFF7BABF8D06000008B504482A
:1006D00001F0AEFA034B1860FFF7ECFF002008BDF5
:1006E000804700000800002008B5114B1A686AB165
:1006F0004FF05022D2F80423D10707D500220D482D
:100700001A608368597A09B903F0DAF90A4B1A6852
:100710006AB14FF05022D2F80423920707D5002285
:1007200001211A600348BDE8084003F0C9B908BDBB
:1007300000510050801400200451005000220D4B45
:10074000C3F840214FF02002EFF3118182F31188AA
:10075000BFF36F8F084AD3F804051368C01A20F05E
:100760007F400344136081F31188BFF36F8F02F061
:1007700027B800BF005001502400002070B5154874
:1007800001F056FA10B3436801211B689847002412
:1007900001264FF480334FF400120F4D3146C5F857
:1007A0000845C5F84065C5F804330C4B15201C609E
:1007B0000B4BC3F88021224600F0F6FB152000F019
:1007C000E3FB2046074B1E602E6070BD4FF0FF30EC
:1007D000FBE700BF55490000005001504051015057
:1007E00000E100E00850015070B5254CB0F1FF3F2A
:1007F00008BF20464FF02003EFF3118583F31188E3
:10080000BFF36F8F1F4BD3F804151F4B1B68CA1A19
:1008100022F07F4612021AD4421E22EAE272A2425B
:10082000A8BF2246701C1044A04294BF1818181983
:10083000411A21F07F41134A20F07F430229C2F878
:10084000403506D985F31188BFF36F8F70BD002244
:10085000E8E7D2F804350D49C31A23F07F435C1E44
:100860008C4205D94FF40012094BC3F80021E9E787
:10087000012B02BF023020F07F40C2F84005E1E7C3
:10088000FEFFFF000050015024000020FEFF7F000B
:1008900000E100E04FF02002EFF3118382F31188B2
:1008A000BFF36F8F064AD2F80405064A1268801A11
:1008B00020F07F4083F31188BFF36F8F704700BF34
:1008C000005001502400002008B543B2002B0CDB7F
:1008D000012200F01F018A405B091049203341F8D2
:1008E0002320BFF34F8FBFF36F8F830003F1A0432B
:1008F00003F540533128D3F8002806D0002A07DA40
:1009000002F00302023A012A02D8054AC3F800287D
:10091000002103F0D5F9002008BD00BF00E100E090
:100920000001008030B54FF440444CF2040585B01E
:100930004FF440412C4803F060F821682B4803F045
:100940005CF829682A4803F058F81022002168460C
:1009500003F07EFA236868460093029400F0D0FE0C
:10096000012000F0FDFE002000F0E6FE002000F077
:100970000BFF0121002000F025FF00F019FF2C687B
:100980001C4803F03AF80820FFF79EFF24F001040A
:10099000BFF34F8FBFF36F8F64086400204621467A
:1009A00022462346B7EE000AF7EE000AB7EE001A19
:1009B000F7EE001AB7EE002AF7EE002AB7EE003A7B
:1009C000F7EE003AB7EE004AF7EE004AB7EE005AEB
:1009D000F7EE005AB7EE006AF7EE006AB7EE007A5B
:1009E000F7EE007AFFF7A8FDD5480000EC480000BC
:1009F000014900001F4900002DE9F843704802F04A
:100A0000FCFF00216F4EDFF8D891DFF800826E4DB9
:100A100056F8044BCA0301F5C07349F82340404619
:100A200002F500434F1C02F0E8FF684B14F0100F72
:100A30006749684808BF194602F0DFFF14F0040F49
:100A400014BF72212D21284602F0D7FF14F0020FA7
:100A500014BF77212D21284602F0CFFF14F0010F9B
:100A600014BF78212D21284602F0C7FF14F4807F9F
:100A700014BF6C212D21284602F0BFFF564802F01A
:100A8000BCFF202F3946C3D1544B554AC3F3C43160
:100A9000C3F30E03C3F50043C3F34313C2F80015B9
:100AA000C2F80435D2F80015D2F804254D48520199
:100AB00002F0A3FF484802F0A0FF03F0B3F801469C
:100AC00010B1494802F099FF434802F096FF4748A9
:100AD00002F093FF0021464EDFF80491DFF83081E9
:100AE000394D56F8044B4A0301F5E07349F82340A9
:100AF000404602F500534F1C02F07FFF334B14F0C9
:100B0000100F3349334808BF194602F076FF14F03E
:100B1000040F14BF72212D21284602F06EFF14F03D
:100B2000020F14BF77212D21284602F066FF14F032
:100B3000010F14BF78212D21284602F05EFF14F426
:100B4000807F14BF6C212D21284602F056FF2248D9
:100B500002F053FF202F3946C3D10024204D1E48F8
:100B600002F04BFFC5F88044224802F046FF224FB6
:100B7000C5F8C044DFF89C80204DDFF89C906E796A
:100B80002A68002E14BF3B4643462146484602F0E1
:100B900034FF66B91A48013402F02FFF1A2C05F110
:100BA0000805ECD10C48BDE8F84302F026BF2879CF
:100BB000FFF78AFE08B11348EDE71348EBE700BFE3
:100BC000B147000024440000E94700009A470000B4
:100BD00091470000BE480000E54A0000E07F0000A9
:100BE00000300050EC47000032480000624800002E
:100BF0007445000098480000A6470000A444000087
:100C0000C1480000C8480000D0480000D447000098
:100C1000844800009E470000B448000010B500283A
:100C20004BD0002A49D0264B99423CD9541803F6A0
:100C30001D239C423AD803F0E1F80020BDE81040A3
:100C4000714672467346B7EE000AF7EE000AB7EE39
:100C5000001AF7EE001AB7EE002AF7EE002AB7EEF8
:100C6000003AF7EE003AB7EE004AF7EE004AB7EE68
:100C7000005AF7EE005AB7EE006AF7EE006AB7EED8
:100C8000007AF7EE007A8EF3008C10B4F1EE10CA01
:100C90004FF66074C0F6FF740CEA040CE1EE10CA63
:100CA00010BCF4467447074B994203D9064B5418BD
:100CB0009C42C0D94FF0FF30C0E76FF01500BDE790
:100CC0000302FF002F01FF003801FF002DE9F04F64
:100CD000834685B08946002951D00027DFF8B0A0AF
:100CE000DFF8B08001AE5AF8044B98E807005C4486
:100CF00086E807000C223146204603F058F80546E6
:100D000008B9002C3ED10137052FECD16FF00D054D
:100D1000284605B0B7EE000AF7EE000AB7EE001A53
:100D2000F7EE001AB7EE002AF7EE002AB7EE003A07
:100D3000F7EE003AB7EE004AF7EE004AB7EE005A77
:100D4000F7EE005AB7EE006AF7EE006AB7EE007AE7
:100D5000BDE8F04F714672467346F7EE007A8EF3A7
:100D6000008C10B4F1EE10CA4FF66074C0F6FF7438
:100D70000CEA040CE1EE10CA10BCF44674476FF0A4
:100D80001505C5E73C222146484603F037F8BFE782
:100D9000F4450000D4430000014801F07FBF00BFCC
:100DA0000846000008B530B143683BB1006801F067
:100DB0003DF9002008BD6FF4E040FBE70048F9E78B
:100DC000EA8FFFFF38B5044618B90B4B0B485B6838
:100DD0009847656855B115F00205206807D10146AE
:100DE000074801F083F825600023636038BD1422B2
:100DF000002103F02DF8F7E724140020464A0000F4
:100E00002800002010B5044618B9134B13485B683E
:100E100098476368BBB92368ABB94FF0FF322146EE
:100E20000F4801F037F808B923681BB90A4B0D4881
:100E30005B68984714220021206803F009F8636872
:100E400043F002036360206803F09AF8636843F09C
:100E50000103636010BD00BF24140020464A000057
:100E6000280000206C4A000008B558B1436863B1FF
:100E700000684FF0FF3101F067F8054B002818BFFC
:100E8000184608BD6FF4E040FBE70248F9E700BFF1
:100E9000E98FFFFFEA8FFFFF08B5064940231422C0
:100EA000054803F052F8BDE808400449044801F041
:100EB0002DBF00BF44000020280000202046000075
:100EC0001046000004488168406A884203D0034904
:100ED0004FF080520A6070473006002004ED00E0B9
:100EE000094A0A49936809685866996608494B682F
:100EF00043F080534B60002383F31188BFF36F8F5F
:100F00009368986E704700BF300600208C46000042
:100F100000ED00E012498A684FF028001044EFF31A
:100F2000098C80E8F01F202080F31188BFF36F8FB9
:100F30000C4F4FF000664A6A8A603E60506E002394
:100F4000536680F3118804B5104602F0F1FEBDE847
:100F5000044002F1280090E8F01F8CF309887047E4
:100F60003006002004ED00E01EF0040F0CBFEFF38C
:100F70000880EFF30980816911F8021C0229FFD073
:100F800001B502F0CAFE01BD43B2002B08DB01220D
:100F900000F01F0002FA00F0024A5B0942F8230049
:100FA000704700BF00E100E043B2002B01F10101F6
:100FB000A8BF03F160434FEA4111B8BF054BC9B266
:100FC000ABBF03F5614300F00F0083F80013195421
:100FD000704700BF14ED00E073B51E460A9B05463E
:100FE0000093099B8C1803F060F80B4AA4F12003CE
:100FF00023F0070322F001029A61069A1E605A60EC
:10100000079A9A60089ADA604FF08072DA61AB64EE
:1010100000236B6602B070BD153A0000F8B51E469D
:1010200005460C4617460023E1EE103A00F0D6F9CB
:101030000A4B3C4428469D6024F0070402F078FEE9
:10104000304684F30988002163B681F31188BFF329
:101050006F8F0022002302F0DDFC00BF300600206D
:10106000014910220A60704710ED00E0404080F313
:10107000118830BF704700BFEFF30880EFF309819C
:10108000724601B500F0D2F801BD00BF30BFFFF7D6
:10109000FDBF00BF114A08B5114B22F07F029A60D4
:1010A000BFF34F8FBFF36F8FD3F8882042F4A002B5
:1010B000C3F888200B4A536823F040435360BFF3C2
:1010C0004F8FBFF36F8F0023E1EE103A00F0F0FD79
:1010D00000F0F8FD00F050F900F032FE00000000D2
:1010E00000ED00E030EF00E001B572B60B4A106A87
:1010F00000281EBF0021116202F025FF62B6EFF347
:101100000580A0F110004FEAC0000549014409C95B
:101110009847BDE801400349084700003006002019
:1011200054410000C50E000002F07FFC202080F337
:10113000118808484FF40061401880F30988EFF3E4
:1011400014800221084380F31488BFF36F8FFFF7E8
:10115000A1FF0000D00B00200C4B9A6A9A6A9A6A91
:10116000920708D55A6B9A6A120604D518B19A6A82
:1011700022F080029A620020044B9A6A9A6A9A6A64
:101180009A6A42F0FF029A620870704700ED00E030
:101190000D4B9A6A9A6A9A6A920508D59A6B9A6A6E
:1011A000120404D518B19A6A22F400429A6200200F
:1011B000054B9A6A9A6AD20558BF9A6A9A6A42F4AB
:1011C0007F429A620870704700ED00E0074B0020F4
:1011D0009A6A9A6A9A6A9A6A9A6A9A6A9A6A9A6AEF
:1011E0006FEA02426FEA12429A62704700ED00E035
:1011F0000D4B9A695A695A69D0070FD45A699107F9
:101200000CD45A69520709D45A69100706D45A698E
:10121000D10603D45A69920658BF5A695A6942F0F6
:10122000FF025A61704700BFD0ED00E0F0B5414BBE
:101230008BB05B680025C3F3080385F31188BFF307
:101240006F8F02F07F44B4F17F4F1ED112F0010482
:101250001AD0560602F0080467D482F00402C2F3E2
:10126000800564B1EFF389860022033B8DF80720E7
:10127000042B4BD8DFE803F00B4C50414800EFF350
:101280008886F1E70E46EFE725462E46ECE7294B28
:10129000DA6A92073AD4DC6A14F0804408D0283322
:1012A0001B78EBB101200DF10701FFF755FF044654
:1012B0009DF8073093B92022314602A802F09EFD26
:1012C000099B6DB3C3F3080222B96FEA53236FEA97
:1012D0004323099302A9204602F01DFD0BB0F0BD87
:1012E000154B1B782BB101200DF10701FFF750FFC3
:1012F000DDE7124B1F88BFB217B1FFF767FFD6E7D4
:101300000F4B5C69002CD3D0FFF772FF0024CFE7AE
:101310000DF107010020C8E70DF107010020E5E706
:1013200023F4FF7323F00103D3E7002CAAD1064670
:10133000012599E700ED00E029ED00E02AED00E04D
:10134000D0ED00E0024A536943F010035361704747
:1013500000ED00E0BFF34F8F0549064BCA6802F469
:10136000E0621343CB60BFF34F8F00BFFDE700BFC8
:1013700000ED00E00400FA05002320210348C21814
:101380000133412B82F80013F9D1704700E100E0EE
:1013900038B505464FF02003EFF3118483F311882D
:1013A000BFF36F8F00F0E4FF0A4B9B68AB420BD199
:1013B000094B5A68C2F3080212B92046FFF790FDA4
:1013C0005A6842F080525A602046BDE8384002F028
:1013D000F2BD00BF3006002000ED00E010B50E4B5E
:1013E00088B002930D4B0E4C03930E4B0E4A0493A0
:1013F00002AB019301A82346012100F003F9002369
:1014000007930A4B0121E41A05A80593069400F0FE
:1014100003F908B010BD00BF00000020000000006C
:101420000000012006000100000000200000002054
:1014300010B50B680C7A23F01F0204F01F031A4347
:10144000CB68640923F01F03044943EA440343F0D3
:1014500001038860CA600B6110BD00BF90ED00E021
:101460002DE9F04F8046894614460027484D85B047
:101470004F4507DA58F827305E68C6B31F2E05D8E7
:101480006FF01504204605B0BDE8F08FF206F7D1E5
:10149000D3F800A01AF01F0FF2D1504602F072FCF0
:1014A000834606EB0A00013802F06CFC8345E7D165
:1014B0001BF1160FE4D0631E5B45E1DBC5F808B0F5
:1014C000E86858F82710C5F808B02E6920F01F000A
:1014D000D1E900321A44984246F01F0602F1FF3A61
:1014E00018D1564505D15FFA8BF002F029FC01377F
:1014F000BEE7C5F808B0EB6822F01F0203F01F0337
:101500001A43EA60E0B202F01BFC10F1160FB7D0EC
:10151000441CECE7C5F808B02A69013B23F01F031F
:1015200002F01F0213435645E0B22B61EBD002F0EC
:1015300007FC10F1160FA3D0C5F808B0EA689DF8B3
:101540000830013E62F304038DF808302B699DF8E2
:1015500008205B0863F347128DF8082058F827200D
:101560000130D2E900321344009323F01F031E44DC
:10157000A6EB0A06C4B226F01F060F2C03963FF610
:101580007FAF20466946FFF753FF0134AFE700BF46
:1015900090ED00E00522034B5A60BFF34F8FBFF37D
:1015A0006F8F704790ED00E0BFF35F8F0022014B1B
:1015B0005A60704790ED00E070B50E4D2E68102E09
:1015C00015D80024FFF7F0FF0B4B0C4A1A63A64214
:1015D00005D10B4B1E70FFF7DDFF002070BD696861
:1015E000204601EB0411FFF723FF0134EFE74FF032
:1015F000FF30F3E73446000090ED00E0AAFF44001E
:101600008C06002010B5034C2278FFF729FF2070CC
:1016100010BD00BF8C0600202DE9F74F254C8A46EF
:1016200080460027A1464FF0140B234D57451ADA88
:10163000D8F804300193002B36D0D8F800100846B3
:10164000009102F09FFBDDE90013064658180138AF
:1016500002F098FB8642194A08D014235F436FF0CA
:10166000150349F8073003B0BDE8F08F16F1160FE7
:101670002660F8D01378B342F5DD0BFB0793AE601C
:10168000AE60E868197B60F3040119732969187B5F
:10169000490861F347101873EB6823F01F03636078
:1016A0002B6923F01F0323610137143408F10C0860
:1016B000BCE700BF4405002090ED00E08C06002050
:1016C00070B50C4B0E461C780546234600210A4A8D
:1016D0000F2B0BDD094951F8040BFFF7A9FE224639
:1016E00031462846BDE87040FFF7BABE93601161ED
:1016F0000133EDE78C06002090ED00E0440500206A
:1017000082680C4B9A60036883F38888436883F38C
:101710008988027B02F00101EFF3948323F0030335
:10172000920748BF43F0020309B143F0010383F37A
:101730009488704700ED02E0084AD36848B123F46A
:1017400000531B041B0C43F0BF6343F40033D3600E
:1017500070479BB243F40053F5E700BF00ED00E093
:10176000084AD36840B19BB243F4804343F0BF635F
:1017700043F40033D360704723F480431B041B0CF5
:10178000F4E700BF00ED00E0084AD36840B19BB227
:1017900043F0080343F0BF6343F40033D360704762
:1017A00023F008031B041B0CF4E700BF00ED00E06E
:1017B000034AD2F88C3043F44063C2F88C3070474F
:1017C00000ED00E0084B1A6818B142F001021A60FF
:1017D000704722F001021A601A6811B142F0020249
:1017E000F5E722F00202F2E7D0ED00E0014B1860CD
:1017F000704700BFF4130020F0B54B79012B29D0BE
:10180000032B24D110268B79032B20D1CC792CB13A
:10181000012C1CD103689B681B79C3B10A7912B1F2
:10182000022A14D10E2247F6122705680B68AD680C
:10183000BB422D6862D029D8B3F5965F61D014D829
:10184000B3F5167F5FD007D8B3F5967F5ED06FF003
:10185000220052E00026D6E7B3F5966F59D0B3F5D3
:10186000166FF4D14FF41D233CE0B3F5615F53D004
:1018700004D8B3F5165FEAD1324B33E0B3F5964F97
:101880004CD0B3F5E14FE2D12F4B2BE0B3F5E13F64
:1018900046D012D84DF6C027BB4244D005D8B3F588
:1018A000164FD4D14FF41D031CE0B3F5614F3DD06A
:1018B000B3F5963FCBD1254B14E0B3F5E12F38D0EB
:1018C00008D8B3F5613F37D0214FBB42BFD14FF0AD
:1018D000806307E0B3F5612F31D01E4FBB42B6D114
:1018E0004FF08053C5F8243534438368224303C93D
:1018F000C5F86C2583E803000020F0BD4FF4000319
:10190000F0E7154BEEE74FF41C33EBE74FF4A03351
:10191000E8E74FF49E23E5E7104BE3E7104BE1E7E0
:101920004FF0EB73DEE74FF46503DBE74FF46B0337
:10193000D8E74FF0E863D5E74FF06C73D2E74FF08C
:101940007063CFE70050270000C0750000903A0197
:1019500090D0030040420F0000B0130000F03A00A6
:1019600000A04E00026870B59268184B14684FF0E2
:101970000052856803219A601D260022C3F8741264
:10198000C3F87022C4F80C651C26C4F814654FF027
:1019900000669E60C3F86C12C3F868221B23C4F86B
:1019A00008351A232946C4F81035FFF725FF58B922
:1019B0000823C4F800351D440123C4F81001C4F8FD
:1019C0003455C4F83835236070BD00BF00258450FD
:1019D0002DE9F04300261E4C85B054F8049C1D4FA1
:1019E00001ADB14503D8002005B0BDE8F083636ABE
:1019F00097E80700D3F8008085E807000C22294605
:101A0000404602F0D4F9A0B9B8F1000F11D0636AD2
:101A100021691B681A6991420BD19A69A1699142A7
:101A200007D8E169914204D962695B6932EA03032C
:101A300007D0236A4BB1404080F311884FF0040077
:101A400002DFE36801361C44CBE7626A1360F8E703
:101A50003C020000E0430000064B1868043B1B6892
:101A6000092B05D1013801288CBF002001207047C7
:101A7000002070473401FF00054B1868043B1B68C9
:101A8000092B03D1431E584258417047002070472C
:101A90003401FF004E4A08B5136843F00203136097
:101AA000FFF7DAFF30B14FF050230022C3F81421C2
:101AB000C3F81821FFF7E0FF30B10123454A136056
:101AC000A2F63822C2F87835434B1B68092B07D1A0
:101AD000424B1B68022B02BF0122414BC3F8782501
:101AE000FFF7CAFF10B10E223E4B1A60FFF7B4FF9A
:101AF00020B100223C4B1A6001225A600022D30020
:101B000003F57F03D3F80013013108D0D3F8001395
:101B10000132D3F80433B2F5807F0B60EFD1334B41
:101B2000DA69D1073BD5324B1946D3F80024012A94
:101B3000FBD1C3F80425D1F80034012BFBD12B4B8A
:101B4000DA69D20708D5DA69294922F00102DA6197
:101B5000D1F80024012AFBD11A6A01320AD11A6A8B
:101B600022F0FF0242F020021A62214AD2F8003429
:101B7000012BFBD100221E4BC3F80425D3F800240F
:101B8000012AFBD1BFF34F8F1A491B4BCA6802F4DD
:101B9000E0621343CB60BFF34F8F00BFFDE71B6ACA
:101BA0000133C0D0134BD3F88C2042F44062C3F809
:101BB0008C20D3F8882042F47002C3F88820BFF349
:101BC0004F8FBFF36F8F0D4B0D4A1A6008BD00BFDA
:101BD000D0ED00E0384A00503001FF003401FF0032
:101BE00000400050E4AE03500C4700500080FF005E
:101BF0000090035000ED00E00400FA0504140020FA
:101C00000090D00370B50026084B53F820400130F7
:101C100053F82050A54200D870BD236820465B6869
:101C2000984700B166600C34F4E700BF78460000C6
:101C3000104B70B505461E460F4C9C4204D10E4C0D
:101C4000B44209D1002412E062681AB12268126815
:101C5000AA420CD00C34F0E763680BB90C34EFE700
:101C600023682846196802F096F80028F6D1204625
:101C700070BD00BFC81400205014002008B50B4DE3
:101C80004FF02002EFF3118382F31188BFF36F8FBF
:101C900002F030FA012104460228D8BF084602F0BB
:101CA00039FA2C62FFF7E2F9EAE700BF30060020BC
:101CB0000248034A0021121A02F0CAB800000020AC
:101CC0009006002008B50648064A0749121A02F095
:101CD00095F8BDE80840054A0549064802F08EB867
:101CE000D01300202C150020F84A0000000000004E
:101CF000F84A000000000020012208B50B4B02202A
:101D00001A70FFF77FFF0A4A0A490B4801F075FE77
:101D10000320FFF777FF00F07DFC01F0A1FC074AEC
:101D2000137B23F00103137308BD00BF8D06002051
:101D300099470000B34A0000C04A0000C4050020D3
:101D400080B5374BA2B083F308880025E023354CDB
:101D5000012784F82230E57725766576A576E57645
:101D6000636A314E43F4E0236362636A43F4002301
:101D70006362A563FFF7E6FAFFF772F94FF0FF33EE
:101D8000A362E36207AB6C222946184602F060F8B2
:101D9000264C8DF82970A0602846FFF733FF38469F
:101DA000FFF730FF00F0E8FB214B66624FF48062E2
:101DB000CDE90473CDE902551E4BCDE900551E490E
:101DC000304600F00FFC737B23F0040213F01B0F6E
:101DD000727304D1B36913B9304600F019FA174B86
:101DE000012205930F23CDE903320023144DCDE9E1
:101DF000013300934FF4A072124B1349284600F0B0
:101E0000F1FB6B7BE56023F004036B730F4B4FF426
:101E10008062C4E906330849064B0348FFF7FEF821
:101E2000D013002000ED00E0C405002030060020A3
:101E3000E74A0000F91C000090060020EC4A000070
:101E4000580500207D1C0000900A00204806002054
:101E500070B50E4B0E4CA34201D3002070BDD3E9E8
:101E6000030141EA000212F003020BD19D685A619E
:101E7000AA4201D11C33EEE75E6901320E6059615E
:101E80000144F5E76FF01500E8E700BFC814002033
:101E9000C814002010B513460C464FF02002EFF393
:101EA000118182F31188BFF36F8F42695AB12260AA
:101EB00013684361836901338361002081F31188D2
:101EC000BFF36F8F0DE01BB923606FF00B00F5E7D8
:101ED0000246044800F0FAFA18B9034B9B685B69A4
:101EE000236010BD8E0600203006002070B5044629
:101EF0000D464FF02003EFF3118683F31188BFF3F3
:101F00006F8F02F0A5F880B100212A6881664261D6
:101F1000427BD20603D183690BB900F079F93146CF
:101F2000BDE87040074802F03BB82B6862691A6050
:101F30002B686361A369013BA36186F31188BFF33A
:101F40006F8F70BD8E060020F8B504460F464FF027
:101F50002003EFF3118583F31188BFF36F8FC268FD
:101F600030495AB180688E68B04215D0B7B985F350
:101F70001188BFF36F8F6FF00F000CE08B6893F93F
:101F80000E3023618B680132E260A36085F3118813
:101F9000BFF36F8F0020F8BD2369F2E790F90E3090
:101FA00096F90E109942A8BF194621EAE1719942AB
:101FB0002BDA00F09FFA06463B46224629461A488D
:101FC00000F084FA0028E6D04FF02003EFF31185EB
:101FD00083F31188BFF36F8F236821699C4207D078
:101FE00033B193F90E309942A8BF194621EAE17145
:101FF000A06890F90E30994209D16EB129460A487D
:1020000001F0CEFF6FF00A00C5E70026D4E700F02C
:1020100071FA0028F2D1F0E785F31188BFF36F8FD2
:10202000F0E700BF300600208E06002038B5836838
:102030000446002B3BD0214A926893423AD1DA7B86
:10204000013ADA73C368012B05D0013BC36000F08D
:10205000C3F8002038BD4FF02003EFF3118583F360
:102060001188BFF36F8F0169806890F90E30994233
:1020700001D000F03FFA204601F0EAFFA06080B1F5
:1020800090F90E20226100228266427BD20603D1A3
:1020900083690BB900F0BCF82946094801F080FFBC
:1020A000D5E7E06085F31188BFF36F8FCFE76FF05E
:1020B0001500CFE74FF0FF30CCE700BF300600201F
:1020C0008E06002010B5084C23685BB1FEF7E2FBDA
:1020D0002368064A184410610021BDE810401846E4
:1020E00002F018B810BD00BF6806002030060020BE
:1020F000F8B50D464FF02003EFF3118483F31188F8
:10210000BFF36F8F4FF4004140F2E7360027002203
:10211000E1FB0067094B30461A6139464FF47A7289
:102120000023FEF78BF8064B1860064B1D60FFF787
:10213000C9FF84F31188BFF36F8FF8BD300600200C
:1021400068060020640600204FF02003EFF31181A1
:1021500083F31188BFF36F8F044B9A68D37B013BE5
:10216000D37381F31188BFF36F8F7047300600205F
:10217000094B03F12802824205D19B688B4202D1B0
:102180004B7BDB0606D1D1E9003213605A60002395
:10219000C1E90033704700BF3006002038B50D4C50
:1021A000024604F1280001F01CFF054600B9E5686D
:1021B000A3684AB95A7BD20606D1AA6922B9DA893C
:1021C0007F2A01D9636238BD9D4201D0FFF77AFFB3
:1021D0006562F8E73006002010B54FF02003EFF3FA
:1021E000118483F31188BFF36F8F084B00209A6826
:1021F000D37B0133D373FFF7D1FF84F31188BFF38F
:102200006F8FBDE8104001F0E2BE00BF3006002035
:10221000F8B54FF02003EFF3118483F31188BFF377
:102220006F8F154A114651F8283F8B421DD0E3B1FC
:10223000D66A90F90E5093F90E70AF4210DD5A68CD
:10224000C0E9003210605860437B63F07F03437342
:102250000020FFF7A3FF84F31188BFF36F8FF8BD51
:10226000B34202D01B68002BE5D1D36A0160436002
:10227000D36A1860D062E7E730060020F8B504465C
:102280004FF02003EFF3118583F31188BFF36F8FB5
:1022900090F90D30002B03DA01461848FFF768FF6C
:1022A000174A02F12801D2E90A308B421FD0F3B15C
:1022B00094F90E6093F90E70B74213DD5968C4E9C2
:1022C00000310C605C60637B906863F07F03637334
:1022D000031B58425841FFF761FF85F31188BFF394
:1022E0006F8FF8BD984202D01B68002BE2D1C4E981
:1022F0000010D36A1C60D462E5E700BF58060020D6
:1023000030060020154A164938B50C689368A34278
:10231000144603D1BDE83840FFF7D4BE00250D6058
:1023200010490968B9B1D9897F2914D80E4993F9A0
:102330000E5009688D420EDB0C498B420BD0996917
:1023400049B91169814203DC1846FFF797FFE1E7BD
:10235000091A116138BD00232361FBE73006002014
:102360006006002068060020640600205805002052
:10237000036D70B5044603B1984704F1180001F0ED
:10238000A3FE4FF02003EFF3118583F31188BFF311
:102390006F8F204601F0FBFD0646D8B194F90D3051
:1023A000002B07DA21461248FFF7E2FE637B03F0B9
:1023B0007F0363730F4B9868021B50425041FFF735
:1023C000EDFE637B43F00803637385F31188BFF36D
:1023D0006F8F70BD637B9B07F3D52146A068FFF725
:1023E000C7FE637BA66023F002036373E9E700BFC7
:1023F000580600203006002038B504464FF0200370
:10240000EFF3118583F31188BFF36F8F90F90D30CF
:10241000002B07DA01460948FFF7AAFE637B03F0A9
:102420007F036373064B9868031B58425841FFF7BC
:10243000B5FE85F31188BFF36F8F38BD58060020B5
:102440003006002070B504460D461646FFF7D4FF4F
:10245000637B43F0020363737DB12B68A5609D42EB
:1024600029D043B394F90E2093F90E1091421CDD4C
:102470005A68C4E9003214605C60731C22D04FF4C7
:10248000004540F2E730002126EAE6764FF47A7202
:10249000C5FB06010023FDF7D1FE0B49421C04F1E8
:1024A0001800BDE8704000F049B969688B4202D05D
:1024B0001B68002BD8D16B68256063606B681C605B
:1024C0006C60DAE770BD00BFEF3F000010B50C464E
:1024D0001146064A9068064A10601A46FFF7B2FF96
:1024E0002046BDE81040FEF7FBBC00BF30060020D0
:1024F000600600202DE9F84304464FF02003EFF377
:10250000118983F31188BFF36F8F01F040FD4EB244
:10251000804660B3174D214605F128073846FFF77E
:1025200027FEAB6AA673BB422A4619D0C3B1E96A3B
:1025300093F90E00B0420EDD5A68C4E9003214600F
:102540005C600120FFF72AFE89F31188BFF36F8FCB
:102550004046BDE8F883994202D01B68002BE7D1C2
:10256000D36A27606360D36A1C60D462E9E7A6730C
:10257000EAE700BF300600200021044B084603F1C3
:102580002802C3E90A22FFF7B3BD00BF30060020CE
:10259000014B9868704700BF3006002010B54FF01F
:1025A0002002EFF3118482F31188BFF36F8F427B17
:1025B000510704D484F31188BFF36F8F10BD22F04C
:1025C000040112F01B0F417303D183690BB9FFF7AC
:1025D0001FFE2146BDE81040014801F0E1BC00BFEC
:1025E0008E06002030B587B00E9D044604950D9DE3
:1025F00003950C9D02950B9D01950A9D0095FEF794
:10260000EBFC034B9B6803B11B6E236607B030BD28
:10261000300600202DE9F04F284E294DB04687B0F6
:10262000B54205F1300410D3FFF78EFD4FF4004999
:1026300040F2E7360027224CDFF888A0444521D33A
:1026400007B0BDE8F04FFFF7C7BD54F8043C059351
:1026500054F8103C049354F8143C039354F8183C79
:10266000029354F81C3C019354F8203C009354E925
:102670000A2354E90C01FFF7B5FF54F8303CDD6440
:102680002546CDE7616A4B1C04D0256821B9284650
:10269000FFF784FF3034D1E7B346BC46E9FB01BC09
:1026A0004FF47A72002358466146FDF7C7FD514644
:1026B000421C05F1180000F041F8EBE7C8140020B7
:1026C000C8140020EF3F0000034B1B680BB9FEF756
:1026D000E1B80020704700BF6C060020036840B1DD
:1026E000074A5268904204D01BB19A6881680A4434
:1026F0009A60426813605A600023C0E90033704753
:10270000081400200B4B10B51C689C4208BF002425
:10271000FFF7DAFF54B1A368181A20EAE070064BFD
:102720001B6913B19842A8BF184610BD6FF0004056
:10273000F5E700BF081400203006002070B50446FD
:102740001646C1604FF02003EFF3118583F3118823
:10275000BFF36F8FFFF7B8FF012EACBF80190130B8
:10276000164BA0601A689A4201D05E6832B95A6866
:10277000236062605A6814605C600AE09068A16837
:10278000884215DD411A91605168C4E900210C604E
:1027900054601A689A4206D0944204D1FFF7B2FFFF
:1027A0000021FEF721F885F31188BFF36F8F70BD0C
:1027B000091A9642A160DAD01268D7E708140020FF
:1027C0002DE9F04B0446FFF79DFD4FF02003EFF39A
:1027D000118583F31188BFF36F8F214F214EB846C7
:1027E000DFF884903460D9F8004032684C45D7E96E
:1027F00000BC05D024B1A368934214DD9B1AA360EA
:1028000000241BEB02004CEBE271C8E900013460CC
:10281000FFF778FF2146FDF7E7FF85F31188BFF347
:102820006F8FBDE8F08B1BEB03004CEBE371D31A09
:1028300033600023C7E90001A3602046FFF74EFF85
:1028400085F31188BFF36F8FE36898474FF020033B
:10285000EFF3118583F31188BFF36F8FC3E700BFD8
:10286000000000206C0600200814002038B5074C3A
:10287000074DAC4201D3002038BD04F114032046BB
:10288000C4E9053300F0F3FE1C34F2E7C81400205D
:10289000C814002001F09BBA0A46002101F0D8BA02
:1028A00010B5114800F048F800B110BD0F4800F015
:1028B00043F80028F9D10E4C204600F03DF80028DE
:1028C000F3D10C4B0C481C6000F036F80146002890
:1028D000EBD100F02DF8044608B1204610BD00F001
:1028E00051F82046FAE700BF1C1400201014002005
:1028F00018140020201400201414002008B50848E3
:1029000000F024F8074800F021F8074800F01EF80E
:10291000064800F01BF8BDE8084000F00BB800BF07
:102920001C1400201014002018140020141400207F
:1029300000207047704700BF08B5034B02681B6852
:1029400010689847002008BD2C14002008B5034BE0
:1029500002685B6810689847002008BD2C140020AE
:102960000268024B10689B68184700BF2C140020B7
:1029700008B5034B0268DB6810689847002008BD63
:102980002C14002070B5094C094D2069AB6898479C
:1029900018B1084B08485B6898470021074AEB6864
:1029A00011602069BDE87040184700BF3C1400204A
:1029B0002C140020241400209046000070060020F3
:1029C000F8B51A4C1A4D0746AB6820699847E8B924
:1029D000184E33687FB93BB90120174A1749C2F82E
:1029E00000050A68002AFCD101333360EB682069D6
:1029F00098470020F8BD002BF8D0012B08D0013BF0
:102A000033602069EB6898470020F3E70C48F8BD75
:102A10000A4A1368002BFCD1074A6FF07E40C2F8C7
:102A2000003500F021F83368E9E700BF3C140020CE
:102A30002C140020700600200000845010198450CF
:102A4000E98FFFFF0020704700207047430503D542
:102A50004FF0FF32024B1A60024B1860704700BF04
:102A600008118450081A8450014B1860704700BF49
:102A7000041A845008B100F003B84FF47500704791
:102A80000246074803681342FCD021B1054B0648B3
:102A90001B680B600360054B00201A60704700BF85
:102AA000001A84500411845008118450081A84506C
:102AB00000F0A0B830B129B1002301440370013007
:102AC0008142FBD1704700BF2DE9F041ADF51A7D81
:102AD0000F4605920021144612A84FF408721E46B4
:102AE00001F0B6F9002308A819462822069301F040
:102AF000AFF9002F3CD0002E3AD0002C38D0042162
:102B000006A8FFF7C9FE08A82821FFF7C5FE08A8F8
:102B100000F032F878B14FF0FF3512A84FF4087189
:102B2000FFF7C8FF06A80421FFF7C4FF28460DF5EC
:102B30001A7DBDE8F08112AB0DF11C080390CDE9C0
:102B40000163024605AB08A9CDF8008006A800F095
:102B5000E9FC0028DFD13368A342DCD3D8F80010A9
:102B60000546083138462246FFF794FE3460D4E724
:102B70004FF0FF35DAE700BF1C2330B583B002A960
:102B800041F8043D044600F0B1F90546D8B9019B6F
:102B90001C2B1BD1D4E9003201210033E16118BFA5
:102BA00001230AB143F00203A26832B9E268AAB96C
:102BB000C4E908323BB90D4D09E0E26843F0040373
:102BC00062B9C4E90832284603B030BD084D20463A
:102BD0001C21FFF761FE284603B030BD00222846C5
:102BE00043F00803C4E9083203B030BD0E0CF00016
:102BF000370CF00010B50C4C236813B10B4B1B685D
:102C00006BB900F031F938B10138062896BF084B8E
:102C1000084853F8200010BD0122044B1A6001231C
:102C20000020236010BD00BF74060020780600203D
:102C3000B0460000FE8FFFFF10B5094C23681BB1A2
:102C400001230020236010BD00F07CF80028F7D09D
:102C50000138062896BF034B034853F8200010BDE7
:102C600074060020B0460000FE8FFFFFBFF34F8FB9
:102C70000549064BCA6802F4E0621343CB60BFF318
:102C80004F8F00BFFDE700BF00ED00E00400FA0534
:102C9000014B5B68184700BF24140020024BD0E9A9
:102CA0000012C3E90012704724140020704700BFCF
:102CB00010B5044620B1BFF35F8F0020206010BD27
:102CC0000348FFF7E5FFBFF35F8F0020206010BDD2
:102CD000F046000010B5044610B10023236010BD7B
:102CE0000248FFF7D5FF0023236010BDCC4600004B
:102CF00050B10122D0E8EF3FC0E8E12F0029F9D11F
:102D0000012BF7D0BFF35F8F0020704770B40B4BDF
:102D10000668C268D0E90154C3E90242C3E900650C
:102D2000D1E903020E68064BD1E90154C3E90065FD
:102D3000C3E902401A6170BC704700BF2C14002028
:102D40003C14002010B5FFF77DFE70B9FFF7A8FD19
:102D500080B9FFF735FE80B9114B1B681B0EF02BB5
:102D60000DD00624FFF770FE00E00324FFF7C6FD38
:102D7000204610BD0424204610BD0024F2E7094A75
:102D8000094B12689A4201D00724EBE70120FFF7B4
:102D900017FE0028F1D1054B04461860E8E700BF94
:102DA00028198450241A84500000E0200C1A845002
:102DB00030B5ADF5157D4FF4087200210CA801F077
:102DC00047F8002302A819462822019301F040F891
:102DD00002A8FFF7D1FE18B105200DF5157D30BD15
:102DE0001C4D4FF0FF312868FFF7BAFD0446F0B9DB
:102DF0000020FFF7E5FDB0B90CAA02A901A800F078
:102E0000D5FB04460120FFF7DBFDF0B92868FFF78A
:102E1000AFFD10B11048FFF73BFF2046002CDBD17F
:102E20000DF5157D30BD0D48FFF732FFE4E70C4886
:102E3000FFF72EFF012CDBD12868FFF799FD002852
:102E4000CAD00548FFF724FFC6E70648FFF720FF72
:102E5000DCE700BF201400202847000040470000A6
:102E6000104700006047000008B5FFF7EBFD18B100
:102E7000FFF744FD032008BDFFF712FD68B9FFF717
:102E80009FFD60B9154B1B681B0EF02B12D0FFF78E
:102E9000DBFDFFF733FD062008BD042008BDFFF76A
:102EA000D3FDFFF72BFDFFF783FF00280CBF0020A9
:102EB000052008BD0A4A0B4B12689A4205D0FFF75D
:102EC000C3FDFFF71BFD072008BD0120FFF778FDBC
:102ED0000028E4D1044B1860E5E700BF28198450AE
:102EE000241A84500000E0200C1A845018B111B14B
:102EF0000B681C2B01D0012070474FF47F033A4A26
:102F0000D3F8101C91425AD0D3F8102C013256D06D
:102F1000D3F8102C4FF47F030260D3F8141C334A0B
:102F200091425ED0D3F8142C01325AD0D3F8142C2D
:102F30004FF47F034260D3F8182C12F5947F4DD0E4
:102F4000D3F8182C013249D0D3F8182C4FF47F0352
:102F50008260D3F81C1C264A91423CD0D3F81C2C2A
:102F6000013238D0D3F81C2C4FF47F03C260D3F861
:102F7000002C70322DD0D3F8002C013229D0D3F898
:102F8000002C4FF47F030261D3F8042CAF321ED023
:102F9000D3F8042C01321AD0D3F8042C4FF47F0359
:102FA0004261D3F8081C134A91420BD0D3F8082C85
:102FB000013207D0D3F8083C83610020704740F607
:102FC000FC02A7E740F237338361002070475122AB
:102FD000E4E79022D5E742F60412C5E740F6D8624E
:102FE000B4E742F2D002A3E7FCF8FFFFD020FFFFD6
:102FF0000429FFFF37F3FFFFA8B32DE9F0414C1E72
:10300000B4F5047F2CD25BB352B34FF0000CC9006F
:10301000E646654664464F1E03F1FF380CE0AB42BE
:1030200016D08E4501D10CF1010CA84516D0013403
:10303000BC4205F1010518D8610950F8211004F0CF
:103040001F06F1401F2E18BF01F00101002CE6D130
:103050000025A8458E464FF0010CE8D16245E6D226
:103060000348BDE8F081024870470020BDE8F081C8
:10307000370CF1002DE9F04F8FB00D46DDE9194115
:103080008346002957D12969039100211C60189BB0
:103090001960002A00F02281814A824B11686A6A15
:1030A0001B689A4257D10A2955D19BF803300693E1
:1030B0000399042308467C4A0293A2FB000292086B
:1030C000CB0002EB420204F10800A1EB4202013BFB
:1030D000DFF8D091DFF800A2049000920593189BCE
:1030E000039C1C60002C00F0CC800026049F00F0A4
:1030F000A9FA00230793069BBBF1000F3AD0002DDD
:1031000034D053BB5B000693BBF1000F36D0002DCB
:1031100034D0E3B106A9284600F084FA002800F074
:103120007D81624B984212D0009000F08BFA00989B
:103130000FB0BDE8F08F4FF47F01D1F80C0C0130D7
:103140000CBF4FF40471D1F80C1C03919DE72B6A5E
:1031500073B95648E8E75648E6E706A9284600F05E
:1031600061FA68B1534B9842DED0069B082BC9D157
:103170005148D9E7082BFBD05B0006934F48D3E7B3
:103180002946069800F030FA0028EBD1069B082B60
:1031900000F00E81042B00F03181A3F10203B3FA99
:1031A00083F35B09019301231946454A136042F8F2
:1031B000843C434B19606B6AC9F80030D9F8002091
:1031C0006B6A9A42F5D14FF000084FF0FF30CAF811
:1031D0000080FFF73BFC3B4A3B4B40461A60FFF741
:1031E00043FC0A22019839492D4B08601A602A696C
:1031F000A8F15538A8FB02126B6A120903EB4303CE
:10320000DB0303FB02F3324A9B0913600123CAF874
:1032100000300699DBF800200B0243EA016322F03C
:103220007F421343CBF8003007A800F0CDF9002807
:1032300098D1284BA8FB04281A681433089253F835
:10324000102CB6EB980F099253F80C2C0A9253F8F5
:10325000082C0B9253F8042C0C921B680D9301D18F
:10326000009B9BB93846182208A9FFF713FB183CAE
:1032700018370136002C7FF43AAF049B002B40F046
:103280009A800023189A1360069B6FE71A46384607
:1032900008A9E41AFFF7FEFA009B1F44E9E700BF04
:1032A0003811845030118450ABAAAAAA310CF10015
:1032B000300CF100020CF100320CF100350CF10081
:1032C000C4118450FEFFFF0F001184500C11845074
:1032D000D8118450141184502C118450BBF1000F6C
:1032E0003FF44CAF002D3FF449AF01230EA941F844
:1032F000203DCBF80020284600F094F900287FF408
:1033000013AF2946069800F06FF900287FF40CAF40
:10331000069F082F00F0EB80042F00F0EA80A7F151
:103320000207B7FA87F77F0901221646734B7449E3
:103330001A6018460A60943B06606A6A1A60196847
:103340006A6A9142F8D14FF000086E4B4FF0FF309F
:10335000C3F80080FFF77AFB6B4B6C4A40461A605B
:10336000FFF782FB0A226A496A4B0F601A601A99BA
:103370002B6901296A6A00F0B1806749A1FB031338
:103380001B09012102EB4202D20303FB02F3634A51
:103390009B0913605B4B19600699DBF800200B0258
:1033A00043EA016322F07F421343CBF800307FE60B
:1033B00003230193F7E6039BB3F5047F3FF661AF68
:1033C000DDE9047C204623466E6904E001200133D8
:1033D0006345144615D85A0957F8222003F01F01F7
:1033E000CA401F2918BF02F00102002BEED0A242F2
:1033F000ECD101308642EAD149480BE00223019327
:10340000D1E64FF48063DDE90310AA69FFF7F4FD0C
:1034100000285DD00023189A1360A3E62946069879
:1034200000F0E2F800287FF47CAE069C082C51D016
:10343000042C51D0A4F10204B4FA84F464090123E9
:103440001E4619462D4A136042F8843C2B4B1960E6
:103450006B6AC9F80030D9F800206B6A9A42F5D13E
:1034600000274FF0FF30CAF80070FFF7EFFA264B45
:10347000264A38461A60FFF7F7FA0A222449254BF4
:103480000C601A602A6924496B6AA1FB021203EBE3
:1034900043031209DB0303FB02F3204A9B09136079
:1034A000CAF80060069BDBF800101A0242EA0363C8
:1034B00021F07F421A43130A03F47F03134323F0DE
:1034C0007F43CBF80030029B013B02937FF407AEB1
:1034D000002029E60324B2E70224B0E74FF47F037B
:1034E000D3F80C1C013106D0D3F80C3C45E7032778
:1034F0001AE7022718E7162343E700BFC4118450D8
:10350000401184502C11845000118450FEFFFF0F95
:103510000C11845038118450ABAAAAAAD811845037
:10352000360CF1002DE9F0431B4C85B00746DDE970
:103530000D56884620684FF0FF319146FFF710FA8C
:1035400028BB0020FFF73CFAE8B90023CDE900567C
:1035500002934A46414638460C9BFFF78BFD0546D1
:103560000120FFF72DFA50B92068FFF701FA10B1DA
:103570000A48FFF78DFB284605B0BDE8F0830848F0
:10358000FFF786FBF0E70748FFF782FBDDE7064819
:10359000FFF77EFBD5E700BF20140020284700007E
:1035A00060470000404700001047000010B50124AC
:1035B00086B005ABCDE901240093002204ABFFF7F0
:1035C00059FD06B010BD00BF08B501464FF480603C
:1035D000FFF750FA00230249024A0B60136008BD4E
:1035E000C81184502C1184500138072815D8DFE801
:1035F00000F0100C140814141404CB6800204B6263
:1036000070478B6800204B6270474B6800204B620C
:1036100070470B6800204B6270470148704700BF3D
:10362000310CF1000B6802E0082B0B6006D8026A2F
:1036300013424FEA4303F7D0002070470048704719
:10364000310CF10000230449044A0B604FF4806000
:103650001360FFF7FBB900BF2C118450C4118450D4
:1036600008B5FDF7C9F9BDE80840FDF75BB9FF23D0
:103670002DE9F04F4668C372324600234FF00C0923
:103680000789016806FB07FC90F80A8061449845A9
:1036900005DC002319468F4220DCBDE8F08FBCFB1F
:1036A000F2F509FB03FED0F80CA0202D0AEB0E0466
:1036B00004F1040BC4E901BB05D8C372920822F0DF
:1036C00003020133E3E715F11F0448BF05F13E048F
:1036D00064114AF80E1001EB8401EFE7C268056837
:1036E00002F1040CEC1845F803C0956801316560DF
:1036F000956833442C609460CDE70020704770B526
:103700000D4604464520A04729465220A047294699
:103710002346BDE87040522018472DE9F04F4FF086
:10372000000806460F461C464FF0FF3AC146454684
:103730008BB00292029B187810B90BB0BDE8F08FE5
:1037400045B9252800F04B813946B047029B01332B
:103750000293EFE764286DD019D839280AD83128A8
:103760005FD22D2800F0418130284BD0252807D189
:10377000394632E1582800F0BB80632800F02A81E6
:1037800039462520B047029B3946187825E1702834
:1037900000F0A48011D869284CD06C2805D1B8F16C
:1037A0006C0F2AD14FF04C08D0E76828E8D1B8F167
:1037B000680F22D14FF04808C8E7752872D018D892
:1037C0007328DDD154F8045BAB465B461BF8010B54
:1037D000002840F0FC80B9F1030F40F00C815D1B24
:1037E000AAEB0505002D49DD39462020B047013DF3
:1037F000F8E778287CD07A28C2D1B8F1000FBFD181
:103800008046A3E7BAF1000F0EDAB9F1000F00F01D
:10381000EF80A0F1300AB9F1000F08BF4FF00209A4
:1038200094E7BAF1000FF4DB0A2303FB0A0AAAF1BA
:10383000300AF0E7B8F17A0F02D154F8045B20E0C7
:10384000B8F16C0FF9D0B8F14C0FF6D1073424F071
:103850000704F4E8022312F10041069143F100014C
:1038600007910021DDE906BC4FF0FF30614508BF3C
:10387000584505D239463046FFF741FF002565E738
:103880001546002D05DA39462D20B0476D420AF164
:10389000FF3A4B462A46CDF800A039463046FCF7A1
:1038A00081FEEBE7B8F17A0F02D154F8042B11E056
:1038B000B8F16C0FF9D0B8F14C0FF6D100214FF0F0
:1038C000FF30073424F00704F4E80223994208BFCC
:1038D0009042CFD3CDF800A04B46DEE739463020EA
:1038E000B04739467820B0474FF0080A4FF0010939
:1038F000029B1B78702B04D154F8043B04930023E3
:103900000DE0B8F16C0FF7D0B8F14C0FF4D10734DB
:1039100024F007031C4654F8082B5B68049200212E
:1039200010224FF0400B03910591ABF1040B04986A
:10393000CBF1200CABF1200120FA0BF003FA0CFCC8
:1039400040EA0C0023FA01F1084310F00F0006D101
:10395000059911B9BBF1000F22D1302103E00928EC
:103960008CBF57213021084440B239460893059254
:10397000B047039B059A01330393089BBBF1000FEB
:1039800023D1B9F1030F7FF479AF039BC3EB4A0551
:10399000002D7FF773AF39462020B047013DF7E790
:1039A000511E9245089107DBB9F1010F06D1394646
:1039B00030200993B047099B089AB6E7B9F1020F86
:1039C000FAD1099339462020F4E70595ADE7394649
:1039D000B047FAE6394654F8040BB0474EE7A8461C
:1039E000A9464FF0FF3A0125B0E64FF00309ADE6D6
:1039F0004FF00109AAE60546A8E60FB407B504A9E9
:103A000051F8040B0191FCF71FFE03B05DF804EBC5
:103A100004B07047044608B5084611461A46A04748
:103A2000FEF7B6FDFDF7B4FC7047FEF733B80C2285
:103A30008368C9B202FB01314B7A23B9087AB0FA24
:103A400080F040097047022070470268F8B5976817
:103A5000CCB286684FF02003EFF3118583F3118811
:103A6000BFF36F8F0C226243B1180B7A1BB3013B7B
:103A7000DBB20B7213BBB3503A444B605368B3B91B
:103A80000C23012103FB0473DA7A1B8902F1502213
:103A90001160002203F150231A600C21002001FB69
:103AA0000464607285F31188BFF36F8FF8BD984787
:103AB0000028E5D1F1E76FF04400F3E70020F1E7DB
:103AC00038B50C248368054604FB01340123637276
:103AD0004FF02003EFF3118183F31188BFF36F8F51
:103AE00023682BB160681A688342226008BF626055
:103AF00081F31188BFF36F8F03B938BDD3E901217A
:103B000028469047E4E703682DE9F041D0F808C063
:103B100005469F68CEB24AB10C2373435CF803306C
:103B20009A425CD013B11B68002BF9D14FF02003EF
:103B3000EFF3118083F31188BFF36F8F0C21714372
:103B40000CEB01031C7A0134E4B21C7280F311887F
:103B5000BFF36F8F32B34FF050204FF0030EC0F819
:103B600008E3587AA0B94FF0200EEFF311888EF3D6
:103B70001188BFF36F8F1060D3F804E0BEF1000F1F
:103B800020D15A604CF8012088F31188BFF36F8F61
:103B90004FF050230321C3F8041318B1D2E90131C7
:103BA00028469847012C0BD10C237343FB586BB963
:103BB0000C23012203FB0676B37A03F150231A602B
:103BC00000200EE0CEF800205A60DDE72846984736
:103BD0000028EDD131462846FFF772FFF0E76FF07D
:103BE0000F00BDE8F0810022FFF78DBF10B5002265
:103BF000044601210520FDF7D7F90520FDF7C4F99A
:103C00004FF050230222C3F8182503220020C3F8E6
:103C10000423A368C3E90000A368C3E9030010BD3F
:103C200070477047002307B501A88DF80430FEF7F0
:103C30003FFF03B05DF804FB902908B5134639D166
:103C40000A4601460020FEF73FFFBDE808407146E6
:103C500072467346B7EE000AF7EE000AB7EE001A96
:103C6000F7EE001AB7EE002AF7EE002AB7EE003A98
:103C7000F7EE003AB7EE004AF7EE004AB7EE005A08
:103C8000F7EE005AB7EE006AF7EE006AB7EE007A78
:103C9000F7EE007A8EF3008C10B4F1EE10CA4FF6F6
:103CA0006074C0F6FF740CEA040CE1EE10CA10BC9C
:103CB000F44674476FF01500C7E7FEE7FDF7DCB97F
:103CC00043B2A9B1002B12DB01215B099B0003F178
:103CD000604303F56143D3F8802200F01F0001FA2E
:103CE00000F022EA0002C3F88022D3F88032704745
:103CF000002BFCDB01225B099B0003F1604303F511
:103D00006143D3F8801200F01F0002FA00F008436C
:103D1000C3F88002E9E700F007B90146006800F047
:103D200003B908B5FDF7B2F9BDE80840FDF7CAB818
:103D300007B5002101A8FDF7C3FC03B05DF804FB43
:103D400030B50B6885B04C689DF808200D89013CA2
:103D50000093498923F01F03234465F3040261F3B0
:103D6000471223F01F030F288DF808200393044601
:103D700005D86946FDF75CFB204605B030BD6FF005
:103D80001504F9E740E800F313F4803FD8B208BF08
:103D90006FF0150070470138013910F8013F11F834
:103DA000012F934201D1002BF7D1981A704710B51B
:103DB0005AB10139841810F8012B11F8013FA042C3
:103DC00001D09A42F7D0D01A10BD1046FCE7431A32
:103DD000934210B500EB020308D3024601399A4220
:103DE0000BD011F8014F02F8014BF8E70A4412F822
:103DF000014D8A4203F8014DF9D110BDF0B581EAB9
:103E00000004A50703460BD0013B0A4491421AD196
:103E1000F0BD002AFCD011F8014B013A03F8014B28
:103E20009C07F6D19508AC001E1F0F19B94205D1A9
:103E30006FF00306234406FB0522E5E751F804CBA7
:103E400046F804CFF2E711F8014B03F8014FDDE724
:103E5000034670B5C9B29C0710D141EA012444EA77
:103E60000445940803EB8406B3420DD16FF00305BB
:103E700005FB04241C44A34209D170BD002AFCD0D8
:103E800003F8011B013AE6E743F8045BECE703F8AB
:103E9000011BF0E74FF0FF3070470B46826892E855
:103EA000030083E803000020704703689B681B68D9
:103EB000D3F88004C3F880047047036882689B6865
:103EC0001B68D3F8100138B1127A00200A70012261
:103ED000C3F810011A6070474FF0FF30704700229E
:103EE000036882B09B688DF807101B68C3F8202117
:103EF0000DF10702C3F844250122C3F848259A6052
:103F0000D3F820110029FBD0DA6002B0704708B561
:103F10000020FDF71FFA08B5FCF73EFFFCF7BCFFD9
:103F2000BDE80840FEF788BE70B505460E46FEF7B0
:103F30002FFB314604462846FFF7E9FF2046BDE83F
:103F40007040FDF725BAFFF76CBE30B500248461E0
:103F500041EA020414F00304C0E9023201610CD109
:103F60004461A34203D1C0E90000002030BD45698F
:103F700001340D6041611144F3E76FF01500F5E77E
:103F800003460020C3E90033C3E902007047437BC6
:103F9000DB0603BF8069B0FA80F04009002070475B
:103FA00021B9EFF3058008B9FCF79ABF81F31188B6
:103FB000BFF36F8F7047034620B9EFF305820AB94C
:103FC000FCF78EBF83F31188BFF36F8F70474FF0FC
:103FD0002003EFF3118083F31188BFF36F8FFFF796
:103FE000EABF0368984214BF18460020704750F893
:103FF000103C70B50446A0F11805CBB14FF020037A
:10400000EFF3118683F31188BFF36F8F294650F8C1
:10401000100CFEF7ADF814F80B3C23F0020304F883
:104020000B3C86F31188BFF36F8F002344F8103CDC
:1040300014F80B3C284623F0140304F80B3CFFF75C
:10404000A6FF20B12846BDE87040FEF7E1B870BD7C
:1040500038B54FF02003EFF3118283F31188BFF3DB
:104060006F8FFFF7BEFF044682F31188BFF36F8F97
:10407000C8B14FF02003EFF3118583F31188BFF32C
:104080006F8F01468068FEF773F8637B23F00203AD
:10409000637385F31188BFF36F8F002304F1180059
:1040A000A36000F011F8204638BD10B5029C837360
:1040B000047300230424C3734473C0E90633C0E9C6
:1040C0001333C0E9161210BD10B54FF02002EFF304
:1040D000118482F31188BFF36F8F03683BB1FEF741
:1040E000FDFA002084F31188BFF36F8F10BD6FF0CD
:1040F0001500F7E710B54FF02003EFF3118483F3B9
:104100001188BFF36F8FFEF7FDFA84F31188BFF3B8
:104110006F8F10BD70B504460E464FF02003EFF3CD
:10412000118583F31188BFF36F8FFEF7EBFA012837
:1041300005DDA04203DD31462046FCF755FB85F343
:104140001188BFF36F8F70BD7047FFFF20C1FF7FE5
:104150000100000000000000BD3C00000000000065
:10416000BD3C000000000000BD3C0000000000005D
:10417000BD3C000000000000BD3C0000000000004D
:10418000E906000000000000BD3C00000000000047
:10419000BD3C000000000000BD3C0000000000002D
:1041A000BD3C000000000000BD3C0000000000001D
:1041B000BD3C000000000000BD3C0000000000000D
:1041C000BD3C000000000000BD3C000000000000FD
:1041D000BD3C000000000000BD3C000000000000ED
:1041E000BD3C000000000000BD3C000000000000DD
:1041F000BD3C000000000000BD3C000000000000CD
:104200003D07000000000000BD3C00000000000071
:10421000BD3C000000000000BD3C000000000000AC
:10422000BD3C000000000000BD3C0000000000009C
:10423000BD3C000000000000BD3C0000000000008C
:10424000BD3C000000000000BD3C0000000000007C
:10425000BD3C000000000000BD3C0000000000006C
:10426000BD3C000000000000BD3C0000000000005C
:10427000BD3C000000000000BD3C0000000000004C
:10428000BD3C000000000000BD3C0000000000003C
:10429000BD3C000000000000BD3C0000000000002C
:1042A000BD3C000000000000BD3C0000000000001C
:1042B000BD3C000000000000BD3C0000000000000C
:1042C000BD3C000000000000BD3C000000000000FC
:1042D000BD3C000000000000BD3C000000000000EC
:1042E000BD3C000000000000BD3C000000000000DC
:1042F000BD3C000000000000BD3C000000000000CC
:10430000BD3C000000000000BD3C000000000000BB
:10431000BD3C000000000000BD3C000000000000AB
:10432000BD3C000000000000BD3C0000000000009B
:10433000BD3C000000000000BD3C0000000000008B
:10434000BD3C000000000000BD3C0000000000007B
:10435000BD3C000000000000BD3C0000994700008B
:10436000650600000000000099470000CD0600002F
:104370000000000055490000ED3B00000C44000027
:10438000874700007D0700000000000099470000FB
:10439000B91500000000000080470000651900000A
:1043A0007046000099470000D1190000000000008D
:1043B000A84A0000173F00000000000099470000D5
:1043C000511E000000000000994700006D28000009
:1043D00000000000DEE61E284CBBCE8F025B000012
:1043E000DEE61E28EAAC45B8025B0000DEE61E28C9
:1043F0004CBBCE8F025B0000E73B00004B3A000055
:10440000073B0000000000002F3A00000000000001
:104410000000000000010004000000000000000097
:104420000401080C1701000007010000070100004B
:10443000070100000701000007010000070100005C
:10444000070100000701000007010000070100004C
:10445000070100000701000007010000070100003C
:10446000070100000701000007010000070100002C
:10447000070100000701000007010000070100001C
:10448000070100000701000007010000070100000C
:1044900007010000070100000701000007010000FC
:1044A000070100004A490000420100005149000094
:1044B000050100005B490000140100006449000090
:1044C000150100006D490000390100007649000027
:1044D00009010000814900000A0000008C49000029
:1044E0000A010000964900000B010000A0490000ED
:1044F0000F010000AB49000010010000B6490000A8
:1045000011010000C14900000E010000CB4900006C
:1045100021010000D449000022010000DD49000013
:1045200023010000E649000024010000EF490000DB
:1045300018010000F74900002A010000FF490000AF
:104540003A010000074A00002C0100000F4A000059
:104550001C010000184A00001D010000214A000053
:10456000170100002B4A000031010000374A00000B
:1045700004010000170100001701000017010000EE
:1045800017010000170100001701000017010000CB
:1045900017010000070100000701000007010000EB
:1045A00007010000070100000701000007010000EB
:1045B00007010000070100000701000007010000DB
:1045C00007010000070100000701000007010000CB
:1045D00007010000070100000701000007010000BB
:1045E00007010000070100000701000007010000AB
:1045F00007010000000000000002000000040000AD
:10460000000800000010000000000000BB3C00009B
:10461000050E0000C50D0000690E0000A50D00008C
:10462000EC130020D4130020E4130020000000004D
:10463000DC130020020000003C46000000000000E7
:10464000994A000006000000E0FF0F000000002073
:10465000A14A000021000000E0FF0020BB3E000056
:10466000DF3E0000AB3E0000F91700009B3E00005B
:10467000008000500100000050140020A41400200D
:10468000B0140020C8140020C8140020F5FFFFFF5C
:10469000436F756C64206E6F74206C6F636B207059
:1046A0006F7765722073617665206D75746578002B
:1046B000FF8FFFFFFF8FFFFFFE8FFFFFFE8FFFFFCC
:1046C000FD8FFFFFFC8FFFFFFC8FFFFF43616E2715
:1046D0007420696E697469616C697A65206D75749E
:1046E00065782C20776173204E554C4C0D0A0000E4
:1046F00043616E277420756E6C6F636B206D7574EB
:1047000065782C20776173204E554C4C0D0A0000C3
:104710004661696C20746F206163717569726520F0
:104720006D757465780A00004661696C20746F20AD
:1047300072656C65617365206D757465780A00003B
:104740004661696C20746F20696E63726561736580
:1047500020504D20636F756E7465720A0000000072
:104760004661696C20746F2064656372656173656E
:1047700020504D20636F756E7465720A0000000052
:10478000554152545F30007379735F636C6F636B94
:10479000005365637572650909004E6F6E2D536590
:1047A0006375726509004E6F6E2D53656375726592
:1047B00000466C61736820726567696F6E09094411
:1047C0006F6D61696E09095065726D697373696F08
:1047D0006E730A0025303275203078253035782008
:1047E0003078253035782009002563004E6F6E2D16
:1047F0007365637572652063616C6C61626C6520C2
:10480000726567696F6E203020706C61636564202B
:10481000696E20666C61736820726567696F6E20CF
:10482000256420776974682073697A652025642E71
:104830000A00436F756C64206E6F7420696E697432
:1048400069616C697A65207365637572652073654B
:104850007276696365732028657272202564292E3B
:104860000A005352414D20726567696F6E09094411
:104870006F6D61696E09095065726D697373696F57
:104880006E730A0025303275203078253035782057
:104890003078253035780900506572697068657226
:1048A000616C0909446F6D61696E09095374617423
:1048B00075730A002530327520252D32317325732A
:1048C0000009534B49500A00094552524F520A0001
:1048D000094F4B0A0053504D3A204E5320696D61E9
:1048E000676520617420307825780A0053504D3A6E
:1048F000204E53204D535020617420307825780A83
:104900000053504D3A204E532072657365742076E3
:104910006563746F7220617420307825780A0053C3
:10492000504D3A207072657061726520746F206A14
:10493000756D7020746F204E6F6E2D5365637572A8
:104940006520696D6167652E0A004E52465F5030E2
:10495000004E52465F434C4F434B004E52465F520F
:10496000544330004E52465F52544331004E52463B
:104970005F4E564D43004E52465F554152544531AD
:10498000004E52465F554152544532004E52465FEA
:104990005457494D32004E52465F5350494D3300F3
:1049A0004E52465F54494D455230004E52465F5478
:1049B000494D455231004E52465F54494D455232A1
:1049C000004E52465F5341414443004E52465F50B1
:1049D000574D30004E52465F50574D31004E5246B3
:1049E0005F50574D32004E52465F50574D33004E88
:1049F00052465F574454004E52465F495043004E62
:104A000052465F564D43004E52465F465055004E4B
:104A100052465F45475531004E52465F4547553235
:104A2000004E52465F4450504943004E52465F4745
:104A300050494F544531004E52465F524547554C00
:104A400041544F5253006D757465785F696E697497
:104A50002063616C6C65642077697468204E554CE6
:104A60004C20706172616D6574657200436F756C86
:104A700064206E6F7420616C6C6F63617465206D6F
:104A800075746578206265666F726520696E6974F9
:104A900069616C697A696E6700464C4153485F30C2
:104AA000005352414D5F300048575F43433331302C
:104AB0005F300076322E312E39392D6E637331001E
:104AC0002A2A2A20426F6F74696E67205A657068BF
:104AD0007972204F53206275696C642025732025FC
:104AE00073202A2A2A0A006D61696E0069646C6568
:104AF0000000000000000000FB360000DC14002075
:104B000001000000F0140020010000000415002046
:104B1000010000001815002001000000953E000073
:104B200000C2010000010300000000000090D0035B
:104B30000814002008140020401400204C14002009
:104B4000441400203C140020181400200000000031
:104B50006D2C0000D52C0000AD2C0000F12C0000C5
:104B6000B12C0000880600207C060020840600206E
:104B700000000000800600205C43000000000000F0
:104B800000000000BC430000000000000000000026
:104B9000C843000000000000000000008C4300003B
:104BA000000000000000000074430000F843000013
:104BB0000C000020984300005C460000F813002021
:104BC0006843000000000000000000008043000077
:104BD0000000000000000000B043000000000000E2
:104BE00000000000A44300000000000000000000DE
:104BF000C8140020C81400200000000000000000BD
:104C00000F000000DC140020DC1400200000000075
:104C1000000000000F000000F0140020F01400203D
:104C200000000000000000000F000000041500203C
:104C30000415002000000000000000000F0000002C
:104C400018150020181500200000000000000000CA
:104C50000F000000FFFFFFFFFFFFFFFFFFFFFFFF51
:104C60000000000000000000000000000000000044
:104C70000000000000000000000000000000000034
:104C80000000000000000000000000000000000024
:104C90000000000000000000000000000000000014
:107FE0007FE97FE9F8F71ABE7FE97FE9F8F76EBE0F
:107FF0007FE97FE9FBF720BE0000000000000000E1
:10C000006856022011D30000239F010029D10000AF
:10C0100029D1000029D1000029D1000029D1000038
:10C0200029D1000029D1000029D10000F1D0000061
:10C0300029D1000029D1000041D000000F9F01004C
:10C0400045D1000045D1000045D1000045D1000098
:10C0500045D1000045D1000045D1000045D1000088
:10C0600045D1000045D1000045D1000045D1000078
:10C0700045D1000045D1000045D1000045D1000068
:10C0800045D1000045D1000045D1000045D1000058
:10C0900045D1000045D1000045D1000045D1000048
:10C0A00045D1000045D1000045D1000045D1000038
:10C0B00089EE000043B1010045D1000045D10000E8
:10C0C00045D1000045D1000045D1000045D1000018
:10C0D00045D1000045D1000045D1000045D1000008
:10C0E00045D1000045D1000061B1010045D10000FB
:10C0F00045D1000045D1000045D1000045D10000E8
:10C1000045D1000045D1000045D1000045D10000D7
:10C1100045D1000045D1000045D1000045D10000C7
:10C1200045D1000045D1000045D1000045D10000B7
:10C1300045D1000045D1000045D1000045D10000A7
:10C1400045D10000000000000000000000000000D9
:10C1500000000000000000000000000000000000DF
:10C1600000000000000000000000000000000000CF
:10C1700000000000000000000000000000000000BF
:10C1800000000000000000000000000000000000AF
:10C19000000000000000000000000000000000009F
:10C1A000000000000000000000000000000000008F
:10C1B000000000000000000000000000000000007F
:10C1C000000000000000000000000000000000006F
:10C1D000000000000000000000000000000000005F
:10C1E000000000000000000000000000000000004F
:10C1F000000000000000000000000000000000003F
:10C20000DEE61E284CBBCE8F025B00003C00000027
:10C21000081201000100000000C0000000C0000082
:10C22000FFFF02910000000000000000000000007D
:10C2300000000000000000000000000053B94AB9EF
:10C24000002908BF00281CBF4FF0FF314FF0FF301E
:10C2500000F070B9ADF1080C6DE904CE00F006F8FD
:10C26000DDF804E0DDE9022304B070472DE9F04F6A
:10C27000099E04468946002B40F083808A42154679
:10C2800045D9B2FA82F24AB1C2F1200701FA02F3AB
:10C290009540944020FA07F747EA03094FEA154E04
:10C2A000230C1FFA85F8B9FBFEFC0EFB1C990CFB56
:10C2B00008F143EA094399420AD9EB182CBF01203F
:10C2C0000020994202D9002800F01D810CF1FF3CAA
:10C2D000591AA3B2B1FBFEF00EFB101100FB08F8D7
:10C2E00043EA0144A04505D92C1902D2A04500F229
:10C2F0000E810138A4EB080440EA0C4000271EB16F
:10C30000D4400023C6E900433946BDE8F08F002A37
:10C3100051D0B2FA82F2002A40F0AF80491B4FEAB6
:10C32000154E1FFA85F80127230CB1FBFEFC0EFB0E
:10C330001C1108FB0CF043EA014398420AD9EB18A0
:10C340002CBF01210021984202D9002900F0D7809A
:10C350000CF1FF3C191AA3B2B1FBFEF00EFB101159
:10C3600008FB00F843EA0144A04505D92C1902D284
:10C37000A04500F2C1800138A4EB080440EA0C405B
:10C38000BDE78B4208D9002E74D00027C6E9000112
:10C3900038463946BDE8F08FB3FA83F767B98B4268
:10C3A000C0F0A480824240F2A1803846002EABD07B
:10C3B000C6E90049A8E7FFDEC7F12005BB4002FA45
:10C3C00007FC01FA07F4EA4020FA05F8E94000FA10
:10C3D00007FE1A4348EA04044FEA1248200C1FFAE9
:10C3E00082F9B1FBF8FA08FB1A110AFB09FB40EAD3
:10C3F00001418B450AD951182CBF012300238B45DD
:10C4000002D9002B00F088800AF1FF3AA1EB0B0162
:10C41000A4B2B1FBF8F008FB101100FB09F944EAE3
:10C420000141894504D9511801D289457BD8013889
:10C4300040EA0A40A1EB0901A0FB0C8949454446AA
:10C440004B4602D306D1C64504D20138B8EB0C04E2
:10C4500069EB0203002E5DD0BEEB040261EB030129
:10C4600001FA05F522FA07F3F94000271D43C6E952
:10C47000005149E73746304646E7C2F12000954073
:10C4800001FA02F721FA00F34FEA154E24FA00F1FF
:10C490001FFA85F894403943B3FBFEF00F0C0EFBF6
:10C4A000103300FB08FC47EA03439C4507D9EB180F
:10C4B0002CBF012700279C4500D98FB30138A3EB7F
:10C4C0000C0389B2B3FBFEF70EFB173307FB08FC26
:10C4D00041EA03418C4504D9691801D28C4525D81D
:10C4E000013FA1EB0C0147EA00471DE7841A61EB0D
:10C4F00003030120994659E702382C443CE7ACF18C
:10C50000020C2B4426E7ACF1020C2B44E0E6023887
:10C510002C44EFE63746F7E6AAF1020A114475E724
:10C5200002382B44CBE70238114481E7023F29440B
:10C53000D7E700BF704700BF2DE9F04705464368C5
:10C540005B6C03B198476B685B6B002B4FD0284640
:10C55000984700284BD06B689C692CB14FF48062DF
:10C5600029492846A04704464FF48265274FDFF843
:10C57000A8903B68DFF8A4A023443B60D9F80030C2
:10C58000DAF800000C3305FB00301F4EDFF8908016
:10C590003146224640440DF070FE331913F8013C39
:10C5A00056460A2BCA4628D133685D433B6808EBE0
:10C5B0000501013B81F80C3408F108032B44D3E852
:10C5C000EF2F42F00100C3E8E40F002CF7D1D307AE
:10C5D00002D40F480FF0EAFB00223368CAF80020AB
:10C5E000032BD8BF01333A60D4BF336032600649B1
:10C5F0000848BDE8F0470DF0E2BBD9F800301C4414
:10C60000C9F80040F3E700BFD32A02207C000220D3
:10C61000EC2702207CCE010074000220780002206A
:10C620008000022001232DE9F0411C4C86B0064613
:10C6300000AF20460D463B723C600DF0ECFDC7E9B3
:10C640000365786002F09AF8BB7DE84623F00303A7
:10C65000BB7505F1080323F00703ADEB030DB882AA
:10C660002A46314668460DF008FE00236A460DF85A
:10C6700005300B490B480DF0A2FB2046C5460DF0D6
:10C68000CAFD2146024608480DF099FB3946074885
:10C690000EF0ABFA1837BD46BDE8F081EFCA0100D5
:10C6A00000CB01000DCB010013CB010008000220DC
:10C6B00010B5044690F80C1405480DF080FB94F872
:10C6C0000C1404F10C00BDE81040FFF7ABBF00BF35
:10C6D00069CE01002DE9F04F89B00B7802AF064614
:10C6E0000C46072B00F2C480DFE803F0042C33AFC4
:10C6F000C2C2C2B8C96919B160480DF060FB1DE043
:10C700005F4CCA225F4960480DF059FB2046FC602F
:10C710000DF081FD01233B7507F10C037B605B4B42
:10C7200038612046BB600DF076FD21460246584830
:10C730000DF045FB391D57480EF0AEFA1C37BD46CB
:10C74000BDE8F08FD022CB6953484E490DF037FB3E
:10C75000F4E74B69D9220093CB69504849490DF061
:10C760002EFB63694E4D802B05EB03086AD8DFF87A
:10C770006891DFF840A1DFF864B1A8451FD84FF0F9
:10C7800000086669E94606F1080323F00703ADEBEC
:10C79000030D02AD3246424928460DF06EFD2A4691
:10C7A00005F806803F4840490DF009FB01223F4B48
:10C7B000CD461A703A483E4A43460A253AE0294691
:10C7C000A8EB050230460EF018FB011E24DA11F129
:10C7D0000B0F0ED148460DF0F2FADBF800304EF6A2
:10C7E00060229B6901213348984700280FDC6FF0D5
:10C7F000040131480DF0E3FA30480DF0E0FA30461C
:10C800000EF021FA0146002898D02D4875E7BAF8B5
:10C810000630DB07B1D4EAE7E9D00D44ADE710F804
:10C82000011B013202F8011C6169994208BF02F83C
:10C83000015C013361694E1C9E42F0D81848FFF735
:10C84000F1FE7BE76FF02301D3E7C96909B11D4809
:10C8500053E7A388F9220B491B4877E7C96909B157
:10C860001A484AE7A38840F20312064918486DE7C0
:10C870004FF484720349174868E700BFADCC01004C
:10C88000E5CC0100C0CA0100C5CC01000100D20402
:10C89000F8CC01000800022013CD010038CD0100C2
:10C8A000532902200DCB01005ECE0100D2280220C8
:10C8B000D32802206C00022082CD0100A9CD010006
:10C8C000C7CD0100E1CD0100F7CD010015CE01007B
:10C8D0002BCE010049CE01005FCD0100D014022013
:10C8E000014601480DF06BBAD1CA01002DE9F04FA5
:10C8F000884893B00DF063FA00221146864B8748B2
:10C900000132052AC3E90010996003F58263F7D16B
:10C9100083480BF047FD4368054623B19B6C13B178
:10C920000246804998476B689B6A0BB12846984736
:10C930007D4B0F2218681B79002105900DF119001D
:10C940008DF818300DF0C3FC05A80DF064FC12AB97
:10C9500018440A23012400F8343C74480DF02FFADF
:10C960000FF06FF972480DF02AFA724F72480EF00C
:10C97000DFF8202200210AA80DF0A9FC3B68002165
:10C980005E6BCDE90B446B460AAA6C48B0476C4E0F
:10C99000014628B36B480DF012FA674C6A4B6B489E
:10C9A000A3646663E0620DF036FC042284F85E2026
:10C9B000674A0023E2648022664920632046C4E976
:10C9C0001512C4E90E33226584F824300EF0C9F83C
:10C9D000014630B360480DF0F2F913B0BDE8F08FB6
:10C9E000009B9BB11969082915D15B6934805B688C
:10C9F000736045F6073373801023311D01AA20466A
:10CA000001F094FC01A955480DF0D9F93B68009854
:10CA10009B6B9847C1E71823082251480DF0CFF9C6
:10CA2000F4E794F824301BB16FF022014D48D2E7AF
:10CA30004D4E4FF00108B246A36ADFF850913360C3
:10CA4000A6F8048020460EF0A0F93B6802469B69D8
:10CA5000012150469847002810DA0BF0C9FC016804
:10CA600042480DF0ACF942480DF0A9F932480EF0F9
:10CA7000EAF801460028B0D03E48ACE720460EF068
:10CA80005DF9014620B110F10B0F01D03A48E8E7FB
:10CA9000F388D90706D520460EF08EF9014608B175
:10CAA0003648DEE7F3881A0703D535480DF087F9D5
:10CAB000D9E79B0601D53348F8E7B8F1000F10D04D
:10CAC00048460DF0A8FB01464846FFF7ABFD05A818
:10CAD0000DF0A1FB6B6802465B6913B105A92846FE
:10CAE0009847DFF8ACB04FF000089BF80030002BFF
:10CAF000A8D025480DF096FC23488BF800800DF057
:10CB00008AFB6B6802465B69002B9BD01E49284656
:10CB1000984797E729CB010080000220B1C60000AA
:10CB200052CB010039C5000038C6010059CB0100C5
:10CB300072CB0100D01402200800022087CB010034
:10CB4000B028022098CB0100D5C60000F1CB01002F
:10CB5000D3290220532A0220FECB0100B6CB0100CC
:10CB6000CDCB010016CC01006C0002202ACC0100C4
:10CB7000A9CD010080CC01003ACC01004FCC0100CE
:10CB800065CC01006ECC0100D328022078CC0100D6
:10CB9000D22802200B6801330B60014B1B68184739
:10CBA000E87802202DE9F04F85B00E9C9B46012CC1
:10CBB000B8BF0124012B0CBF302320231646824628
:10CBC000884601250A270022DFF86C900293B6FB05
:10CBD000F9F301930AB9B1451CD8019B414603F111
:10CBE0003000D04701220135019B013F09FB13664C
:10CBF0000A23012FB9FBF3F9E9D1414606F13000D0
:10CC0000D047BBF1030F02D1641B002C0EDC05B032
:10CC1000BDE8F08FBC42E7DBBBF1020FE4D8414630
:10CC2000029803920135D047039ADDE74146202060
:10CC3000D047013CE9E700BF00CA9A3B014B1860AE
:10CC4000704700BFE8780220002307B50246019331
:10CC500003480B4601A90CF042FF03B05DF804FB4A
:10CC600095CB00004FF02002EFF3118382F311887F
:10CC7000BFF36F8F0121044AC2F8401583F3118876
:10CC8000BFF36F8F0020704700900340014B186086
:10CC9000704700BFD01402200A2838B50446074D5B
:10CCA00004D1286843680D215B6898472868436869
:10CCB000E1B25B689847204638BD00BFD41402201B
:10CCC00010B5044C204601F0A3FA2046BDE8104000
:10CCD000FFF7B4BF99CC000008B504480BF062FB25
:10CCE000034B1860FFF7ECFF002008BD7FCE01006A
:10CCF000D414022003682DE9F041D0F808C005469D
:10CD00009F68CEB24AB10C2373435CF803309A4259
:10CD10005CD013B11B68002BF9D14FF02003EFF367
:10CD2000118083F31188BFF36F8F0C2171430CEBDB
:10CD300001031C7A0134E4B21C7280F31188BFF342
:10CD40006F8F22B34FF0030E2248C0F808E3587AE1
:10CD5000A0B94FF0200EEFF311888EF31188BFF3C6
:10CD60006F8F1060D3F804E0BEF1000F21D15A603C
:10CD70004CF8012088F31188BFF36F8F0321154B06
:10CD8000C3F8041318B1D2E9013128469847012CA1
:10CD90000DD10C237343FB587BB90C23012203FBF9
:10CDA0000676B37A03F1804303F5A0431A600020AE
:10CDB0000EE0CEF800205A60DCE7284698470028AD
:10CDC000EBD1314628460DF07CF8F0E76FF00F000C
:10CDD000BDE8F0810050004010B50022044601215A
:10CDE000052000F0F9F9052000F0E6F90222074BD2
:10CDF0000020C3F818250322C3F80423A368C3E95D
:10CE00000000A368C3E9030010BD00BF005000404C
:10CE100008B5104B1A6862B10F4AD2F80423D10743
