:10C0000078050220C9CB00000BE500003DCA000006
:10C010003DCA00003DCA00003DCA00003DCA000004
:10C020003DCA00003DCA00003DCA000005CA00002C
:10C030003DCA00003DCA0000B1C90000F7E400009D
:10C0400059CA000059CA000059CA000059CA000064
:10C0500059CA000059CA000059CA000059CA000054
:10C0600059CA000059CA000059CA000059CA000044
:10C0700059CA000059CA000059CA000059CA000034
:10C0800059CA000059CA000059CA000059CA000024
:10C0900059CA000059CA000059CA000059CA000014
:10C0A00059CA000059CA000059CA000059CA000004
:10C0B00059CA000059CA000059CA000059CA0000F4
:10C0C00059CA000059CA000059CA000059CA0000E4
:10C0D00059CA000059CA000059CA000059CA0000D4
:10C0E00059CA000059CA000059CA000059CA0000C4
:10C0F00059CA000059CA000059CA000059CA0000B4
:10C1000059CA000059CA000059CA000059CA0000A3
:10C1100059CA000059CA000059CA000059CA000093
:10C1200059CA000059CA000059CA000059CA000083
:10C1300059CA000059CA000059CA000059CA000073
:10C1400059CA0000000000000000000000000000CC
:10C1500000000000000000000000000000000000DF
:10C1600000000000000000000000000000000000CF
:10C1700000000000000000000000000000000000BF
:10C1800000000000000000000000000000000000AF
:10C19000000000000000000000000000000000009F
:10C1A000000000000000000000000000000000008F
:10C1B000000000000000000000000000000000007F
:10C1C000000000000000000000000000000000006F
:10C1D000000000000000000000000000000000005F
:10C1E000000000000000000000000000000000004F
:10C1F000000000000000000000000000000000003F
:10C20000DEE61E284CBBCE8F025B00003C00000027
:10C21000F42D00000100000000C0000000C000007C
:10C22000FFFF02910000000000000000000000007D
:0CC2300000000000000000000000000002
:10C23C0053B94AB9002908BF00281CBF4FF0FF3181
:10C24C004FF0FF3000F070B9ADF1080C6DE904CE81
:10C25C0000F006F8DDF804E0DDE9022304B07047D5
:10C26C002DE9F04F099E04468946002B40F083804F
:10C27C008A42154645D9B2FA82F24AB1C2F1200778
:10C28C0001FA02F39540944020FA07F747EA0309B4
:10C29C004FEA154E230C1FFA85F8B9FBFEFC0EFB7A
:10C2AC001C990CFB08F143EA094399420AD9EB1893
:10C2BC002CBF01200020994202D9002800F01D81DA
:10C2CC000CF1FF3C591AA3B2B1FBFEF00EFB10119E
:10C2DC0000FB08F843EA0144A04505D92C1902D209
:10C2EC00A04500F20E810138A4EB080440EA0C4092
:10C2FC0000271EB1D4400023C6E900433946BDE8EF
:10C30C00F08F002A51D0B2FA82F2002A40F0AF80AE
:10C31C00491B4FEA154E1FFA85F80127230CB1FB78
:10C32C00FEFC0EFB1C1108FB0CF043EA0143984287
:10C33C000AD9EB182CBF01210021984202D90029FF
:10C34C0000F0D7800CF1FF3C191AA3B2B1FBFEF040
:10C35C000EFB101108FB00F843EA0144A04505D977
:10C36C002C1902D2A04500F2C1800138A4EB0804BC
:10C37C0040EA0C40BDE78B4208D9002E74D0002750
:10C38C00C6E9000138463946BDE8F08FB3FA83F7A9
:10C39C0067B98B42C0F0A480824240F2A18038463B
:10C3AC00002EABD0C6E90049A8E7FFDEC7F1200597
:10C3BC00BB4002FA07FC01FA07F4EA4020FA05F840
:10C3CC00E94000FA07FE1A4348EA04044FEA12480F
:10C3DC00200C1FFA82F9B1FBF8FA08FB1A110AFBC0
:10C3EC0009FB40EA01418B450AD951182CBF0123A6
:10C3FC0000238B4502D9002B00F088800AF1FF3A0C
:10C40C00A1EB0B01A4B2B1FBF8F008FB101100FB7F
:10C41C0009F944EA0141894504D9511801D28945E9
:10C42C007BD8013840EA0A40A1EB0901A0FB0C893A
:10C43C00494544464B4602D306D1C64504D2013881
:10C44C00B8EB0C0469EB0203002E5DD0BEEB0402CA
:10C45C0061EB030101FA05F522FA07F3F940002715
:10C46C001D43C6E9005149E73746304646E7C2F15D
:10C47C002000954001FA02F721FA00F34FEA154E1D
:10C48C0024FA00F11FFA85F894403943B3FBFEF00F
:10C49C000F0C0EFB103300FB08FC47EA03439C45D2
:10C4AC0007D9EB182CBF012700279C4500D98FB367
:10C4BC000138A3EB0C0389B2B3FBFEF70EFB173369
:10C4CC0007FB08FC41EA03418C4504D9691801D2E9
:10C4DC008C4525D8013FA1EB0C0147EA00471DE72D
:10C4EC00841A61EB03030120994659E702382C4466
:10C4FC003CE7ACF1020C2B4426E7ACF1020C2B44CC
:10C50C00E0E602382C44EFE63746F7E6AAF1020AD9
:10C51C00114475E702382B44CBE70238114481E70C
:10C52C00023F2944D7E700BF704700BF014801F024
:10C53C004FBF00BFD4EC00000B6801330B60014B04
:10C54C001B681847B80E02202DE9F04F85B00E9CE1
:10C55C009B46012CB8BF0124012B0CBF3023202398
:10C56C0016468246884601250A270022DFF86C9081
:10C57C000293B6FBF9F301930AB9B1451CD8019BA0
:10C58C00414603F13000D04701220135019B013FA8
:10C59C0009FB13660A23012FB9FBF3F9E9D14146D4
:10C5AC0006F13000D047BBF1030F02D1641B002C05
:10C5BC000EDC05B0BDE8F08FBC42E7DBBBF1020F2F
:10C5CC00E4D84146029803920135D047039ADDE73F
:10C5DC0041462020D047013CE9E700BF00CA9A3B06
:10C5EC00014B1860704700BFB80E0220002307B53E
:10C5FC000246019303480B4601A901F079FD03B0F3
:10C60C005DF804FB45C500004FF02002EFF31183E9
:10C61C0082F31188BFF36F8F0121044AC2F84015D1
:10C62C0083F31188BFF36F8F002070470090034095
:10C63C000A2838B50446074D04D1286843680D21F3
:10C64C005B68984728684368E1B25B689847204666
:10C65C0038BD00BF0800022010B5044C204600F085
:10C66C006BFD2046BDE81040FFF7BABF3DC6000089
:10C67C0008B5044801F0B4F8034B1860FFF7ECFF61
:10C68C00002008BDE2EC00000800022003682DE940
:10C69C00F041D0F808C005469F68CEB24AB10C23D1
:10C6AC0073435CF803309A425CD013B11B68002BC7
:10C6BC00F9D14FF02003EFF3118083F31188BFF30E
:10C6CC006F8F0C2171430CEB01031C7A0134E4B223
:10C6DC001C7280F31188BFF36F8F22B34FF0030EDF
:10C6EC002248C0F808E3587AA0B94FF0200EEFF3B7
:10C6FC0011888EF31188BFF36F8F1060D3F804E0AC
:10C70C00BEF1000F21D15A604CF8012088F311883A
:10C71C00BFF36F8F0321154BC3F8041318B1D2E983
:10C72C00013128469847012C0DD10C237343FB583B
:10C73C007BB90C23012203FB0676B37A03F1804309
:10C74C0003F5A0431A6000200EE0CEF800205A60DA
:10C75C00DCE7284698470028EBD13146284601F003
:10C76C009EFEF0E76FF00F00BDE8F0810050004036
:10C77C0010B5002204460121052000F0B1F9052076
:10C78C0000F09EF90222074B0020C3F81825032263
:10C79C00C3F80423A368C3E90000A368C3E903003A
:10C7AC0010BD00BF0050004008B5104B1A6862B1B4
:10C7BC000F4AD2F80423D10707D500220D481A607E
:10C7CC008368597A09B901F06AFE0B4B1A6862B199
:10C7DC00074AD2F80423920707D5002201211A60D8
:10C7EC000448BDE8084001F05ABE08BD00510040A5
:10C7FC0000500040FC0E02200451004000220D4B62
:10C80C00C3F840214FF02002EFF3118182F311881D
:10C81C00BFF36F8F084AD3F804051368C01A20F0D1
:10C82C007F400344136081F31188BFF36F8F01F0D5
:10C83C009FBB00BF005001402400022070B515487A
:10C84C0000F0CEFF10B3436801211B689847002409
:10C85C0001264FF480334FF400120F4D3146C5F8CA
:10C86C000845C5F84065C5F804330C4B15201C6011
:10C87C000B4BC3F88021224600F032F9152000F052
:10C88C001FF92046074B1E602E6070BD4FF0FF3025
:10C89C00FBE700BFE9EC00000050014040510140B3
:10C8AC0000E100E00850014070B5254CB0F1FF3FAD
:10C8BC0008BF20464FF02003EFF3118583F3118856
:10C8CC00BFF36F8F1F4BD3F804151F4B1B68CA1A8D
:10C8DC0022F07F4612021AD4421E22EAE272A242CF
:10C8EC00A8BF2246701C1044A04294BF18181819F7
:10C8FC00411A21F07F41134A20F07F430229C2F8EC
:10C90C00403506D985F31188BFF36F8F70BD0022B7
:10C91C00E8E7D2F804350D49C31A23F07F435C1EB7
:10C92C008C4205D94FF40012094BC3F80021E9E7FA
:10C93C00012B02BF023020F07F40C2F84005E1E736
:10C94C00FEFFFF000050014024000220FEFF7F008C
:10C95C0000E100E04FF02002EFF3118382F3118825
:10C96C00BFF36F8F064AD2F80405064A1268801A84
:10C97C0020F07F4083F31188BFF36F8F704700BFA7
:10C98C00005001402400022004488168406A88421B
:10C99C0003D003494FF080520A60704734010220E3
:10C9AC0004ED00E012498A684FF028001044EFF3C0
:10C9BC00098C80E8F01F202080F31188BFF36F8F63
:10C9CC000C4F4FF000664A6A8A603E60506E00233E
:10C9DC00536680F3118804B5104601F097FDBDE84D
:10C9EC00044002F1280090E8F01F8CF3098870478E
:10C9FC003401022004ED00E01EF0040F0CBFEFF335
:10CA0C000880EFF30980816911F8021C0229FFD01C
:10CA1C0001B501F070FD01BD014910220A6070479B
:10CA2C0010ED00E0404080F3118830BF704700BF2C
:10CA3C00EFF30880EFF30981724601B500F022F99B
:10CA4C0001BD00BF30BFFFF7FDBF00BF01B572B61F
:10CA5C000B4A106A00281EBF0021116201F0E0FE93
:10CA6C0062B6EFF30580A0F110004FEAC000054953
:10CA7C00014409C99847BDE8014003490847000033
:10CA8C00340102209CE9000095C90000094A0A49BA
:10CA9C00936809685866996608494B6843F0805357
:10CAAC004B60002383F31188BFF36F8F9368986EEC
:10CABC00704700BF34010220D0EC000000ED00E014
:10CACC0043B2002B08DB012200F01F0002FA00F039
:10CADC00024A5B0942F82300704700BF00E100E006
:10CAEC0043B2002B01F10101A8BF03F160434FEAEF
:10CAFC004111B8BF054BC9B2ABBF03F5614300F0A0
:10CB0C000F0083F800131954704700BF14ED00E0B8
:10CB1C0073B51E460A9B05460093099B8C1801F0C1
:10CB2C00E2FE0B4AA4F1200323F0070322F00102DA
:10CB3C009A61069A1E605A60079A9A60089ADA609F
:10CB4C004FF08072DA61AB6400236B6602B070BD8B
:10CB5C00F7E30000F8B505460C4617461E4600F0F4
:10CB6C0059F90A4B3C4428469D6024F0070401F017
:10CB7C00CDFC304684F30988002163B681F311881B
:10CB8C00BFF36F8F0022002301F02FFC3401022031
:10CB9C0008B5084B084A23F07F039360BFF34F8F0F
:10CBAC00BFF36F8F00F05CFE00F064FE00F000F944
:10CBBC0000F09EFE00C0000000ED00E001F020FC43
:10CBCC00202080F3118808484FF40061401880F34E
:10CBDC000988EFF314800221084380F31488BFF313
:10CBEC006F8FFFF7D5FF0000B80602200C4B9A6A36
:10CBFC009A6A9A6A920708D55A6B9A6A120604D5F1
:10CC0C0018B19A6A22F080029A620020044B9A6A48
:10CC1C009A6A9A6A9A6A42F0FF029A62087070479E
:10CC2C0000ED00E00D4B9A6A9A6A9A6A920508D553
:10CC3C009A6B9A6A120404D518B19A6A22F40042CB
:10CC4C009A620020054B9A6A9A6AD20558BF9A6A72
:10CC5C009A6A42F47F429A620870704700ED00E0D5
:10CC6C00074B00209A6A9A6A9A6A9A6A9A6A9A6A2E
:10CC7C009A6A9A6A6FEA02426FEA12429A627047A3
:10CC8C0000ED00E070B53A4B8AB05B680025C3F349
:10CC9C00080385F31188BFF36F8F02F07F44B4F162
:10CCAC007F4F19D1D60717D4550604D4140705D4D1
:10CCBC000646012504E012F004050BD00E460025B3
:10CCCC000022033B8DF80720032B49D8DFE803F043
:10CCDC000640443D0646F3E72E46F1E7244BDA6A5C
:10CCEC0092073DD4DC6A14F0804408D028331B78BA
:10CCFC00EBB101200DF10701FFF778FF04469DF819
:10CD0C00073093B92022314602A801F04EFC099B52
:10CD1C0045B3C3F3080222B96FEA53236FEA4323E6
:10CD2C00099302A9204601F0E4FB0AB070BD114B37
:10CD3C001B782BB101200DF10701FFF773FFDDE725
:10CD4C000D4B1C88A4B2002CD9D0FFF789FFD5E776
:10CD5C000DF107010020CFE70DF107010020ECE7F2
:10CD6C000024CCE723F4FF7323F00103D8E700BFC2
:10CD7C0000ED00E029ED00E02AED00E0024A5369E5
:10CD8C0043F010035361704700ED00E0BFF34F8F89
:10CD9C000549064BCA6802F4E0621343CB60BFF34B
:10CDAC004F8F00BFFDE700BF00ED00E00400FA0567
:10CDBC00002320210348C2180133412B82F80013B1
:10CDCC00F9D1704700E100E038B505464FF020037B
:10CDDC00EFF3118483F31188BFF36F8F00F060FFC2
:10CDEC000A4B9B68AB420BD1094B5A68C2F3080241
:10CDFC0012B92046FFF74AFE5A6842F080525A6038
:10CE0C002046BDE8384001F021BD00BF34010220AE
:10CE1C0000ED00E010B50E4B88B002930D4B0E4C9C
:10CE2C0003930E4B0E4A049302AB019301A82346C5
:10CE3C00012100F003F9002307930A4B0121E41AA6
:10CE4C0005A80593069400F003F908B010BD00BFC7
:10CE5C000000022000000000000004200600010079
:10CE6C00000002200000022010B50B680C7A23F0A1
:10CE7C001F0204F01F031A43CB68640923F01F033D
:10CE8C00044943EA440343F001038860CA600B6120
:10CE9C0010BD00BF90ED00E02DE9F04F80468946B3
:10CEAC0014460027484D85B04F4507DA58F827300F
:10CEBC005E68C6B31F2E05D86FF01504204605B06A
:10CECC00BDE8F08FF206F7D1D3F800A01AF01F0FCF
:10CEDC00F2D1504601F044FB834606EB0A000138C0
:10CEEC0001F03EFB8345E7D11BF1160FE4D0631E26
:10CEFC005B45E1DBC5F808B0E86858F82710C5F8C1
:10CF0C0008B02E6920F01F00D1E900321A44984273
:10CF1C0046F01F0602F1FF3A18D1564505D15FFACB
:10CF2C008BF001F0FBFA0137BEE7C5F808B0EB68EF
:10CF3C0022F01F0203F01F031A43EA60E0B201F073
:10CF4C00EDFA10F1160FB7D0441CECE7C5F808B099
:10CF5C002A69013B23F01F0302F01F0213435645BD
:10CF6C00E0B22B61EBD001F0D9FA10F1160FA3D07F
:10CF7C00C5F808B0EA689DF80830013E62F3040376
:10CF8C008DF808302B699DF808205B0863F3471275
:10CF9C008DF8082058F827200130D2E900321344CC
:10CFAC00009323F01F031E44A6EB0A06C4B226F01E
:10CFBC001F060F2C03963FF67FAF20466946FFF7FE
:10CFCC0053FF0134AFE700BF90ED00E00522034BA7
:10CFDC005A60BFF34F8FBFF36F8F704790ED00E037
:10CFEC00BFF35F8F0022014B5A60704790ED00E059
:10CFFC0070B50E4D2E68102E15D80024FFF7F0FFDB
:10D00C000B4B0C4A1A63A64205D10B4B1E70FFF753
:10D01C00DDFF002070BD6968204601EB0411FFF7AD
:10D02C0023FF0134EFE74FF0FF30F3E754EC00003F
:10D03C0090ED00E0AAFF44007401022010B5034CEF
:10D04C002278FFF729FF207010BD00BF7401022069
:10D05C002DE9F74F254C8A4680460027A1464FF014
:10D06C00140B234D57451ADAD8F804300193002BD2
:10D07C0036D0D8F800100846009101F071FADDE9BD
:10D08C00001306465818013801F06AFA8642194A0C
:10D09C0008D014235F436FF0150349F8073003B031
:10D0AC00BDE8F08F16F1160F2660F8D01378B34256
:10D0BC00F5DD0BFB0793AE60AE60E868197B60F39F
:10D0CC00040119732969187B490861F34710187317
:10D0DC00EB6823F01F0363602B6923F01F032361AC
:10D0EC000137143408F10C08BCE700BF28000220FB
:10D0FC0090ED00E07401022070B50C4B0E461C78CC
:10D10C000546234600210A4A0F2B0BDD094951F82D
:10D11C00040BFFF7A9FE224631462846BDE87040B5
:10D12C00FFF7BABE936011610133EDE77401022081
:10D13C0090ED00E028000220014B1860704700BF02
:10D14C00BC0E022008B5094B1A786AB901213120AE
:10D15C0019700521FFF7C4FC3120FFF7B1FC4FF02B
:10D16C000042034BC3F80423002008BD75010220C4
:10D17C000010034070B5036882689B68514C1879A5
:10D18C0001F01F0343EA40130020D4F80453EDB21E
:10D19C0000F5A27654F82660C6F30426B34270D18B
:10D1AC0025FA00F6F6076CD5850005F1804505F5E6
:10D1BC004435D5F8106526F00106C5F81065012533
:10D1CC0005FA00F0C4F808033F4D05EB8305D5F8CC
:10D1DC00000220F44030C5F800029068C84010F0FE
:10D1EC0001004DD0D068C84010F0010048D0506903
:10D1FC00C84010F0010050D09069C840C00744D41A
:10D20C001069D269C84022FA01F100F0010001F066
:10D21C000101884214BF01210221002505F5A272EB
:10D22C0054F8220010F0030031D1AA0002F1804220
:10D23C0002F54432D2F810651B0203F4F85326F4BD
:10D24C00473626F4407643EA014105F14003C2F823
:10D25C0010659B00D2F810659BB203F1804303F577
:10D26C0044333143C2F810151860D2F8103543F02E
:10D27C000103C2F81035012303FA05F5C4F8045371
:10D28C0070BD0130082883D19EE70321C5E7013525
:10D29C00082DC3D16FF01200F2E71369D269534025
:10D2AC0023FA01F111F0010F14BF4FF400324FF4C7
:10D2BC004032D5F8003223F440331343C5F8003222
:10D2CC00DEE700BF00100340002584402DE9F74F36
:10D2DC008046856803F47040B0F5804F1E4640D000
:10D2EC0009DCB0F5805F3ED0B0F5405F3DD090B129
:10D2FC006FF0150032E0B0F5E04F38D004DCB0F53B
:10D30C00A04FF5D1032006E0B0F5404F31D0B0F579
:10D31C00504FEDD1072006F44077B7F5807F2AD027
:10D32C00A7F5007463426341012919BFD4B2A14629
:10D33C004FF01F0900244FF0010B06F0010C4FEACF
:10D34C004C0747EA0C0747EA0020DFF8A0A040EAA8
:10D35C00830706F00203A1450FD2002003B0BDE8FD
:10D36C00F08F0220D7E70120D5E70420D3E7052072
:10D37C00D1E70620CFE70323D6E7D8F80020926840
:10D38C00117904F01F0242EA411280324AF82270ED
:10D39C00A9680BFA04F2002B25D01143A960696926
:10D3AC00B0064CBF114391436961A96970064CBF2B
:10D3BC0011439143A961296970074CBF11439143F3
:10D3CC002961E96930064CBF0A4321EA0202EA618D
:10D3DC00214640460193FFF7CDFE0028BED1013413
:10D3EC00E4B2019BB7E721EA0201D7E700258440AC
:10D3FC004F492DE9F0410D68002D60D04D4B0026B2
:10D40C009A681B68DFF838E19F68D2E90203034091
:10D41C00D2E90504204323EA00033868D469126971
:10D42C00006954404440012023EA040493BB0B6080
:10D43C00002301201F464049404ED1F8042300FA36
:10D44C0003FC1CEA020F0DD056F8232052B103F551
:10D45C00A27251F8222046F82370C2F3042200FA7B
:10D46C0002F214430133082BE7D154BB85B10124DC
:10D47C000025304BDFF8C8C09A681B689E68D2E95B
:10D48C0002130B40D2E90510014323EA01037BBBD5
:10D49C00BDE8F08103420FD097F804C006F01F02DC
:10D4AC0042EA4C120EEB8202D2F800C223EA0003CD
:10D4BC002CF4403CC2F800C201364000B6E72C46C2
:10D4CC00B6E71C4FD7F80880D8F800100029CDD04B
:10D4DC000E68D8F80C308A682340134203D04B688E
:10D4EC00224638469847002EC0D031463668F0E7C1
:10D4FC001C421AD0307905F01F01D76941EA40115E
:10D50C0010690CEB81017840E84010F0010F14BF5A
:10D51C004FF400374FF44037D1F8000223EA0403EC
:10D52C0020F440303843C1F8000201356400AEE706
:10D53C007C1103402C0F022000100340001103400B
:10D54C0000258440F0B54B79012B29D0032B24D135
:10D55C0010268B79032B20D1CC792CB1012C1CD12A
:10D56C0003689B681B79C3B10A7912B1022A14D1E2
:10D57C000E2247F6122705680B68AD68BB422D6872
:10D58C0062D029D8B3F5965F61D014D8B3F5167F65
:10D59C005FD007D8B3F5967F5ED06FF0220052E0D3
:10D5AC000026D6E7B3F5966F59D0B3F5166FF4D1C4
:10D5BC004FF41D233CE0B3F5615F53D004D8B3F5B1
:10D5CC00165FEAD1324B33E0B3F5964F4CD0B3F53E
:10D5DC00E14FE2D12F4B2BE0B3F5E13F46D012D80F
:10D5EC004DF6C027BB4244D005D8B3F5164FD4D165
:10D5FC004FF41D031CE0B3F5614F3DD0B3F5963FDE
:10D60C00CBD1254B14E0B3F5E12F38D008D8B3F5C6
:10D61C00613F37D0214FBB42BFD14FF0806307E051
:10D62C00B3F5612F31D01E4FBB42B6D14FF08053B2
:10D63C00C5F8243534438368224303C9C5F86C25E7
:10D64C0083E803000020F0BD4FF40003F0E7154B16
:10D65C00EEE74FF41C33EBE74FF4A033E8E74FF45D
:10D66C009E23E5E7104BE3E7104BE1E74FF0EB733C
:10D67C00DEE74FF46503DBE74FF46B03D8E74FF0BD
:10D68C00E863D5E74FF06C73D2E74FF07063CFE7E8
:10D69C000050270000C0750000903A0190D00300A4
:10D6AC0040420F0000B0130000F03A0000A04E0002
:10D6BC00026870B59268184B14684FF00052856878
:10D6CC0003219A601D260022C3F87412C3F870223D
:10D6DC00C4F80C651C26C4F814654FF000669E60F7
:10D6EC00C3F86C12C3F868221B23C4F808351A233C
:10D6FC002946C4F81035FFF725FF58B90823C4F89C
:10D70C0000351D440123C4F81001C4F83455C4F885
:10D71C003835236070BD00BF002584402DE9F043EF
:10D72C0000261E4C85B054F8049C1D4F01ADB1452C
:10D73C0003D8002005B0BDE8F083636A97E80700C2
:10D74C00D3F8008085E807000C222946404600F0FB
:10D75C001CFFA0B9B8F1000F11D0636A21691B68D6
:10D76C001A6991420BD19A69A169914207D8E16972
:10D77C00914204D962695B6932EA030307D0236AD8
:10D78C004BB1404080F311884FF0040002DFE36896
:10D79C0001361C44CBE7626A1360F8E73CC2000018
:10D7AC0010EC0000014B024A1A607047CC0E0220AC
:10D7BC000090D00370B50026084B53F82040013080
:10D7CC0053F82050A54200D870BD236820465B68F2
:10D7DC00984700B166600C34F4E700BFBCEC000065
:10D7EC00104B70B505461E460F4C9C4204D10E4C96
:10D7FC00B44209D1002412E062681AB1226812689E
:10D80C00AA420CD00C34F0E763680BB90C34EFE788
:10D81C0023682846196800F0ACFE0028F6D1204693
:10D82C0070BD00BF440F0220D80E022008B50B4D6E
:10D83C004FF02002EFF3118382F31188BFF36F8F47
:10D84C0001F076F8012104460228D8BF084601F001
:10D85C007FF82C62FFF7E6F8EAE700BF34010220FC
:10D86C000248034A0021121A00F0C9BE000002202F
:10D87C007801022008B50648064A0749121A00F03A
:10D88C0094FEBDE80840054A0549064800F08DBEE7
:10D89C00B80E0220580F022054ED000000000000CA
:10D8AC0054ED000000000220012208B50B4B0220B1
:10D8BC001A70FFF77FFF0A4A0A490B4800F088FDEF
:10D8CC000320FFF777FF00F07DFAFEF72FFE074AE3
:10D8DC00137B23F00103137308BD00BF76010220F4
:10D8EC00E1EC00000FED00001CED0000C800022070
:10D8FC0080B5344BA2B083F308880024E023324D6A
:10D90C00012785F82230EC772C766C76AC766B6A36
:10D91C002E4E43F4E0236B62FFF730FAFFF77CF8EE
:10D92C004FF0FF33AB62EB6207AB6C22214618461B
:10D93C0000F065FEB06020468DF82970FFF73AFFC5
:10D94C003846FFF737FF224D00F0EEF9214B4FF42C
:10D95C008062CDE90473CDE902441F4BCDE900444C
:10D96C001E492846756200F015FA6B7B23F0040201
:10D97C0013F01B0F6A7304D1AB6913B9284600F07E
:10D98C00DFF8174B012205930F23CDE90332002357
:10D99C00144DCDE9013300934FF4A072124B13498F
:10D9AC00284600F0F7F96B7B4FF4806223F00403F8
:10D9BC006B730F4B0949C6E906330548064BF560F6
:10D9CC00FFF7C8F8B80E022000ED00E03401022089
:10D9DC00C800022043ED0000B5D8000078010220F9
:10D9EC0048ED00005C00022039D8000078050220C8
:10D9FC004C01022010B5084C23685BB1FEF7AAFF5E
:10DA0C002368064A184410610021BDE810401846EE
:10DA1C0000F09EBF10BD00BF6C010220340102203B
:10DA2C00F8B50D464FF02003EFF3118483F3118802
:10DA3C00BFF36F8F4FF4004140F2E736002700220E
:10DA4C00E1FB0067094B30461A6139464FF47A7294
:10DA5C000023FEF7EDFB064B1860064B1D60FFF72D
:10DA6C00C9FF84F31188BFF36F8FF8BD3401022016
:10DA7C006C010220680102204FF02003EFF31181AA
:10DA8C0083F31188BFF36F8F044B9A68D37B013BF0
:10DA9C00D37381F31188BFF36F8F70473401022069
:10DAAC00094B03F12802824205D19B688B4202D1BB
:10DABC004B7BDB0606D1D1E9003213605A600023A0
:10DACC00C1E90033704700BF3401022038B50D4C5A
:10DADC00024604F1280000F0CFFE054600B9E568C7
:10DAEC00A3684AB95A7BD20606D1AA6922B9DA8947
:10DAFC007F2A01D9636238BD9D4201D0FFF77AFFBE
:10DB0C006562F8E73401022010B54FF02003EFF303
:10DB1C00118483F31188BFF36F8F084B00209A6830
:10DB2C00D37B0133D373FFF7D1FF84F31188BFF399
:10DB3C006F8FBDE8104000F095BE00BF340102208D
:10DB4C00F8B54FF02003EFF3118483F31188BFF382
:10DB5C006F8F154A114651F8283F8B421DD0E3B107
:10DB6C00D66A90F90E5093F90E70AF4210DD5A68D8
:10DB7C00C0E9003210605860437B63F07F0343734D
:10DB8C000020FFF7A3FF84F31188BFF36F8FF8BD5C
:10DB9C00B34202D01B68002BE5D1D36A016043600D
:10DBAC00D36A1860D062E7E734010220F8B5044666
:10DBBC004FF02003EFF3118583F31188BFF36F8FC0
:10DBCC0090F90D30002B03DA01461848FFF768FF77
:10DBDC00174A02F12801D2E90A308B421FD0F3B167
:10DBEC0094F90E6093F90E70B74213DD5968C4E9CD
:10DBFC0000310C605C60637B906863F07F0363733F
:10DC0C00031B58425841FFF761FF85F31188BFF39E
:10DC1C006F8FF8BD984202D01B68002BE2D1C4E98B
:10DC2C000010D36A1C60D462E5E700BF5C010220DF
:10DC3C0034010220154A164938B50C689368A34282
:10DC4C00144603D1BDE83840FFF7D4BE00250D6063
:10DC5C0010490968B9B1D9897F2914D80E4993F9AB
:10DC6C000E5009688D420EDB0C498B420BD0996922
:10DC7C0049B91169814203DC1846FFF797FFE1E7C8
:10DC8C00091A116138BD00232361FBE7340102201E
:10DC9C00640102206C010220680102205C00022059
:10DCAC00036D70B5044603B1984704F1180000F0F9
:10DCBC0029FE4FF02003EFF3118583F31188BFF396
:10DCCC006F8F204600F0AEFD0646D8B194F90D30AA
:10DCDC00002B07DA21461248FFF7E2FE637B03F0C4
:10DCEC007F0363730F4B9868021B50425041FFF740
:10DCFC00EDFE637B43F00803637385F31188BFF378
:10DD0C006F8F70BD637B9B07F3D52146A068FFF72F
:10DD1C00C7FE637BA66023F002036373E9E700BFD1
:10DD2C005C010220340102200021044B084603F15F
:10DD3C002802C3E90A22FFF773BE00BF3401022098
:10DD4C00014B9868704700BF3401022010B54FF0AA
:10DD5C002002EFF3118482F31188BFF36F8F427BA3
:10DD6C00510704D484F31188BFF36F8F10BD22F0D8
:10DD7C00040112F01B0F417303D183690BB9FFF738
:10DD8C00DFFE2146BDE81040014800F054BD00BF45
:10DD9C007701022030B587B00E9D044604950D9D89
:10DDAC0003950C9D02950B9D01950A9D0095FEF720
:10DDBC00AFFE034B9B6803B11B6E236607B030BDEF
:10DDCC00340102202DE9F04F284E294DB04687B082
:10DDDC00B54205F1300410D3FFF74EFE4FF4004965
:10DDEC0040F2E7360027224CDFF888A0444521D3C7
:10DDFC0007B0BDE8F04FFFF787BE54F8043C05931D
:10DE0C0054F8103C049354F8143C039354F8183C05
:10DE1C00029354F81C3C019354F8203C009354E9B1
:10DE2C000A2354E90C01FFF7B5FF54F8303CDD64CC
:10DE3C002546CDE7616A4B1C04D0256821B92846DC
:10DE4C00FFF784FF3034D1E7B346BC46E9FB01BC95
:10DE5C004FF47A72002358466146FEF7E9F95146B1
:10DE6C00421C05F1180000F041F8EBE7440F0220CA
:10DE7C00440F022091E80000034B1B680BB9FEF71E
:10DE8C0069BD0020704700BF70010220036840B1DB
:10DE9C00074A5268904204D01BB19A6881680A44C0
:10DEAC009A60426813605A600023C0E900337047DF
:10DEBC00D00E02200B4B10B51C689C4208BF0024EE
:10DECC00FFF7DAFF54B1A368181A20EAE070064B8A
:10DEDC001B6913B19842A8BF184610BD6FF00040E3
:10DEEC00F5E700BFD00E02203401022070B50446C5
:10DEFC001646C1604FF02003EFF3118583F31188B0
:10DF0C00BFF36F8FFFF7B8FF012EACBF8019013044
:10DF1C00164BA0601A689A4201D05E6832B95A68F2
:10DF2C00236062605A6814605C600AE09068A168C3
:10DF3C00884215DD411A91605168C4E900210C60DA
:10DF4C0054601A689A4206D0944204D1FFF7B2FF8B
:10DF5C000021FEF7A9FC85F31188BFF36F8F70BD0C
:10DF6C00091A9642A160DAD01268D7E7D00E0220C7
:10DF7C002DE9F04B0446FFF75DFE4FF02003EFF365
:10DF8C00118583F31188BFF36F8F214F214EB84653
:10DF9C00DFF884903460D9F8004032684C45D7E9FA
:10DFAC0000BC05D024B1A368934214DD9B1AA36076
:10DFBC0000241BEB02004CEBE271C8E90001346059
:10DFCC00FFF778FF2146FEF76FFC85F31188BFF34E
:10DFDC006F8FBDE8F08B1BEB03004CEBE371D31A96
:10DFEC0033600023C7E90001A3602046FFF74EFF12
:10DFFC0085F31188BFF36F8FE36898474FF02003C8
:10E00C00EFF3118583F31188BFF36F8FC3E700BF64
:10E01C000000022070010220D00E022038B5074CFF
:10E02C00074DAC4201D3002038BD04F11403204647
:10E03C00C4E9053300F006F81C34F2E7440F022063
:10E04C00440F0220FF232DE9F04F4668C37232467D
:10E05C0000234FF00C090789016806FB07FC90F8B8
:10E06C000A806144984505DC002319468F4220DC68
:10E07C00BDE8F08FBCFBF2F509FB03FED0F80CA059
:10E08C00202D0AEB0E0404F1040BC4E901BB05D8E6
:10E09C00C372920822F003020133E3E715F11F0467
:10E0AC0048BF05F13E0464114AF80E1001EB8401DF
:10E0BC00EFE7C268056802F1040CEC1845F803C0E0
:10E0CC00956801316560956833442C609460CDE7A8
:10E0DC000020704770B50D4604464520A0472946E0
:10E0EC005220A04729462346BDE8704052201847CD
:10E0FC002DE9F04F4FF0000806460F461C464FF036
:10E10C00FF3AC14645468BB00292029B187810B973
:10E11C000BB0BDE8F08F45B9252800F04B8139468E
:10E12C00B047029B01330293EFE764286DD019D8F6
:10E13C0039280AD831285FD22D2800F041813028A7
:10E14C004BD0252807D1394632E1582800F0BB8046
:10E15C00632800F02A8139462520B047029B3946B6
:10E16C00187825E1702800F0A48011D869284CD0CB
:10E17C006C2805D1B8F16C0F2AD14FF04C08D0E7C0
:10E18C006828E8D1B8F1680F22D14FF04808C8E7E9
:10E19C00752872D018D87328DDD154F8045BAB46BF
:10E1AC005B461BF8010B002840F0FC80B9F1030F13
:10E1BC0040F00C815D1BAAEB0505002D49DD3946AD
:10E1CC002020B047013DF8E778287CD07A28C2D1CE
:10E1DC00B8F1000FBFD18046A3E7BAF1000F0EDAF9
:10E1EC00B9F1000F00F0EF80A0F1300AB9F1000F87
:10E1FC0008BF4FF0020994E7BAF1000FF4DB0A23D1
:10E20C0003FB0A0AAAF1300AF0E7B8F17A0F02D13F
:10E21C0054F8045B20E0B8F16C0FF9D0B8F14C0F56
:10E22C00F6D1073424F00704F4E8022312F100417C
:10E23C00069143F1000107910021DDE906BC4FF086
:10E24C00FF30614508BF584505D239463046FFF7C7
:10E25C0041FF002565E71546002D05DA39462D20CE
:10E26C00B0476D420AF1FF3A4B462A46CDF800A062
:10E27C0039463046FEF768F9EBE7B8F17A0F02D170
:10E28C0054F8042B11E0B8F16C0FF9D0B8F14C0F25
:10E29C00F6D100214FF0FF30073424F00704F4E8E6
:10E2AC000223994208BF9042CFD3CDF800A04B4631
:10E2BC00DEE739463020B04739467820B0474FF07A
:10E2CC00080A4FF00109029B1B78702B04D154F8FB
:10E2DC00043B049300230DE0B8F16C0FF7D0B8F1B8
:10E2EC004C0FF4D1073424F007031C4654F8082BC8
:10E2FC005B680492002110224FF0400B03910591B2
:10E30C00ABF1040B0498CBF1200CABF1200120FAFB
:10E31C000BF003FA0CFC40EA0C0023FA01F1084361
:10E32C0010F00F0006D1059911B9BBF1000F22D1E5
:10E33C00302103E009288CBF57213021084440B21A
:10E34C00394608930592B047039B059A0133039312
:10E35C00089BBBF1000F23D1B9F1030F7FF479AF08
:10E36C00039BC3EB4A05002D7FF773AF3946202082
:10E37C00B047013DF7E7511E9245089107DBB9F113
:10E38C00010F06D1394630200993B047099B089AF2
:10E39C00B6E7B9F1020FFAD1099339462020F4E718
:10E3AC000595ADE73946B047FAE6394654F8040B03
:10E3BC00B0474EE7A846A9464FF0FF3A0125B0E614
:10E3CC004FF00309ADE64FF00109AAE60546A8E6B1
:10E3DC000FB407B504A951F8040B0191FEF706F927
:10E3EC0003B05DF804EB04B07047044608B508466A
:10E3FC0011461A46A047FFF7A3FCFEF7E5FC704751
:10E40C00FFF7D0B90C228368C9B202FB01314B7AF9
:10E41C0023B9087AB0FA80F040097047022070479F
:10E42C000268F8B59768CCB286684FF02003EFF31A
:10E43C00118583F31188BFF36F8F0C226243B118DF
:10E44C000B7A3BB3013BDBB20B7233BBB3503A4498
:10E45C004B605368D3B90C22012102FB0472D37AAE
:10E46C0003F1804303F5A04319601389002203F1E3
:10E47C00804303F5A0431A600C21002001FB0464C7
:10E48C00607285F31188BFF36F8FF8BD9847002831
:10E49C00E1D1F1E76FF04400F3E70020F1E738B584
:10E4AC000C248368054604FB0134012363724FF08E
:10E4BC002003EFF3118183F31188BFF36F8F23686F
:10E4CC002BB160681A688342226008BF626081F3D6
:10E4DC001188BFF36F8F03B938BDD3E901212846EA
:10E4EC009047E4E70022FEF7D1B870477047FEF77B
:10E4FC009FBA00F086B90146006800F082B908B5F1
:10E50C00FEF7A0FABDE80840FEF73EBA07B50021B9
:10E51C0001A8FEF7F1FD03B05DF804FB30B50B6804
:10E52C0085B04C689DF808200D89013C0093498901
:10E53C0023F01F03234465F3040261F3471223F015
:10E54C001F030F288DF808200393044605D869464D
:10E55C00FEF78AFC204605B030BD6FF01504F9E7D4
:10E56C0040E800F313F4803FD8B208BF6FF01500F9
:10E57C0070470138013910F8013F11F8012F93420F
:10E58C0001D1002BF7D1981A704710B55AB1013947
:10E59C00841810F8012B11F8013FA04201D09A42C7
:10E5AC00F7D0D01A10BD1046FCE7F0B581EA000494
:10E5BC00A50703460BD0013B0A4491421AD1F0BD8A
:10E5CC00002AFCD011F8014B013A03F8014B9C07CF
:10E5DC00F6D19508AC001E1F0F19B94205D16FF08A
:10E5EC000306234406FB0522E5E751F804CB46F865
:10E5FC0004CFF2E711F8014B03F8014FDDE70346B6
:10E60C0070B5C9B29C0710D141EA012444EA044513
:10E61C00940803EB8406B3420DD16FF0030505FBA0
:10E62C0004241C44A34209D170BD002AFCD003F879
:10E63C00011B013AE6E743F8045BECE703F8011B26
:10E64C00F0E74FF0FF30704710B504688068A4689D
:10E65C0001292468C06903D158406060002010BDB6
:10E66C0000334FF0010118BF0123D04000F001002E
:10E67C009140834214BFA160E160EFE770B504687C
:10E68C008068A468C069256801296E692C696D6869
:10E69C0080EA040084EA050404EA060480EA040023
:10E6AC001CBFD04000F001001860002070BD8368D2
:10E6BC0030B5186858B10024814213D108685CB990
:10E6CC005C681860A14200D158600020086072B9E3
:10E6DC00002030BD2846EFE720605868814208BF13
:10E6EC005C60F2E705680446002DF3D13AB11A6874
:10E6FC000A60586819600028EAD15960E9E76FF0A0
:10E70C001500E6E701292DE9F04118BFD4B2064601
:10E71C0012BF25461F2500244FF001088768AC4224
:10E72C0002D90020BDE8F081FB6808FA04F223EA64
:10E73C000203FB6021463046FEF71CFD0028F1D198
:10E74C000134E4B2EBE701292DE9F04118BFD4B252
:10E75C00064612BF25461F2500244FF00108876886
:10E76C00AC4202D90020BDE8F081FB6808FA04F243
:10E77C001343FB6021463046FEF7FCFC0028F2D127
:10E78C000134E4B2ECE70B46826892E8030083E8BC
:10E79C0003000020704703689B681B68D3F8800453
:10E7AC00C3F880047047036882689B681B68D3F8C1
:10E7BC00100138B1127A00200A700122C3F810013E
:10E7CC001A6070474FF0FF3070470022036882B028
:10E7DC009B688DF807101B68C3F820210DF1070208
:10E7EC00C3F844250122C3F848259A60D3F82011B8
:10E7FC000029FBD0DA6002B0704708B50020FEF7A4
:10E80C00C5FA70B505460E46FFF79AFA314604462E
:10E81C002846FFF7F2FF2046BDE87040FEF7D4BA59
:10E82C00FFF764BE437BDB0603BF8069B0FA80F060
:10E83C0040090020704721B9EFF3058008B9FEF7B5
:10E84C0025B981F31188BFF36F8F7047034620B948
:10E85C00EFF305820AB9FEF719B983F31188BFF3F8
:10E86C006F8F70474FF02003EFF3118083F3118803
:10E87C00BFF36F8FFFF7EABF0368984214BF1846C7
:10E88C000020704750F8103C70B50446A0F11805F4
:10E89C00CBB14FF02003EFF3118683F31188BFF354
:10E8AC006F8F294650F8100CFFF7FAF814F80B3C50
:10E8BC0023F0020304F80B3C86F31188BFF36F8F2F
:10E8CC00002344F8103C14F80B3C284623F01403A6
:10E8DC0004F80B3CFFF7A6FF20B12846BDE87040BA
:10E8EC00FFF72EB970BD10B5029C8373047300231F
:10E8FC000424C3734473C0E90633C0E91333C0E97D
:10E90C00161210BD10B54FF02002EFF3118482F3F4
:10E91C001188BFF36F8F03683BB1FFF7B7FA002084
:10E92C0084F31188BFF36F8F10BD6FF01500F7E7FC
:10E93C0010B54FF02003EFF3118483F31188BFF36C
:10E94C006F8FFFF7B7FA84F31188BFF36F8F10BD89
:10E95C0070B504460E464FF02003EFF3118583F398
:10E96C001188BFF36F8FFFF7A5FA012805DDA042D0
:10E97C0003DD31462046FDF797FF85F31188BFF381
:06E98C006F8F70BD7047A3
:02E99200FFFF85
:08E99400D8D8FF7F010000004C
:10E99C0000000000FBE4000000000000FBE40000AD
:10E9AC0000000000FBE4000000000000FBE400009D
:10E9BC0000000000FBE4000000000000B5C70000F0
:10E9CC0000000000FBE4000000000000FBE400007D
:10E9DC0000000000FBE4000000000000FBE400006D
:10E9EC0000000000FBE4000000000000FBE400005D
:10E9FC0000000000FBE4000000000000FBE400004D
:10EA0C0000000000FBE4000000000000FBE400003C
:10EA1C0000000000FBE4000000000000FBE400002C
:10EA2C0000000000FBE4000000000000FBE400001C
:10EA3C0000000000FBE400000000000009C800001A
:10EA4C0000000000FBE4000000000000FBE40000FC
:10EA5C0000000000FBE4000000000000FBE40000EC
:10EA6C0000000000FBE4000000000000FBE40000DC
:10EA7C0000000000FBE4000000000000FBE40000CC
:10EA8C0000000000FBE4000000000000FBE40000BC
:10EA9C0000000000FBE4000000000000FBE40000AC
:10EAAC0000000000FBE4000000000000FBE400009C
:10EABC0000000000FBE4000000000000FBE400008C
:10EACC0000000000FBE4000000000000FBE400007C
:10EADC0000000000FBE4000000000000FBE400006C
:10EAEC0000000000FBE4000000000000FBE400005C
:10EAFC0000000000FBE4000000000000FBE400004C
:10EB0C0000000000FBE4000000000000FBE400003B
:10EB1C0000000000FBE4000000000000FDD300003A
:10EB2C0000000000FBE4000000000000FBE400001B
:10EB3C0000000000FBE4000000000000FBE400000B
:10EB4C0000000000FBE4000000000000FBE40000FB
:10EB5C0000000000FBE4000000000000FBE40000EB
:10EB6C0000000000FBE4000000000000FBE40000DB
:10EB7C0000000000FBE4000000000000FBE40000CB
:10EB8C0000000000FBE4000000000000FBE40000BB
:08EB9C0000000000FBE4000092
:10EBA400E1EC000015C6000000000000E1EC0000EC
:10EBB4007DC6000000000000E9EC00007DC70000F5
:10EBC4003CEC0000EFEC000049C80000000000002D
:10EBD400E1EC0000FDCF00000000000008ED0000A3
:10EBE40051D1000098EC0000E2EC0000BDD600001A
:10EBF400B4EC0000E1EC000029D7000000000000A4
:0CEC0400E1EC000029E00000000000002E
:10EC1000DEE61E28EAAC45B8025B0000DEE61E28F0
:10EC20004CBBCE8F025B0000F1E400002DE400003D
:10EC300099C600000000000011E400000000000080
:10EC400000000000000100040000000000000000BF
:10EC50000401080C020000005CEC00000000000051
:10EC6000F9EC000006000000E0FF0F0000000220A9
:10EC700001ED000021000000E0FF0320D9D20000D8
:10EC800055E6000089E60000BBE6000053E70000FF
:10EC900011E7000000000000002584400000000093
:10ECA000B3E70000D7E70000A3E7000051D500005C
:10ECB00093E700000080004001000000D80E022011
:10ECC000200F02202C0F0220440F0220440F0220AC
:10ECD000F5FFFFFF48656C6C6F20576F726C642105
:10ECE0000A00554152545F3000434C4F434B007370
:10ECF00079735F636C6F636B00464C4153485F30C0
:10ED0000005352414D5F30004750494F5F3000760D
:10ED1000322E312E39392D6E637331002A2A2A2082
:10ED2000426F6F74696E67205A6570687972204F00
:10ED300053206275696C64202573202573202A2A6C
:10ED40002A0A006D61696E0069646C65000000004C
:04ED500000C00000FF
:10ED5400DDE000004FE6000000C2010000010300F6
:10ED6400000000000090D003D00E0220D00E02203C
:10ED7400A4EB0000000000000000000004EC000010
:10ED84000000000000000000D4EB000000000000C0
:10ED940000000000BCEB000028EC00000C00022086
:10EDA400ECEB0000A0EC0000C00E0220B0EB000071
:10EDB4000000000000000000C8EB0000000000009C
:10EDC40000000000E0EB00007CEC00003C000220AE
:0CEDD400F8EB0000000000000000000050
:10EDE000440F0220440F0220000000000000000039
:04EDF0000F00000010
:040000030000CBC965
:00000001FF
