:100000000C94E7000C9404010C945B020C94040122
:100010000C9404010C9404010C9404010C9404014C
:100020000C9404010C9404010C9404010C94A90296
:100030000C9404010C9404010C9404010C9404012C
:100040000C9404010C9404010C9404010C9404011C
:100050000C9404010C9404010C9404010C9404010C
:100060000C9404010C9404010C9404010C940401FC
:100070000C9404010C9404010C9404010C940401EC
:100080000C9404010C9404010C9404010C940401DC
:100090000C9404010C9404010C9404010C940401CC
:1000A0000C9404010C9404010C9404010C940401BC
:1000B0000C9404010C9404010C9404010C9485022A
:1000C0000C9404010C9404010C9404016E616E0004
:1000D000696E660000407A10F35A00A0724E18094B
:1000E0000010A5D4E80000E87648170000E40B549F
:1000F000020000CA9A3B000000E1F505000080966E
:100100009800000040420F000000A086010000009F
:10011000102700000000E803000000006400000059
:1001200000000A00000000000100000000002C7622
:10013000D888DC674F0823DFC1DFAE59E1B1B7963D
:10014000E5E3E453C63AE651997696E8E6C284269A
:10015000EB898C9B62ED407C6FFCEFBC9C9F40F276
:10016000BAA56FA5F490055A2AF75C936B6CF967F2
:100170006DC11BFCE0E40D47FEF520E6B500D0EDB7
:10018000902E0300943577050080841E080000201F
:100190004E0A000000C80C333333330F986E1283BD
:1001A0001141EF8D2114893BE65516CFFEE6DB1891
:1001B000D1844B381BF77C1D901DA4BBE424203256
:1001C00084725E228100C9F124ECA1E53D2711244F
:1001D0001FBECFEFD8E0DEBFCDBF13E0A0E0B1E09F
:1001E000E6ECFAE102C005900D92AE3FB107D9F7F7
:1001F00025E0AEEFB3E001C01D92A732B207E1F7F0
:100200000E9406010C94610D0C9400002FEF80E712
:1002100092E0215080409040E1F700C000000E9431
:10022000960182E791E00E94B10C80E090E0089591
:10023000ACE7B0E01C92EAE7F0E010828C918064B9
:100240008C9380818660808380818068808308951C
:10025000EAE7F0E0808180648083808184FFFDCFC5
:100260008091780090917900893E23E0920714F004
:1002700088EE93E00895ECE7F0E09081892B80838D
:100280000E9428018AE18A95F1F700C00895892B20
:1002900011F05C9808955C9A08950E942A050E94C6
:1002A00018015398E9E6F0E0808188608083E99A3C
:1002B000549A80E090E00E9447010E94D1020E947F
:1002C00090057894089581E00E943B010E942801E6
:1002D000BC0180E090E00E945D0A26EB36EC4FE125
:1002E0005BE30E94EB0A20E030E846ED53E40E9415
:1002F000EB0A20E030E04FE753E40E94B50920E02C
:1003000030E048EC52E40E94EB0A26E636E646E886
:1003100050E40E94B5090E94270A862F08950E9482
:100320004D0188E791E00E94B10C0895CF93DF93CF
:10033000CDB7DEB765970FB6F894DEBF0FBECDBF61
:10034000FE01319685E1DF011D928A95E9F781E092
:10035000898384E68F83812C912C5401C12CD12C6C
:10036000760112E001E00F2EFCE34F2E512C612CA0
:10037000712CF02D80910404813009F489C018F0AB
:10038000823031F0F9CF0E948F0110930404F2CF34
:1003900080910304882309F478C0109203040E941A
:1003A0009403092E000CAA0BBB0BC80ED91EEA1E23
:1003B000FB1E0E94B603880E991EA11CB11C0E9450
:1003C00063018F836091FF037091000480910104A9
:1003D00090910204A30192010E945C09672B682B93
:1003E000692B09F052C08091FE038F3F11F41092E7
:1003F000FE038091FE0391E0980F9093FE038A83A1
:10040000C701B601A30192010E945C0939872887C0
:10041000C501B401A30192010E945C093B872A87B0
:100420008091FF0390910004A0910104B091020417
:100430008B839C83AD83BE83CC86DD86EE86FF8670
:10044000888A998AAA8ABB8A8DB79EB745970FB6C4
:10045000F8949EBF0FBE8DBFADB7BEB7119685E1B4
:10046000FE01319601900D928A95E1F70E94AE054A
:100470009D8B8C8B0FB6F894DEBF0FBECDBF812C49
:10048000912C5401C12CD12C76010093040472CF1D
:100490008BE791E00E94B10C8FE99FE00197F1F7A3
:1004A00000C000000E9491058AE891E00E94B10C12
:1004B000109304045FCF1F920F920FB60F92112476
:1004C0002F933F934F935F936F937F938F939F935C
:1004D000AF93BF93EF93FF9380E991E00E94B10C3B
:1004E0008AE991E00E94CF04FF91EF91BF91AF9113
:1004F0009F918F917F916F915F914F913F912F913C
:100500000F900FBE0F901F9018951F920F920FB66D
:100510000F9211242F933F934F935F936F937F9389
:100520008F939F93AF93BF93EF93FF930E947105B7
:10053000FF91EF91BF91AF919F918F917F916F91BB
:100540005F914F913F912F910F900FBE0F901F9091
:1005500018951F920F920FB60F9211248F939F93AD
:10056000AF93BF938091FF0390910004A091010489
:10057000B09102040196A11DB11D8093FF039093D9
:100580000004A0930104B093020481E0809303046B
:10059000BF91AF919F918F910F900FBE0F901F90C1
:1005A00018951092D90080E28093D8000895809128
:1005B000DC008823BCF024E630E0ECEDF0E082E0E3
:1005C0008A95F1F700C0215031098081882324F0F9
:1005D00021153105A1F703C02115310529F4109229
:1005E000DC0002C024E630E081E0232B09F480E047
:1005F00008958091DC0084FF17C024E630E0ECED24
:10060000F0E082E08A95F1F700C021503109808145
:1006100084FF04C021153105A1F703C02115310560
:1006200029F41092DC0002C024E630E081E0232BA4
:1006300009F480E00895CF93C82F84EA8093DC000A
:100640000E94D7028823E9F08091D900887F883002
:1006500011F0803199F4C093DB0084E88093DC00D2
:100660000E94D702882369F09091D900987F983131
:1006700039F081E0903429F480E003C081E001C0CA
:1006800080E0CF91089584E98093DC000E94F90214
:1006900008958093DB0084E88093DC000E94D702F9
:1006A0009091D900987F81E0983209F480E0089514
:1006B00084EC8093DC000E94D7028091DB000895D7
:1006C00084E88093DC000E94D7028091DB000895CB
:1006D000FF920F931F93CF93DF93D82FF62E8A01AB
:1006E0000E941B03C82F8F2D0E944903C80F8AE167
:1006F0008A95F1F700C08D2F81600E941B03C80FFF
:100700000E945803F80181830E946003F8018083EE
:100710000E94430381E0C11101C080E0DF91CF91CD
:100720001F910F91FF900895CF93DF9300D0CDB725
:10073000DEB7AE014F5F5F4F62E080E80E94680362
:1007400081110DC08A8190E0982F88272981822B02
:1007500095958795959587959595879502C08FEF87
:100760009FEF0F900F90DF91CF910895CF93DF937C
:1007700000D0CDB7DEB7AE014F5F5F4F64E080E8D9
:100780000E94680381110DC02A8130E0322F222798
:100790008981282B293C8FEA380730F4822F932F48
:1007A00005C08FEF9FEF02C080E090E00F900F90A8
:1007B000DF91CF9108950E945A058DE00E94520565
:1007C0008AE00E9452050895CF93DF93EC0142E046
:1007D00050E06FEA71E00E94460C892B09F487C053
:1007E00048E050E06FE971E0CE010E94460C892B91
:1007F00009F47FC049E050E068EA71E0CE010E9450
:10080000460C892B09F477C046E050E062EB71E0BA
:10081000CE010E94460C892B09F46FC04DE050E0D8
:1008200069EB71E0CE010E94460C892B09F467C088
:100830004CE050E067EC71E0CE010E94460C892B41
:1008400009F45FC046E050E064ED71E0CE010E9423
:10085000460C892B09F457C044E050E06BED71E081
:10086000CE010E94460C892B09F44FC04AE050E0AB
:1008700060EE71E0CE010E94460C892B09F447C05E
:100880004DE050E06BEE71E0CE010E94460C892BEA
:1008900009F43FC04AE050E069EF71E0CE010E94E8
:1008A000460C892BC1F14FE150E064E072E0CE01CB
:1008B0000E94460C892B89F140E150E064E272E02D
:1008C000CE010E94460C892B51F147E050E065E3D0
:1008D00072E0CE010E94460C892B19F1CE010E94D4
:1008E000B10CD0932404C09323048FEF1BC080E08D
:1008F00019C080E017C080E115C08AE013C081E014
:1009000011C082E00FC083E00DC084E00BC085E021
:1009100009C086E007C087E005C088E003C081E029
:1009200001C08DE0DF91CF910895EF92FF920F9378
:100930001F93CF93DF93CDB7DEB7CA5FD1090FB650
:10094000F894DEBF0FBECDBFCE0101967C0100E062
:1009500010E00E944A058D3071F40E944A05E1E0E2
:10096000F0E0EC0FFD1FE00FF11F1082CE010196A9
:100970000E94E40306C0F70181937F010F5F1F4FC0
:10098000E8CFC650DF4F0FB6F894DEBF0FBECDBF25
:10099000DF91CF911F910F91FF90EF900895CF932A
:1009A000DF93CDB7DEB7C456D1090FB6F894DEBFDA
:1009B0000FBECDBFBC0190E1EEE0F1E0DE0111968B
:1009C00001900D929A95E1F7FE01719684E5DF01A1
:1009D0001D928A95E9F7CE0101960E943B0CCE014B
:1009E00001960E94B10CCE0101960E94DB030E9489
:1009F000950481110EC00E9495041F928F938DEF74
:100A000092E09F938F930E949B0C0F900F900F90FA
:100A10000F9080E0CC59DF4F0FB6F894DEBF0FBEC9
:100A2000CDBFDF91CF910895E0EDF0E0908195FF8B
:100A3000FDCF8093D6000895CF93C82F8A3019F444
:100A40008DE00E9414058C2F0E94140580E090E038
:100A5000CF9108951092C50093E39093C40088E16C
:100A60008093C100E2ECF0E0808186608083109288
:100A7000D5009093D40088E98093D100E2EDF0E0B6
:100A800080818660808380E091E09093240580934C
:100A900023050895E0ECF0E080818823ECF7809155
:100AA000C6000895E0ECF0E0908195FFFDCF8093C3
:100AB000C6000895CF93DF93EC018881882331F03D
:100AC00021960E94520589918111FBCFDF91CF9130
:100AD0000895E0EDF0E080818823ECF78091D60066
:100AE00008950F931F93CF93DF9305E014E0C0E0C8
:100AF000D0E00E9469058A3029F0F80181938F01C6
:100B00002196F7CFCB5FDB4F188285E094E00E94FF
:100B1000B10C85E094E0DF91CF911F910F91089582
:100B20000895E3EDF0E080818062808383B7817F68
:100B3000866083BF83B7816083BF889583B78E7FCC
:100B400083BF2FE785EB91E0215080409040E1F793
:100B500000C0000080818F7D80830895CF93DF9354
:100B6000CDB7DEB78F858F938E858F938D858F93CD
:100B70008C858F938B851F928F938A858F93898520
:100B80008F9388858F938F818F938D811F928F9301
:100B90008E811F928F9384EE93E09F938F938BE7C8
:100BA00092E09F938F930E94E10C0FB6F894DEBF02
:100BB0000FBECDBF8BE792E0DF91CF910895A0E10A
:100BC000B0E0E5EEF5E00C947E097C011B016A01C2
:100BD000FC0117821682838181FF44C39E012F5F2F
:100BE0003F4F3901F7019381F10193FD859193FF07
:100BF00081911F01882309F431C3853239F493FDB3
:100C0000859193FF81911F01853239F4B70190E0FE
:100C10000E945F0C56016501E5CF10E0512C912C2C
:100C2000FFE1F915D8F08B3279F038F4803279F0A1
:100C30008332A1F4F92DF0612EC08D3261F0803342
:100C400069F4292D21602DC0392D3260932E892D14
:100C50008460982E2AC0E92DE86015C097FC2DC04D
:100C600020ED280F2A3088F496FE06C03AE0139F44
:100C7000200D1124122F19C08AE0589E200D112436
:100C8000522EE92DE0629E2E10C08E3231F496FC79
:100C9000E5C2F92DF0649F2E08C08C3621F4292D71
:100CA0002068922E02C0883641F4F10193FD8591AF
:100CB00093FF81911F018111B3CF9BEB980F93306C
:100CC00020F4992D9061805E07C09BE9980F9330C6
:100CD00008F066C1992D9F7E96FF16E09F73992EAE
:100CE000853619F49064992E08C0863621F4392F80
:100CF0003068932E02C01111115097FE07C01C33AB
:100D000050F444244394410E27E00BC0183038F0CF
:100D100027E017E005C027E09CE3492E02C0212F01
:100D2000412C560184E0A80EB11CF601608171814E
:100D300082819381042DA3010E94580B6C01F981DB
:100D4000FC87F0FF02C0F3FF06C091FC06C092FED4
:100D500006C000E205C00DE203C00BE201C000E0E6
:100D60008C858C7019F001115AC29BC297FE10C07D
:100D70004C0CFC85F4FF04C08A81813309F44A9449
:100D8000141474F528E0241578F588E0482E2CC05A
:100D900096FC2AC0812F90E08C159D059CF03CEFBD
:100DA000C3163FEFD30674F0892D8068982E0AC0D1
:100DB000E2E0F0E0EC0FFD1FE10FF11D80818033D8
:100DC00019F411501111F4CF97FE0EC0442443942E
:100DD000410E812F90E0C816D9062CF41C1904C0CE
:100DE0004424439401C010E097FE06C01C141D0467
:100DF00034F4C601019605C085E090E002C081E0B0
:100E000090E001110196112331F0212F30E02F5F86
:100E10003F4F820F931F252D30E08217930714F464
:100E2000581A01C0512C892D897049F4552039F088
:100E3000B70180E290E00E945F0C5A94F7CF002344
:100E400029F0B701802F90E00E945F0C93FC09C04D
:100E5000552039F0B70180E390E00E945F0C5A946E
:100E6000F7CF97FE4CC04601D7FE02C0812C912CD3
:100E7000C60188199909F301E80FF91FFE87ED876C
:100E8000960124193109388B2F87012F10E0119515
:100E9000019511093FEF8316930629F4B7018EE2FD
:100EA00090E00E945F0CC814D9044CF08F8598899B
:100EB0008815990524F4ED85FE85818101C080E3C4
:100EC000F1E08F1A91082D853E852F5F3F4F3E87B9
:100ED0002D87801691062CF0B70190E00E945F0CE0
:100EE000D9CFC814D90441F49A81963320F49533AC
:100EF00019F43C8534FF81E3B70190E04EC08A814C
:100F0000813319F09C859F7E9C87B70190E00E94F9
:100F10005F0C111105C094FC18C085E690E017C065
:100F2000B7018EE290E00E945F0C1E5F82E001E05C
:100F3000080FF301E80FF11D8081B70190E00E94D6
:100F40005F0C802F0113F3CFE6CF85E490E0B7016B
:100F50000E945F0CD7FC06C0C114D10441F4EC859B
:100F6000E4FF05C0D194C194D1088DE201C08BE2A9
:100F7000B70190E00E945F0C80E32AE0C216D10422
:100F80002CF08F5FFAE0CF1AD108F7CFB70190E0CD
:100F90000E945F0CB701C601C0960E945F0C54C14D
:100FA000833631F0833779F0833509F056C020C09D
:100FB000560132E0A30EB11CF6018081898301E065
:100FC00010E0630112C05601F2E0AF0EB11CF60151
:100FD000C080D18096FE03C0612F70E002C06FEF29
:100FE0007FEFC6010E94540C8C01F92DFF7714C0CD
:100FF000560122E0A20EB11CF601C080D18096FEFF
:1010000003C0612F70E002C06FEF7FEFC6010E9446
:10101000300C8C01F92DF0689F2EF3FD1AC0852D40
:1010200090E008171907A8F4B70180E290E00E9449
:101030005F0C5A94F4CFF60197FC859197FE81914D
:101040006F01B70190E00E945F0C51105A9401505B
:1010500011090115110579F7F7C0843611F08936A9
:1010600061F5560197FE09C024E0A20EB11CF601FD
:1010700060817181828193810AC0F2E0AF0EB11C60
:10108000F60160817181072E000C880B990BF92DF8
:10109000FF769F2E97FF09C090958095709561957A
:1010A0007F4F8F4F9F4FF0689F2E2AE030E0A301C3
:1010B0000E94030DC82EC6183FC0092D853721F4A4
:1010C0000F7E2AE030E01DC0097F8F3691F018F4C2
:1010D000883559F0C3C0803719F0883711F0BEC089
:1010E000006104FF09C0046007C094FE08C00660E8
:1010F00006C028E030E005C020E130E002C020E179
:1011000032E0560107FF09C084E0A80EB11CF601C9
:10111000608171818281938108C0F2E0AF0EB11CC1
:10112000F6016081718180E090E0A3010E94030DCF
:10113000C82EC6180F77902E96FE0BC0092D0E7F75
:10114000C11650F494FE0AC092FC08C0092D0E7E10
:1011500005C0DC2C092D03C0DC2C01C0D12E04FFFE
:101160000DC0FE01EC0DF11D8081803311F4097E6C
:1011700009C002FF06C0D394D39404C0802F8678A0
:1011800009F0D39403FD11C000FF06C01C2DD51437
:1011900080F4150D1D190DC0D51458F4B70180E267
:1011A00090E00E945F0CD394F7CFD51410F45D1833
:1011B00001C0512C04FF10C0B70180E390E00E94F1
:1011C0005F0C02FF17C001FD03C088E790E002C07A
:1011D00088E590E0B7010CC0802F867859F001FFB8
:1011E00002C08BE201C080E207FD8DE2B70190E012
:1011F0000E945F0CC11638F4B70180E390E00E94B2
:101200005F0C1150F7CFCA94F301EC0DF11D8081F2
:10121000B70190E00E945F0CC110F5CF15C0F4E05B
:10122000F51560F584E0581A93FE1FC0011127C020
:101230002C8523FF2AC00CEC10E0392D3071932E41
:10124000F8018491811124C0552009F4E4CCB70140
:1012500080E290E00E945F0C5A94F6CFF7018681FD
:10126000978126C08FEF9FEF23C0B70180E290E007
:101270000E945F0C5A945110F8CFD8CF512CB7016F
:10128000802F90E00E945F0CD3CF00ED10E0D5CF0F
:1012900091108052B70190E00E945F0C0F5F1F4FCA
:1012A000CFCF23E0251510F483E0BDCF512CC0CF64
:1012B0006096E2E10C949A09A1E21A2EAA1BBB1BCC
:1012C000FD010DC0AA1FBB1FEE1FFF1FA217B30712
:1012D000E407F50720F0A21BB30BE40BF50B661F28
:1012E000771F881F991F1A9469F7609570958095EC
:1012F00090959B01AC01BD01CF0108952F923F92C3
:101300004F925F926F927F928F929F92AF92BF9215
:10131000CF92DF92EF92FF920F931F93CF93DF93C1
:10132000CDB7DEB7CA1BDB0B0FB6F894DEBF0FBE1E
:10133000CDBF09942A88398848885F846E847D846B
:101340008C849B84AA84B984C884DF80EE80FD806D
:101350000C811B81AA81B981CE0FD11D0FB6F894E3
:10136000DEBF0FBECDBFED0108950E94C9090C94E8
:10137000B10A0E94AA0A58F00E94A30A40F029F478
:101380005F3F29F00C949A0A51110C94E50A0C94D1
:10139000A00A0E94C20A68F39923B1F3552391F37E
:1013A000951B550BBB27AA2762177307840738F0D4
:1013B0009F5F5F4F220F331F441FAA1FA9F335D031
:1013C0000E2E3AF0E0E832D091505040E695001CE5
:1013D000CAF72BD0FE2F29D0660F771F881FBB1F9F
:1013E000261737074807AB07B0E809F0BB0B802D7D
:1013F000BF01FF2793585F4F3AF09E3F510578F0A9
:101400000C949A0A0C94E50A5F3FE4F3983ED4F3F7
:10141000869577956795B795F7959F5FC9F7880F7C
:10142000911D9695879597F90895E1E0660F771FCE
:10143000881FBB1F621773078407BA0720F0621B5F
:10144000730B840BBA0BEE1F88F7E09508950E948A
:101450002E0A6894B1110C94E50A08950E94CA0AF4
:1014600088F09F5798F0B92F9927B751B0F0E1F065
:10147000660F771F881F991F1AF0BA95C9F714C015
:10148000B13091F00E94E40AB1E008950C94E40AAE
:10149000672F782F8827B85F39F0B93FCCF386954E
:1014A00077956795B395D9F73EF4909580957095AB
:1014B00061957F4F8F4F9F4F0895E89409C097FB28
:1014C0003EF490958095709561957F4F8F4F9F4F1B
:1014D0009923A9F0F92F96E9BB279395F69587955F
:1014E00077956795B795F111F8CFFAF4BB0F11F422
:1014F00060FF1BC06F5F7F4F8F4F9F4F16C08823C9
:1015000011F096E911C0772321F09EE8872F762FFE
:1015100005C0662371F096E8862F70E060E02AF03F
:101520009A95660F771F881FDAF7880F969587952B
:1015300097F9089597F99F6780E870E060E0089553
:101540009FEF80EC089500240A94161617061806DB
:101550000906089500240A941216130614060506B7
:101560000895092E0394000C11F4882352F0BB0F48
:1015700040F4BF2B11F460FF04C06F5F7F4F8F4FAB
:101580009F4F089557FD9058440F551F59F05F3FE6
:1015900071F04795880F97FB991F61F09F3F79F095
:1015A00087950895121613061406551FF2CF469517
:1015B000F1DF08C0161617061806991FF1CF869599
:1015C0007105610508940895E894BB27662777277D
:1015D000CB0197F908950E94FE0A0C94B10A0E946B
:1015E000A30A38F00E94AA0A20F0952311F00C9467
:1015F0009A0A0C94A00A11240C94E50A0E94C20ACB
:1016000070F3959FC1F3950F50E0551F629FF00155
:10161000729FBB27F00DB11D639FAA27F00DB11D6E
:10162000AA1F649F6627B00DA11D661F829F2227F7
:10163000B00DA11D621F739FB00DA11D621F839F7E
:10164000A00D611D221F749F3327A00D611D231F54
:10165000849F600D211D822F762F6A2F11249F57A2
:1016600050409AF0F1F088234AF0EE0FFF1FBB1FA5
:10167000661F771F881F91505040A9F79E3F510564
:1016800080F00C949A0A0C94E50A5F3FE4F3983ECC
:10169000D4F3869577956795B795F795E7959F5F0E
:1016A000C1F7FE2B880F911D9695879597F90895A0
:1016B000283008F027E03327DA01990F311D87FD24
:1016C000916000966105710539F432602E5F3D939B
:1016D00030E32A95E1F708959F3F30F08038710597
:1016E000610509F03C5F3C5F3D93913008F08068F4
:1016F000911DDF93CF931F930F93FF92EF92192FBA
:10170000987F9695E92F96959695E90FFF27E25DCC
:10171000FE4F99273327EE24FF24A701E701059008
:101720000894079428F4360FE71EF81E491F511D30
:10173000660F771F881F991F0694A1F705900794DD
:1017400028F4E70EF81E491F561FC11D770F881F8A
:10175000991F661F0694A1F70590079428F4F80EC8
:10176000491F561FC71FD11D880F991F661F771F5E
:101770000694A1F70590079420F4490F561FC71F40
:10178000D81F990F661F771F881F0694A9F78491A9
:101790001095177041F0D695C79557954795F794D2
:1017A000E7941A95C1F7E4EDF0E06894159015916F
:1017B00035916591959105907FE27395E118F10A55
:1017C000430B560BC90BD009C0F7E10CF11E431FA8
:1017D000561FC91FD01D7EF4703311F48A95E6CFD1
:1017E000E894015030F0080F0AF40027021708F4BB
:1017F000202F2395022F7A3328F079E37D932A95C1
:10180000E9F710C07D932A9589F606949795679518
:10181000379517951794E118F10A430B560BC90B2E
:10182000D00998F023957E9173957A3308F070E390
:101830007C932013B8F77E9170617D9330F083958F
:1018400071E37D9370E32A95E1F71124EF90FF9007
:101850000F911F91CF91DF91992787FD9095089562
:10186000FC010590615070400110D8F7809590956B
:101870008E0F9F1F0895FB01DC010D900020E9F7FA
:10188000119701900D920020E1F70895FB01DC0112
:101890004150504030F08D910190801919F4002092
:1018A000B9F7881B990B0895FC01615070400190B5
:1018B0000110D8F7809590958E0F9F1F08950F9374
:1018C0001F93CF93DF93FB01238121FD03C08FEF93
:1018D0009FEF2CC022FF16C046815781248135819D
:1018E0004217530744F4A081B1819D012F5F3F4F00
:1018F000318320838C93268137812F5F3F4F37833D
:10190000268314C08B01EC01FB010084F185E02DDE
:101910000995892BE1F6D80116968D919C91179720
:10192000019617969C938E931697CE01DF91CF91D7
:101930001F910F910895A0E0B0E0E1EAFCE00C9463
:101940008E09AE014B5F5F4FFA0161917191AF015A
:1019500080912305909124050E94DF05E2E00C941C
:10196000AA090F931F93CF93DF93E0912305F09182
:101970002405238121FF1BC08C01D0E0C0E0F801C9
:1019800081918F016091230570912405DB011896E8
:10199000ED91FC911997882331F00995892B79F302
:1019A000DFEFCFEFECCF8AE00995892B19F08FEFAD
:1019B0009FEF02C08D2F9C2FDF91CF911F910F9130
:1019C0000895AEE0B0E0E7EEFCE00C948C090D89E0
:1019D0001E8986E08C831A8309838FEF9FE79E839D
:1019E0008D83AE01475E5F4F6F89788DCE01019682
:1019F0000E94DF05EF81F885E00FF11F10822E961F
:101A0000E4E00C94A809FA01AA27283051F120310A
:101A100081F1E8946F936E7F6E5F7F4F8F4F9F4F82
:101A2000AF4FB1E03ED0B4E03CD0670F781F891FC4
:101A30009A1FA11D680F791F8A1F911DA11D6A0F92
:101A4000711D811D911DA11D20D009F468943F9145
:101A50002AE0269F11243019305D3193DEF6CF0144
:101A60000895462F4770405D4193B3E00FD0C9F70A
:101A7000F6CF462F4F70405D4A3318F0495D31FD77
:101A80004052419302D0A9F7EACFB4E0A6959795CA
:101A9000879577956795BA95C9F7009761057105A0
:101AA00008959B01AC010A2E0694579547953795EA
:101AB0002795BA95C9F7620F731F841F951FA01D44
:061AC0000895F894FFCF29
:101AC60000000003000000001C05000000006D611E
:101AD6006320747820756E636E66203320000000E4
:101AE60000000000000000000000000000000000F0
:101AF60000000000000000000000000000000000E0
:101B060000000000000000000000000000000000CF
:101B160000000000000000000000000000000000BF
:101B260000000000000000000000000000000000AF
:101B36000000656E64656400686900476F696E67DA
:101B460020746F20736C656570004177616B65006A
:101B560062746E207072657373003131464600619F
:101B660063636570746564006D61635F74785F6F4D
:101B76006B0064656E69656400696E76616C6964A4
:101B86005F706172616D006E6F5F667265655F633F
:101B960068616E0073696C656E74006275737900B6
:101BA6006D61635F706175736564006B6579735F02
:101BB6006E6F745F696E6974006E6F745F6A6F69C9
:101BC6006E6564006672616D655F636F756E7465E0
:101BD600725F6572725F72656A6F696E5F6E656568
:101BE60064656400696E76616C69645F64617461E2
:101BF6005F6C656E006D61635F6572720073797309
:101C06002072657365740073797320676574206844
:101C160077657569007465737420636D643A200096
:101C26006A6F696E696E67204F5441412E2E2E00F1
:101C36005472793A2025642E2E2E0A006D61632097
:101C46006A6F696E206F746161004A6F696E696EB2
:101C560067206F766572204F544141206661696C3A
:101C660065642077697468206572726F723A202500
:101C76003032580A004A6F696E6564207375636373
:101C860065737366756C6C79006D6163206A6F6944
:101C96006E20636D64206661696C65642077697483
:101CA60068206572726F723A2025640A006D61635E
:101CB6002073657420616472206F666600547261D9
:101CC6006E736D6974207769746820636F64653A12
:101CD60020253032780A006D6163206A6F696E20B4
:101CE6006162700046697273743A20253032780A50
:101CF600005365636F6E643A20253032780A0046D9
:101D060061696C65642073656E64696E74206A6FC0
:101D1600696E20636D643A20253032780A00646566
:101D26006164626565660036434539393937424133
:101D360038384142353436463845393745394546CF
:101D46004146423431323200393731423235443934
:101D56003037313733313737334135313435353430
:101D6600374637313330324500323630313138423A
:101D76003200374339303937434637313041324202
:101D860036303938463741384544333638373738B0
:101D960044450037304233443537454430303245C8
:101DA6003533330025303258253032582530386CDB
:0E1DB600582530325825303458253034580026
:00000001FF
