S01100004C6F52612D6E6F64652E73726563D2
S11300000C94E7000C9404010C94F2020C94040187
S11300100C9404010C9404010C9404010C94040148
S11300200C9404010C9404010C9404010C94250315
S11300300C9404010C9404010C9404010C94040128
S11300400C9404010C9404010C9404010C94040118
S11300500C9404010C9404010C9404010C94040108
S11300600C9404010C9404010C9404010C940401F8
S11300700C9404010C9404010C9404010C940401E8
S11300800C9404010C9404010C9404010C940401D8
S11300900C9404010C9404010C9404010C940401C8
S11300A00C9404010C9404010C9404010C940401B8
S11300B00C9404010C9404010C9404010C940103A9
S11300C00C9404010C9404010C9404016E616E0000
S11300D0696E660000407A10F35A00A0724E180947
S11300E00010A5D4E80000E87648170000E40B549B
S11300F0020000CA9A3B000000E1F505000080966A
S11301009800000040420F000000A086010000009B
S1130110102700000000E803000000006400000055
S113012000000A00000000000100000000002C761E
S1130130D888DC674F0823DFC1DFAE59E1B1B79639
S1130140E5E3E453C63AE651997696E8E6C2842696
S1130150EB898C9B62ED407C6FFCEFBC9C9F40F272
S1130160BAA56FA5F490055A2AF75C936B6CF967EE
S11301706DC11BFCE0E40D47FEF520E6B500D0EDB3
S1130180902E0300943577050080841E080000201B
S11301904E0A000000C80C333333330F986E1283B9
S11301A01141EF8D2114893BE65516CFFEE6DB188D
S11301B0D1844B381BF77C1D901DA4BBE424203252
S11301C084725E228100C9F124ECA1E53D2711244B
S11301D01FBECFEFD8E0DEBFCDBF15E0A0E0B1E099
S11301E0E0ECF1E202C005900D92A838B107D9F70E
S11301F026E0A8E8B5E001C01D92A539B207E1F7F1
S11302000E9406010C94DE100C94000084B7877FD2
S113021084BF0FB6F894A89580916000886180939C
S11302206000109260000FBE2FEF83EC99E0215024
S113023080409040E1F700C000000E94BA018EE0C7
S113024092E00E942E1080E090E00895ACE7B0E0C8
S11302501C92EAE7F0E010828C9180648C93808198
S1130260866080838081806880830895EAE7F0E077
S1130270808180648083808184FFFDCF80917800B9
S113028090917900893E23E0920714F088EE93E080
S11302900895ECE7F0E09081892B80830E94360179
S11302A08AE18A95F1F700C00895892B19F05C98CA
S11302B0289808955C9A289A0895CF93DF93EC01C7
S11302C08CE192E00E942E100E9426015398E9E6E8
S11302D0F0E0808188608083E99A549A80E090E01D
S11302E00E94550182E292E00E942E10CE010E94EB
S11302F0C1050E944A030E9494040E94460878940F
S1130300DF91CF91089581E00E9449010E94360156
S1130310BC0180E090E00E94D30D26EB36EC4FE167
S11303205BE30E94610E20E030E846ED53E40E9456
S1130330610E20E030E04FE753E40E942B0D20E0F3
S113034030E048EC52E40E94610E26E636E646E8C8
S113035050E40E942B0D0E949D0D862F089589E183
S113036093E00E942E10F894E0E6F0E0108288E01A
S113037080830895CF93DF93CDB7DEB767970FB629
S1130380F894DEBF0FBECDBF8CE390E09093C4051C
S11303908093C30519821A821B821C821D8224E663
S11303A02E8318861F821A8619861B861C861D8634
S11303B01E861F86188A198A1A8A1B8A9D8B8C8B23
S11303C08AE994E09F8B8E8B00E010E06894DD2432
S11303D0D1F80F2EF3E0EF2EF02DFF24F39480914B
S11303E08805882331F01092880588E292E00E9403
S11303F08F0780918A05813009F4E3C028F08230A8
S113040049F1833091F0EBCFCE0143960E945D0118
S11304108FE392E00E942E108B89882319F0E092DA
S11304208A05DDCFD0928A05DACF8AE592E00E9470
S11304302E100F5F1F4F0330110524F40E949C05FA
S11304408B8B05C0043B110514F000E010E0F09222
S11304508A05C5CF0E9446040E946F040E94460488
S1130460092E000CAA0BBB0B4B855C856D857E8524
S1130470840F951FA61FB71F8B879C87AD87BE87E8
S11304800E946F044F85588969897A89480F591FDA
S1130490611D711D4F87588B698B7A8B0E94830174
S11304A08E832091C3053091C4053D8B2C8B8C33F6
S11304B028F480E090E00E94550106C0803620F0C8
S11304C081E090E00E9455016091BF057091C005E4
S11304D08091C1059091C2052C893D8940E050E08E
S11304E00E94D20C672B682B692B09F067C080919E
S11304F0BF059091C005A091C105B091C205892B9B
S11305008A2B8B2B09F45AC085E692E00E942E10A8
S1130510809189058F3F11F4109289058091890596
S113052091E0980F9093890589838C889D88A12CEC
S1130530B12C6B857C858D859E85A50194010E94D7
S1130540D20C38872F836F85788989899A89A50188
S113055094010E94D20C3A8729878091BF0590911B
S1130560C005A091C105B091C2058A839B83AC8369
S1130570BD838DB79EB747970FB6F8949EBF0FBE45
S11305808DBFADB7BEB7119687E1FE0131960190DC
S11305900D928A95E1F70E9427099F8B8E8B0E940A
S11305A08F071B861C861D861E861F86188A198A3D
S11305B01A8A0FB6F894DEBF0FBECDBFF0928A053B
S11305C00ECF8FE99FE00197F1F700C000000E9471
S11305D063088B89882319F0E0928A0500CFD092B2
S11305E08A05FDCE1F920F920FB60F9211248F939E
S11305F081E0809388058F910F900FBE0F901F901C
S113060018951F920F920FB60F9211242F933F93B8
S11306104F935F936F937F938F939F93AF93BF9306
S1130620EF93FF930E942708FF91EF91BF91AF9141
S11306309F918F917F916F915F914F913F912F91F6
S11306400F900FBE0F901F9018951F920F920FB628
S11306500F9211248F939F93AF93BF938091BF0503
S11306609091C005A091C105B091C2050196A11D4C
S1130670B11D8093BF059093C005A093C105B093AD
S1130680C205BF91AF919F918F910F900FBE0F90B4
S11306901F9018951092D90080E28093D800089595
S11306A08091DC008823BCF024E630E0ECEDF0E03F
S11306B082E08A95F1F700C02150310980818823B6
S11306C024F021153105A1F703C02115310529F4C2
S11306D01092DC0002C024E630E081E0232B09F410
S11306E080E008958091DC0084FF17C024E630E0A8
S11306F0ECEDF0E082E08A95F1F700C02150310979
S1130700808184FF04C021153105A1F703C02115A0
S1130710310529F41092DC0002C024E630E081E0C7
S1130720232B09F480E00895CF93C82F84EA8093A3
S1130730DC000E9450038823E9F08091D900887F6F
S1130740883011F0803199F4C093DB0084E8809301
S1130750DC000E945003882369F09091D900987FAF
S1130760983139F081E0903429F480E003C081E0CD
S113077001C080E0CF91089584E98093DC000E9459
S1130780720308958093DB0084E88093DC000E9468
S113079050039091D900987F81E0983209F480E069
S11307A0089584EC8093DC000E9450038091DB0068
S11307B0089584E88093DC000E9450038091DB005C
S11307C00895FF920F931F93CF93DF93D82FF62EA4
S11307D08A010E949403C82F8F2D0E94C203C80F60
S11307E08AE18A95F1F700C08D2F81600E949403FD
S11307F0C80F0E94D103F80181830E94D903F80134
S113080080830E94BC0381E0C11101C080E0DF91BC
S1130810CF911F910F91FF9008950F931F93CF9342
S1130820DF93062FD42F152F0E949403C82F802FF7
S11308300E94C203C80F8AE18A95F1F700C0812F94
S11308400E94C203C80F8D2F0E94C203C80F0E94CA
S1130850BC0381E0C11101C080E0DF91CF911F9101
S11308600F910895CF9340E85AE665E080E80E942E
S11308700D04C82F4FE951E060E080E80E940D04A8
S1130880C80F81E009F480E0CF910895CF93DF93FE
S113089000D0CDB7DEB7AE014F5F5F4F62E080E8B6
S11308A00E94E103811111C08A8190E0982F88276A
S11308B02981822B9595879595958795959587950B
S11308C0813020E1920730F003C080E090E002C064
S11308D080E090E00F900F90DF91CF910895CF9337
S11308E0DF9300D0CDB7DEB7AE014F5F5F4F64E05A
S11308F080E80E94E10381110DC02A8130E0322F8B
S113090022278981282B213080E8380730F4822F70
S1130910932F05C080E090E002C080E090E00F904B
S11309200F90DF91CF9108950E94320491E08111DC
S113093001C090E0892F08950E9410088DE00E9464
S113094008088AE00E9408080895CF93DF93EC0119
S113095042E050E06FE772E00E94C30F892B09F474
S11309608FC048E050E06FE672E0CE010E94C30FF2
S1130970892B09F487C049E050E068E772E0CE01B2
S11309800E94C30F892B09F47FC047E050E062E85E
S113099072E0CE010E94C30F892B39F4BE0185ECAD
S11309A095E00E94BC0F81E186C046E050E06AE811
S11309B072E0CE010E94C30F892B09F467C04DE099
S11309C050E061E972E0CE010E94C30F892B09F463
S11309D05FC04CE050E06FE972E0CE010E94C30FAB
S11309E0892B09F457C046E050E06CEA72E0CE016E
S11309F00E94C30F892B09F44FC044E050E063EB1D
S1130A0072E0CE010E94C30F892B09F447C04AE06B
S1130A1050E068EB72E0CE010E94C30F892B09F409
S1130A203FC04DE050E063EC72E0CE010E94C30F82
S1130A30892BC1F14AE050E061ED72E0CE010E94E1
S1130A40C30F892B89F14FE150E06CED72E0CE01C8
S1130A500E94C30F892B51F140E150E06CEF72E02A
S1130A60CE010E94C30F892B19F147E050E06DE0DD
S1130A7073E0CE010E94C30F892BE1F08AEA1BC008
S1130A8080E019C080E017C080E115C08AE013C07F
S1130A9081E011C082E00FC083E00DC084E00BC090
S1130AA085E009C086E007C087E005C088E003C090
S1130AB081E001C08DE0DF91CF910895EF92FF9224
S1130AC00F931F93CF93DF93CDB7DEB7CA5FD109DE
S1130AD00FB6F894DEBF0FBECDBFCE0101967C01E8
S1130AE000E010E00E9400088D3091F40E9400089C
S1130AF0E1E0F0E0EC0FFD1FE00FF11F1082CE01EA
S1130B0001960E942E10CE0101960E94A50406C0F3
S1130B10F70181937F010F5F1F4FE4CFC650DF4F72
S1130B200FB6F894DEBF0FBECDBFDF91CF911F91FA
S1130B300F91FF90EF9008958FE193E00E942E10A3
S1130B408FE293E09F938F930E94181082E493E0C6
S1130B500E949C040E945E050F900F9081110DC0AD
S1130B6080E593E09F938F930E9418100E945E0586
S1130B700F900F90811103C0089582E2089583E2DB
S1130B800895EF92FF920F931F93CF93DF93CDB706
S1130B90DEB7E2970FB6F894DEBF0FBECDBF7C017F
S1130BA0519A59988FE19EE40197F1F700C0000033
S1130BB01AB89AE19A95F1F700C00E94E00785E51A
S1130BC00E940808AFEFB0E7E2E0A150B040E04077
S1130BD0E1F700C0000084E993E00E942E1083E056
S1130BE08F9384E68F9381EA93E09F938F938E0192
S1130BF00F5F1F4F1F930F930E945E101F930F935D
S1130C008EEA93E09F938F930E941810C8010E946C
S1130C109C040E945E050FB6F894DEBF0FBECDBFE4
S1130C20811110C183EB93E09F938F930E9418105E
S1130C308DEB93E00E949C040E945E050F900F9040
S1130C40811102C11F9281E08F938CEC93E09F93FA
S1130C508F931F930F930E945E101F930F938EEA3E
S1130C6093E09F938F930E941810C8010E949C04E4
S1130C700E945E050FB6F894DEBF0FBECDBF811192
S1130C80E5C01F9281E08F938AED93E09F938F9349
S1130C901F930F930E945E101F930F938EEA93E0AD
S1130CA09F938F930E941810C8010E949C040E9475
S1130CB05E050FB6F894DEBF0FBECDBF8111C8C06C
S1130CC08CEE93E09F938F930E94181086E094E03B
S1130CD00E949C040E945E050F900F9081111EC01B
S1130CE08CE194E09F938F930E94181086E394E024
S1130CF00E949C040E945E050F900F9081110EC00B
S1130D008CE494E09F938F930E94181086E694E0FD
S1130D100E949C040E945E050F900F908CE794E063
S1130D200E942E1080E1E4E1F1E08E010F5F1F4F7D
S1130D30D80101900D928A95E1F7FE01719682E245
S1130D40DF011D928A95E9F7609102017091030118
S1130D50C8010E94B10F1F930F9385E994E09F93FC
S1130D608F930E941810C8010E949C040E945E0583
S1130D700F900F900F900F9081116CC08BE994E04D
S1130D809F938F930E94181080E1E6E4F1E0D8016C
S1130D9001900D928A95E1F7FE01719682E2DF01DE
S1130DA01D928A95E9F76091040170910501C801CB
S1130DB00E94B10FC8010E949C040E945E050F901E
S1130DC00F90811147C080E1E8E7F1E0D80101907C
S1130DD00D928A95E1F7FE01719682E2DF011D9280
S1130DE08A95E9F76091000170910101C8010E94A0
S1130DF0B10F88EA94E09F938F930E941810C80162
S1130E000E949C040E945E050F900F90811122C0E5
S1130E108EEB94E09F938F930E9418108EEC94E0D5
S1130E200E949C040E945E05182F0F900F90811160
S1130E3011C00E949C05F701808387ED94E00E9415
S1130E402E1009C011E007C012E005C013E003C072
S1130E5014E001C015E0812FE2960FB6F894DEBFCE
S1130E600FBECDBFDF91CF911F910F91FF90EF90F7
S1130E700895E5ECF5E001900020E9F73197BF0112
S1130E80655C75406D31710548F029E030E049E258
S1130E9056E085EC95E00E94800808C029E030E027
S1130EA049E256E085EC95E00E94F7088091290616
S1130EB0803B29F1803C81F18A3081F5E9E2F6E05A
S1130EC02381828190E0A0E0B0E0DC0199278827AB
S1130ED0922B2481822B2181B22B8093BF05909386
S1130EE0C005A093C105B093C20580918B05909174
S1130EF08C05019690938C0580938B050895E9E207
S1130F00F6E0818190E0982F88272281822B9093AC
S1130F10C4058093C30508950E94AF010895CF933B
S1130F20DF93CDB7DEB7C456D1090FB6F894DEBF50
S1130F300FBECDBFBC0190E1EAEAF1E0DE011196FB
S1130F4001900D929A95E1F7FE01719684E5DF0117
S1130F501D928A95E9F7CE0101960E94B10FCE0148
S1130F6001960E949C040E945E05811108C02A9883
S1130F700E945E05813121F40E94390701C02A9A3A
S1130F80CC59DF4F0FB6F894DEBF0FBECDBFDF9153
S1130F90CF910895E0EDF0E0908195FFFDCF80932F
S1130FA0D6000895CF93C82F8A3019F48DE00E949B
S1130FB0CA078C2F0E94CA0780E090E0CF91089561
S1130FC01092C50093E39093C40088E18093C1001C
S1130FD0E2ECF0E08081866080831092D5009093EB
S1130FE0D40088E98093D100E2EDF0E0808186604E
S1130FF0808386E091E09093920680939106089511
S1131000E0ECF0E080818823ECF78091C60008953D
S1131010E0ECF0E0908195FFFDCF8093C600089549
S1131020CF93DF93EC018881882331F021960E94CD
S1131030080889918111FBCFDF91CF910895E0EDEC
S1131040F0E080818823ECF78091D60008950F9317
S11310501F93CF93DF930DE815E0C0E0D0E00E942A
S11310601F088A3029F0F80181938F012196F7CF68
S1131070C357DA4F18828DE895E00E942E108DE850
S113108095E0DF91CF911F910F9108951092700018
S113109080E28093B6002FEF89E698E121508040EA
S11310A09040E1F700C000001092B00085E080930A
S11310B0B100E6EBF0E080818371E9F717BA81E0D3
S11310C0809370000895E3EDF0E080818062808376
S11310D083B7817F866083BF83B7816083BF889530
S11310E083B78E7F83BF2FE785EB91E0215080404B
S11310F09040E1F700C0000080818F7D80830895D7
S1131100EF92FF920F931F93CF93DF93CDB7DEB788
S1131110E2970FB6F894DEBF0FBECDBFDC017901B4
S1131120322FF701FF27E617F707C8F480E001E044
S113113010E00C0F1D1F080F111DEA0FFB1F20816B
S113114091819053E0E12E9F900D1124F80190833A
S11311503E5F8F5FE32FF0E0E617F70740F36E1969
S11311607F097B01F694E794E114F10499F1E0E03E
S113117070E0272F30E081E090E08C0F9D1F820FFC
S1131180931FDC018C918A3318F099EA980F02C0FE
S113119090ED980FA2E0B0E0AC0FBD1F2A0F3B1FEB
S11311A0D9018C918A3318F029EA280F02C020ED66
S11311B0280F8A010E0F111DB0E19B9FC00111245D
S11311C0822BD8018C937E5FEF5F872F90E08E1582
S11311D09F0578F2E2960FB6F894DEBF0FBECDBF3E
S11311E0DF91CF911F910F91FF90EF9008950F938E
S11311F01F93CF93DF93EC01952F2617370708F53C
S1131200C20FD31F042F152FFE01A881AA3318F093
S1131210B0E0D79702C0B0E0D097E181EA3318F08C
S1131220F0E0F79702C0F0E0F097A295A07FEA2BD8
S1131230D801ED938D012E5F3F4F22962617370775
S113124018F3842FDF91CF911F910F910895CF93BD
S1131250DF93CDB7DEB78E858F938D858F938C8585
S11312608F938B858F938A851F928F9389858F9314
S113127088858F938F818F938E818F938D811F9219
S11312808F9382E795E09F938F938AE994E09F93ED
S11312908F930E945E100FB6F894DEBF0FBECDBFD1
S11312A08AE994E0DF91CF910895A0E1B0E0EBE505
S11312B0F9E00C94F40C7C011B016A01FC01178217
S11312C01682838181FF44C39E012F5F3F4F390102
S11312D0F7019381F10193FD859193FF81911F01A2
S11312E0882309F431C3853239F493FD859193FF42
S11312F081911F01853239F4B70190E00E94DC0F1F
S113130056016501E5CF10E0512C912CFFE1F91550
S1131310D8F08B3279F038F4803279F08332A1F44A
S1131320F92DF0612EC08D3261F0803369F4292DDE
S113133021602DC0392D3260932E892D8460982E22
S11313402AC0E92DE86015C097FC2DC020ED280FB8
S11313502A3088F496FE06C03AE0139F200D11242B
S1131360122F19C08AE0589E200D1124522EE92D07
S1131370E0629E2E10C08E3231F496FCE5C2F92D47
S1131380F0649F2E08C08C3621F4292D2068922EFB
S113139002C0883641F4F10193FD859193FF819158
S11313A01F018111B3CF9BEB980F933020F4992D3B
S11313B09061805E07C09BE9980F933008F066C186
S11313C0992D9F7E96FF16E09F73992E853619F40A
S11313D09064992E08C0863621F4392F3068932EF4
S11313E002C01111115097FE07C01C3350F444245D
S11313F04394410E27E00BC0183038F027E017E083
S113140005C027E09CE3492E02C0212F412C560140
S113141084E0A80EB11CF601608171818281938100
S1131420042DA3010E94CE0E6C01F981FC87F0FF0C
S113143002C0F3FF06C091FC06C092FE06C000E2A3
S113144005C00DE203C00BE201C000E08C858C7086
S113145019F001115AC29BC297FE10C04C0CFC85B6
S1131460F4FF04C08A81813309F44A94141474F596
S113147028E0241578F588E0482E2CC096FC2AC074
S1131480812F90E08C159D059CF03CEFC3163FEF37
S1131490D30674F0892D8068982E0AC0E2E0F0E04B
S11314A0EC0FFD1FE10FF11D8081803319F4115001
S11314B01111F4CF97FE0EC044244394410E812FA2
S11314C090E0C816D9062CF41C1904C04424439493
S11314D001C010E097FE06C01C141D0434F4C601BC
S11314E0019605C085E090E002C081E090E0011122
S11314F00196112331F0212F30E02F5F3F4F820FEF
S1131500931F252D30E08217930714F4581A01C055
S1131510512C892D897049F4552039F0B70180E2A6
S113152090E00E94DC0F5A94F7CF002329F0B70112
S1131530802F90E00E94DC0F93FC09C0552039F005
S1131540B70180E390E00E94DC0F5A94F7CF97FE36
S11315504CC04601D7FE02C0812C912CC6018819CB
S11315609909F301E80FF91FFE87ED879601241905
S11315703109388B2F87012F10E01195019511093E
S11315803FEF8316930629F4B7018EE290E00E94A0
S1131590DC0FC814D9044CF08F85988988159905F7
S11315A024F4ED85FE85818101C080E3F1E08F1A8A
S11315B091082D853E852F5F3F4F3E872D878016EE
S11315C091062CF0B70190E00E94DC0FD9CFC8142B
S11315D0D90441F49A81963320F4953319F43C8567
S11315E034FF81E3B70190E04EC08A81813319F062
S11315F09C859F7E9C87B70190E00E94DC0F1111AF
S113160005C094FC18C085E690E017C0B7018EE2CF
S113161090E00E94DC0F1E5F82E001E0080FF301FE
S1131620E80FF11D8081B70190E00E94DC0F802F4C
S11316300113F3CFE6CF85E490E0B7010E94DC0FFD
S1131640D7FC06C0C114D10441F4EC85E4FF05C005
S1131650D194C194D1088DE201C08BE2B70190E02E
S11316600E94DC0F80E32AE0C216D1042CF08F5FC5
S1131670FAE0CF1AD108F7CFB70190E00E94DC0F4F
S1131680B701C601C0960E94DC0F54C1833631F005
S1131690833779F0833509F056C020C0560132E013
S11316A0A30EB11CF6018081898301E010E063017F
S11316B012C05601F2E0AF0EB11CF601C080D18019
S11316C096FE03C0612F70E002C06FEF7FEFC6018A
S11316D00E94D10F8C01F92DFF7714C0560122E02E
S11316E0A20EB11CF601C080D18096FE03C0612F0A
S11316F070E002C06FEF7FEFC6010E94A60F8C015D
S1131700F92DF0689F2EF3FD1AC0852D90E008177F
S11317101907A8F4B70180E290E00E94DC0F5A9404
S1131720F4CFF60197FC859197FE81916F01B70183
S113173090E00E94DC0F51105A94015011090115D8
S1131740110579F7F7C0843611F0893661F5560131
S113175097FE09C024E0A20EB11CF60160817181DC
S1131760828193810AC0F2E0AF0EB11CF601608160
S11317707181072E000C880B990BF92DFF769F2E93
S113178097FF09C090958095709561957F4F8F4F15
S11317909F4FF0689F2E2AE030E0A3010E94801042
S11317A0C82EC6183FC0092D853721F40F7E2AE0C4
S11317B030E01DC0097F8F3691F018F4883559F058
S11317C0C3C0803719F0883711F0BEC0006104FF30
S11317D009C0046007C094FE08C0066006C028E083
S11317E030E005C020E130E002C020E132E05601E3
S11317F007FF09C084E0A80EB11CF6016081718165
S11318008281938108C0F2E0AF0EB11CF6016081C1
S1131810718180E090E0A3010E948010C82EC61858
S11318200F77902E96FE0BC0092D0E7FC11650F433
S113183094FE0AC092FC08C0092D0E7E05C0DC2C63
S1131840092D03C0DC2C01C0D12E04FF0DC0FE0104
S1131850EC0DF11D8081803311F4097E09C002FF73
S113186006C0D394D39404C0802F867809F0D3940F
S113187003FD11C000FF06C01C2DD51480F4150D06
S11318801D190DC0D51458F4B70180E290E00E94F0
S1131890DC0FD394F7CFD51410F45D1801C0512C8C
S11318A004FF10C0B70180E390E00E94DC0F02FF48
S11318B017C001FD03C088E790E002C088E590E00E
S11318C0B7010CC0802F867859F001FF02C08BE26B
S11318D001C080E207FD8DE2B70190E00E94DC0FB9
S11318E0C11638F4B70180E390E00E94DC0F115078
S11318F0F7CFCA94F301EC0DF11D8081B70190E09C
S11319000E94DC0FC110F5CF15C0F4E0F51560F5A9
S113191084E0581A93FE1FC0011127C02C8523FFB1
S11319202AC00CEC10E0392D3071932EF80184910B
S1131930811124C0552009F4E4CCB70180E290E081
S11319400E94DC0F5A94F6CFF7018681978126C056
S11319508FEF9FEF23C0B70180E290E00E94DC0F7D
S11319605A945110F8CFD8CF512CB701802F90E062
S11319700E94DC0FD3CF00ED10E0D5CF9110805240
S1131980B70190E00E94DC0F0F5F1F4FCFCF23E021
S1131990251510F483E0BDCF512CC0CF6096E2E151
S11319A00C94100DA1E21A2EAA1BBB1BFD010DC045
S11319B0AA1FBB1FEE1FFF1FA217B307E407F507FB
S11319C020F0A21BB30BE40BF50B661F771F881FD7
S11319D0991F1A9469F760957095809590959B016D
S11319E0AC01BD01CF0108952F923F924F925F92B7
S11319F06F927F928F929F92AF92BF92CF92DF921B
S1131A00EF92FF920F931F93CF93DF93CDB7DEB77F
S1131A10CA1BDB0B0FB6F894DEBF0FBECDBF099413
S1131A202A88398848885F846E847D848C849B846A
S1131A30AA84B984C884DF80EE80FD800C811B8178
S1131A40AA81B981CE0FD11D0FB6F894DEBF0FBEA7
S1131A50CDBFED0108950E943F0D0C94270E0E9406
S1131A60200E58F00E94190E40F029F45F3F29F02F
S1131A700C94100E51110C945B0E0C94160E0E94D3
S1131A80380E68F39923B1F3552391F3951B550B45
S1131A90BB27AA2762177307840738F09F5F5F4F3D
S1131AA0220F331F441FAA1FA9F335D00E2E3AF07C
S1131AB0E0E832D091505040E695001CCAF72BD094
S1131AC0FE2F29D0660F771F881FBB1F26173707E5
S1131AD04807AB07B0E809F0BB0B802DBF01FF2717
S1131AE093585F4F3AF09E3F510578F00C94100ED6
S1131AF00C945B0E5F3FE4F3983ED4F386957795A0
S1131B006795B795F7959F5FC9F7880F911D9695CF
S1131B10879597F90895E1E0660F771F881FBB1F2B
S1131B20621773078407BA0720F0621B730B840BD8
S1131B30BA0BEE1F88F7E09508950E94A40D6894EF
S1131B40B1110C945B0E08950E94400E88F09F57CB
S1131B5098F0B92F9927B751B0F0E1F0660F771FCD
S1131B60881F991F1AF0BA95C9F714C0B13091F0C3
S1131B700E945A0EB1E008950C945A0E672F782FE4
S1131B808827B85F39F0B93FCCF386957795679588
S1131B90B395D9F73EF490958095709561957F4FF4
S1131BA08F4F9F4F0895E89409C097FB3EF490959A
S1131BB08095709561957F4F8F4F9F4F9923A9F022
S1131BC0F92F96E9BB279395F695879577956795B1
S1131BD0B795F111F8CFFAF4BB0F11F460FF1BC0F5
S1131BE06F5F7F4F8F4F9F4F16C0882311F096E988
S1131BF011C0772321F09EE8872F762F05C0662336
S1131C0071F096E8862F70E060E02AF09A95660FEE
S1131C10771F881FDAF7880F9695879597F90895A7
S1131C2097F99F6780E870E060E008959FEF80EC8B
S1131C30089500240A94161617061806090608952E
S1131C4000240A9412161306140605060895092E94
S1131C500394000C11F4882352F0BB0F40F4BF2B03
S1131C6011F460FF04C06F5F7F4F8F4F9F4F089543
S1131C7057FD9058440F551F59F05F3F71F0479539
S1131C80880F97FB991F61F09F3F79F0879508951E
S1131C90121613061406551FF2CF4695F1DF08C03D
S1131CA0161617061806991FF1CF8695710561055A
S1131CB008940895E894BB2766277727CB0197F902
S1131CC008950E94740E0C94270E0E94190E38F089
S1131CD00E94200E20F0952311F00C94100E0C9409
S1131CE0160E11240C945B0E0E94380E70F3959F0F
S1131CF0C1F3950F50E0551F629FF001729FBB27FF
S1131D00F00DB11D639FAA27F00DB11DAA1F649F9A
S1131D106627B00DA11D661F829F2227B00DA11D4D
S1131D20621F739FB00DA11D621F839FA00D611DD3
S1131D30221F749F3327A00D611D231F849F600DF4
S1131D40211D822F762F6A2F11249F5750409AF01D
S1131D50F1F088234AF0EE0FFF1FBB1F661F771FA9
S1131D60881F91505040A9F79E3F510580F00C9474
S1131D70100E0C945B0E5F3FE4F3983ED4F386950B
S1131D8077956795B795F795E7959F5FC1F7FE2B14
S1131D90880F911D9695879597F90895283008F036
S1131DA027E03327DA01990F311D87FD91600096F2
S1131DB06105710539F432602E5F3D9330E32A9555
S1131DC0E1F708959F3F30F080387105610509F00F
S1131DD03C5F3C5F3D93913008F08068911DDF9338
S1131DE0CF931F930F93FF92EF92192F987F96959D
S1131DF0E92F96959695E90FFF27E25DFE4F992707
S1131E003327EE24FF24A701E701059008940794E3
S1131E1028F4360FE71EF81E491F511D660F771F61
S1131E20881F991F0694A1F70590079428F4E70EDC
S1131E30F81E491F561FC11D770F881F991F661F63
S1131E400694A1F70590079428F4F80E491F561F2D
S1131E50C71FD11D880F991F661F771F0694A1F70E
S1131E600590079420F4490F561FC71FD81F990FD8
S1131E70661F771F881F0694A9F784911095177021
S1131E8041F0D695C79557954795F794E7941A95D9
S1131E90C1F7E4EDF0E068941590159135916591E2
S1131EA0959105907FE27395E118F10A430B560B67
S1131EB0C90BD009C0F7E10CF11E431F561FC91FFF
S1131EC0D01D7EF4703311F48A95E6CFE894015066
S1131ED030F0080F0AF40027021708F4202F239586
S1131EE0022F7A3328F079E37D932A95E9F710C01D
S1131EF07D932A9589F60694979567953795179556
S1131F001794E118F10A430B560BC90BD00998F04A
S1131F1023957E9173957A3308F070E37C932013B4
S1131F20B8F77E9170617D9330F0839571E37D9372
S1131F3070E32A95E1F71124EF90FF900F911F9120
S1131F40CF91DF91992787FD90950895FC01059025
S1131F50615070400110D8F7809590958E0F9F1FA7
S1131F600895FB01DC010D900020E9F71197019021
S1131F700D920020E1F70895FB01DC0101900D9220
S1131F800020E1F70895FB01DC014150504030F09E
S1131F908D910190801919F40020B9F7881B990BD1
S1131FA00895FC016150704001900110D8F78095AC
S1131FB090958E0F9F1F08950F931F93CF93DF93D8
S1131FC0FB01238121FD03C08FEF9FEF2CC022FF73
S1131FD016C046815781248135814217530744F442
S1131FE0A081B1819D012F5F3F4F318320838C936A
S1131FF0268137812F5F3F4F3783268314C08B019F
S1132000EC01FB010084F185E02D0995892BE1F6B3
S1132010D80116968D919C911797019617969C93CB
S11320208E931697CE01DF91CF911F910F91089552
S1132030A0E0B0E0EEE1F0E10C94040DAE014B5FE2
S11320405F4FFA0161917191AF0180919106909176
S113205092060E945509E2E00C94200D0F931F9301
S1132060CF93DF93E0919106F0919206238121FFB3
S11320701BC08C01D0E0C0E0F80181918F01609118
S1132080910670919206DB011896ED91FC911997D7
S1132090882331F00995892B79F3DFEFCFEFECCF6B
S11320A08AE00995892B19F08FEF9FEF02C08D2FDD
S11320B09C2FDF91CF911F910F910895AEE0B0E076
S11320C0E4E6F0E10C94020D0D891E8986E08C8310
S11320D01A8309838FEF9FE79E838D83AE01475E4A
S11320E05F4F6F89788DCE0101960E945509EF816B
S11320F0F885E00FF11F10822E96E4E00C941E0D7B
S1132100FA01AA27283051F1203181F1E8946F9324
S11321106E7F6E5F7F4F8F4F9F4FAF4FB1E03ED0CA
S1132120B4E03CD0670F781F891F9A1FA11D680F68
S1132130791F8A1F911DA11D6A0F711D811D911D9B
S1132140A11D20D009F468943F912AE0269F112410
S11321503019305D3193DEF6CF010895462F477074
S1132160405D4193B3E00FD0C9F7F6CF462F4F70CF
S1132170405D4A3318F0495D31FD4052419302D02D
S1132180A9F7EACFB4E0A6959795879577956795D3
S1132190BA95C9F700976105710508959B01AC01D3
S11321A00A2E06945795479537952795BA95C9F7FA
S11321B0620F731F841F951FA01D0895F894FFCF0D
S11321C02F05500561050000000300000000D20740
S11321D0000000006D61632073657420646576659A
S11321E075692000000000000000000000000000ED
S11321F000000000000000000000000000000000DB
S11322000000000000006D6163207365742061703C
S113221070657569200000000000000000000000E7
S113222000000000000000000000000000000000AA
S113223000000000000000006D61632073657420DD
S11322406170706B657920000000000000000000E0
S1132250000000000000000000000000000000007A
S1132260000000000000000000006D61632074782D
S113227020756E636E6620332000000000000000AD
S1132280000000000000000000000000000000004A
S1132290000000000000000000000000000000003A
S11322A0000000000000000000000000000000002A
S11322B0000000000000000000000000000000001A
S11322C00000000000000000000000000000507248
S11322D06F6772616D20656E646564007465737404
S11322E031007465737432003032303235656239CE
S11322F0613731363534303332313038373600498E
S11323006E697420636F6D706C6574652C20465320
S11323104D2072756E6E696E67004E6F74206A6F21
S1132320696E656400497427732074696D65006182
S113233063636570746564006D61635F74785F6F77
S11323406B006D61635F7278200064656E6965641B
S113235000696E76616C69645F706172616D006EB4
S11323606F5F667265655F6368616E0073696C6553
S11323706E740062757379006D61635F706175736B
S11323806564006B6579735F6E6F745F696E697401
S1132390006E6F745F6A6F696E6564006672616D6A
S11323A0655F636F756E7465725F6572725F726587
S11323B06A6F696E5F6E656564656400696E7661F7
S11323C06C69645F646174615F6C656E006D616308
S11323D05F65727200737973207265736574006A45
S11323E06F696E696E67204F5441412E2E2E004D49
S11323F06163206A6F696E20636F6D6D616E643A0C
S113240020006D6163206A6F696E206F74616100E2
S11324104A6F696E20726573756C743A20004D6161
S113242063206A6F696E2041425020636D643A20D4
S1132430006D6163206A6F696E20616270004D6196
S113244063206A6F696E2041425020726573756C17
S1132450743A20004C6F726120696E69742E2E2EBE
S1132460006D6163207265736574202564002573B3
S11324703A2000536574204144523A20006D616350
S11324802073657420616472206F6E006D61632037
S1132490736574206472202564006D616320736524
S11324A074207077726964782025640053657474AD
S11324B0696E6720646379636C6520666F7220635C
S11324C06820303A20006D6163207365742063686E
S11324D020646379636C652030203900536574741B
S11324E0696E6720646379636C6520666F7220632C
S11324F06820313A20006D6163207365742063683D
S113250020646379636C65203120390053657474E9
S1132510696E6720646379636C6520666F722063FB
S11325206820323A20006D6163207365742063680B
S113253020646379636C6520322039004C6F6164D8
S1132540696E67204F5441412073657474696E67E6
S1132550732E2E2E0025733A2020005365742061BB
S113256070706575693A20006D616320736574202D
S11325706170706B6579202A2A2A2A3A20005361F7
S113258076652073657474696E67733A20006D61B3
S113259063207361766500496E69742073756363A3
S11325A06573730033394137383333453641343139
S11325B03141433935434434453337444234373267
S11325C03830354200423335423344424345423980
S11325D03946464641443946383345333536303337
S11325E041413639440032363031313643300031DE
S11325F0353032463941443430423844333939393C
S1132600464341323238383933413444333043005D
S11326103030303441333042303045423946323242
S11326200037304233443537454430303245353352
S11326303300253032582530386C5825303258252F
S10B26403034582530345800F1
S9030000FC
