S01100004C6F52612D6E6F64652E73726563D2
S11300000C94E7000C9404010C9431030C94040147
S11300100C9404010C9404010C9404010C94040148
S11300200C9404010C9404010C9404010C946703D3
S11300300C9404010C9404010C9404010C94040128
S11300400C9404010C9404010C9404010C94040118
S11300500C9404010C9404010C9404010C94040108
S11300600C9404010C9404010C9404010C940401F8
S11300700C9404010C9404010C9404010C940401E8
S11300800C9404010C9404010C9404010C940401D8
S11300900C9404010C9404010C9404010C940401C8
S11300A00C9404010C9404010C9404010C940401B8
S11300B00C9404010C9404010C9404010C9440036A
S11300C00C9404010C9404010C9404016E616E0000
S11300D0696E660000407A10F35A00A0724E180947
S11300E00010A5D4E80000E87648170000E40B549B
S11300F0020000CA9A3B000000E1F505000080966A
S11301009800000040420F000000A086010000009B
S1130110102700000000E803000000006400000055
S113012000000A00000000000100000000002C761E
S1130130D888DC674F0823DFC1DFAE59E1B1B79639
S1130140E5E3E453C63AE651997696E8E6C2842696
S1130150EB898C9B62ED407C6FFCEFBC9C9F40F272
S1130160BAA56FA5F490055A2AF75C936B6CF967EE
S11301706DC11BFCE0E40D47FEF520E6B500D0EDB3
S1130180902E0300943577050080841E080000201B
S11301904E0A000000C80C333333330F986E1283B9
S11301A01141EF8D2114893BE65516CFFEE6DB188D
S11301B0D1844B381BF77C1D901DA4BBE424203252
S11301C084725E228100C9F124ECA1E53D2711244B
S11301D01FBECFEFD8E0DEBFCDBF15E0A0E0B1E099
S11301E0E2E6F3E202C005900D92A035B107D9F71B
S11301F026E0A0E5B5E001C01D92AC32B207E1F7FC
S11302000E9406010C94AF110C94000084B7877F00
S113021084BF0FB6F894A89580916000886180939C
S11302206000109260000FBE2FEF83EC99E0215024
S113023080409040E1F700C000000E94F9018AEA82
S113024092E00E94FF1080E090E00895ACE7B0E0F7
S11302501C92EAE7F0E010828C9180648C93808198
S1130260866080838081806880830895EAE7F0E077
S1130270808180648083808184FFFDCF80917800B9
S113028090917900893E23E0920714F088EE93E080
S11302900895ECE7F0E09081892B80830E94360179
S11302A08AE18A95F1F700C00895892B11F05C98D2
S11302B008955C9A0895CF93DF93EC010E94260180
S11302C05398E9E6F0E0808188608083E99A549A43
S11302D080E090E00E945501CE010E940E060E942B
S11302E08C030E94F2040E9405087894DF91CF9158
S11302F0089581E00E9449010E943601BC0180E01A
S113030090E00E94920D26EB36EC4FE15BE30E94F5
S1130310200E20E030E846ED53E40E94200E20E059
S113032030E04FE753E40E94EA0C20E030E048EC70
S113033052E40E94200E26E636E646E850E40E9487
S1130340EA0C0E945C0D862F0895F894E0E6F0E034
S1130350108288E080830895E3E5F5E001900020B1
S1130360E9F73197BF01635575406D31710548F068
S113037029E030E04DEB55E083E595E00E943F082D
S113038008C029E030E04DEB55E083E595E00E949C
S1130390B6088091BD058232E1F0893939F18131A5
S11303A039F5EDEBF5E02381828190E0A0E0B0E047
S11303B0DC0199278827922B2481822B2181B22B5F
S11303C08093B7059093B805A093B905B093BA0587
S11303D00895EDEBF5E0818190E0982F8827228144
S11303E0822B9093BC058093BB0508950E94A501C0
S11303F00895CF93DF93CDB7DEB763970FB6F89424
S1130400DEBF0FBECDBF109221068CE390E0909327
S1130410BC058093BB05198224E62A831C821B82B7
S11304201E821D821F82188619861A861B861C86C8
S11304301D861E861F86998B888B81EB93E09B8B90
S11304408A8B00E010E06894FF24F1F8EE24E39432
S11304500F2EF3E0DF2EF02D80912106882321F06A
S1130460109221060E94AC0180915005882351F01E
S11304701092500588EB92E00E94FF1086EC92E007
S11304800E94270780915205823089F130F4882335
S113049049F0813009F4D4C0DFCF833081F0843057
S11304A031F1DACFCE010F960E945B018F8588234C
S11304B019F0D0925205D0CFF0925205CDCF289AA0
S11304C00F5F1F4F0330110524F40E94FD058F8731
S11304D005C0043B110514F000E010E08F8588236B
S11304E019F0F0925205B8CFE0925205B5CF289892
S11304F085B18F2585B90E949404092E000CAA0B9E
S1130500BB0B4F81588569857A85840F951FA61F7B
S1130510B71F8F839887A987BA870E94C5044B8524
S11305205C856D857E85480F591F611D711D4B8744
S11305305C876D877E870E9479018A832091BB0541
S11305403091BC05398B288B863428F481E090E007
S11305500E94550106C0803620F080E090E00E94A1
S113056055016091B7057091B8058091B9059091D6
S1130570BA0588889988A12CB12CA50194010E9400
S1130580910C672B682B692B09F057C08091B70534
S11305909091B805A091B905B091BA05892B8A2B21
S11305A08B2B09F44AC0809151058F3F11F41092AE
S11305B051058091510591E0980F909351058983DD
S11305C06F81788589859A85A50194010E94910C93
S11305D03C832B836B857C858D859E85A501940149
S11305E00E94910C3E832D838DB79EB743970FB61F
S11305F0F8949EBF0FBE8DBFADB7BEB7119683E111
S1130600FE01319601900D928A95E1F70E94E60869
S11306109B8B8A8B0E9427078A899B890E94250FBE
S11306201F82188619861A861B861C861D861E86BE
S11306300FB6F894DEBF0FBECDBFE09252050CCFCB
S11306408FE99FE00197F1F700C000000E942208A3
S11306508F85882319F0D0925205FECEF092520570
S1130660FBCE1F920F920FB60F9211248F9381E04D
S1130670809350058F910F900FBE0F901F90189587
S11306801F920F920FB60F9211242F933F934F9303
S11306905F936F937F938F939F93AF93BF93EF93E6
S11306A0FF930E94CA0781E080932106FF91EF9196
S11306B0BF91AF919F918F917F916F915F914F9176
S11306C03F912F910F900FBE0F901F9018951F927E
S11306D00F920FB60F9211248F939F93AF93BF93F2
S11306E08091B7059091B805A091B905B091BA056C
S11306F00196A11DB11D8093B7059093B805A093F1
S1130700B905B093BA05BF91AF919F918F910F90A6
S11307100FBE0F901F9018951092D90080E280931D
S1130720D80008958091DC008823BCF024E630E0F2
S1130730ECEDF0E082E08A95F1F700C02150310938
S11307408081882324F021153105A1F703C02115E8
S1130750310529F41092DC0002C024E630E081E087
S1130760232B09F480E008958091DC0084FF17C0F6
S113077024E630E0ECEDF0E082E08A95F1F700C089
S113078021503109808184FF04C021153105A1F76E
S113079003C02115310529F41092DC0002C024E6BF
S11307A030E081E0232B09F480E00895CF93C82F33
S11307B084EA8093DC000E9492038823E9F080910C
S11307C0D900887F883011F0803199F4C093DB0020
S11307D084E88093DC000E949203882369F090915E
S11307E0D900987F983139F081E0903429F480E081
S11307F003C081E001C080E0CF91089584E9809333
S1130800DC000E94B40308958093DB0084E88093A5
S1130810DC000E9492039091D900987F81E0983285
S113082009F480E0089584EC8093DC000E94920334
S11308308091DB00089584E88093DC000E94920399
S11308408091DB000895FF920F931F93CF93DF9362
S1130850D82FF62E8A010E94D603C82F8F2D0E940E
S11308600404C80F8AE18A95F1F700C08D2F8160D6
S11308700E94D603C80F0E941304F80181830E94CA
S11308801B04F80180830E94FE0381E0C11101C0B2
S113089080E0DF91CF911F910F91FF9008950F9306
S11308A01F93CF93DF93062FD42F152F0E94D603C7
S11308B0C82F802F0E940404C80F8AE18A95F1F79B
S11308C000C0812F0E940404C80F8D2F0E940404CD
S11308D0C80F0E94FE0381E0C11101C080E0DF91D6
S11308E0CF911F910F9108954BE951E060E080E8AA
S11308F00E944F0491E0811101C090E0892F089576
S1130900CF9340E85AE665E080E80E944F04C82F80
S11309104BE951E060E080E80E944F04C80F81E099
S113092009F480E0CF910895CF93DF9300D0CDB741
S1130930DEB70E9474048FEA94E00197F1F700C0D7
S11309400000AE014F5F5F4F62E080E80E94230425
S1130950811111C08A8190E0982F88272981822BE8
S1130960959587959595879595958795813020E1FF
S1130970920730F003C080E090E002C080E090E095
S11309800F900F90DF91CF910895CF93DF9300D014
S1130990CDB7DEB70E9474048FEA94E00197F1F7B3
S11309A000C00000AE014F5F5F4F64E080E80E942A
S11309B0230481110DC02A8130E0322F222789813E
S11309C0282B213090E8390730F4822F932F05C06B
S11309D080E090E002C080E090E00F900F90DF9103
S11309E0CF9108950E94800491E0811101C090E0AC
S11309F0892F08950E949D078DE00E9495078AE043
S1130A000E9495070895CF93DF93EC0142E050E0F4
S1130A1061EF72E00E94A310892B09F48FC048E0B3
S1130A2050E061EE72E0CE010E94A310892B09F41C
S1130A3087C049E050E06AEE72E0CE010E94A31044
S1130A40892B09F47FC047E050E064EF72E0CE01E7
S1130A500E94A310892B39F4BE0183E595E00E941E
S1130A609C1081E186C046E050E06CEF72E0CE015C
S1130A700E94A310892B09F467C04DE050E063E0A5
S1130A8073E0CE010E94A310892B09F45FC04CE0EF
S1130A9050E061E173E0CE010E94A310892B09F4B8
S1130AA057C046E050E06EE173E0CE010E94A3100F
S1130AB0892B09F44FC044E050E065E273E0CE01B5
S1130AC00E94A310892B09F447C04AE050E06AE26F
S1130AD073E0CE010E94A310892B09F43FC04DE0BE
S1130AE050E065E373E0CE010E94A310892BC1F1AD
S1130AF04AE050E063E473E0CE010E94A310892B26
S1130B0089F14FE150E06EE473E0CE010E94A3103E
S1130B10892B51F140E150E06EE673E0CE010E9472
S1130B20A310892B19F147E050E06FE773E0CE0181
S1130B300E94A310892BE1F08AEA1BC080E019C04F
S1130B4080E017C080E115C08AE013C081E011C0C5
S1130B5082E00FC083E00DC084E00BC085E009C0D3
S1130B6086E007C087E005C088E003C081E001C0DB
S1130B708DE0DF91CF910895CF92DF92EF92FF92B3
S1130B801F93CF93DF93CDB7DEB7CA5FD1090FB6FA
S1130B90F894DEBF0FBECDBFCE0101966C01E12CEF
S1130BA0F12C0E948D07182F90E00E94F8101D3040
S1130BB071F40E948D07E1E0F0E0EC0FFD1FEE0DF3
S1130BC0FF1D1082CE0101960E94030507C0F601A5
S1130BD011936F01FFEFEF1AFF0AE3CFC650DF4F07
S1130BE00FB6F894DEBF0FBECDBFDF91CF911F913A
S1130BF0FF90EF90DF90CF90089581E993E00E94F9
S1130C00FA040E94BC05811105C00E94BC05811133
S1130C1003C0089582E2089583E20895EF92FF925B
S1130C200F931F93CF93DF93CDB7DEB7E2970FB641
S1130C30F894DEBF0FBECDBF7C01519A59988FE165
S1130C409EE40197F1F700C000001AB89AE19A9562
S1130C50F1F700C00E94620785E50E949507AFEF97
S1130C60B0E7E2E0A150B040E040E1F700C000008E
S1130C7083E08F9384E68F9383E394E09F938F9331
S1130C808E010F5F1F4F1F930F930E942F11C801F6
S1130C900E94FA040E94BC050F900F900F900F90D1
S1130CA00F900F908111BCC080E494E00E94FA047C
S1130CB00E94BC058111B6C01F9281E08F938FE41E
S1130CC094E09F938F931F930F930E942F11C80159
S1130CD00E94FA040E94BC050F900F900F900F9091
S1130CE00F900F908111A0C01F9281E08F938DE52A
S1130CF094E09F938F931F930F930E942F11C80129
S1130D000E94FA040E94BC050F900F900F900F9060
S1130D100F900F9081118AC08FE694E00E94FA042C
S1130D200E94BC0581110EC085E894E00E94FA047B
S1130D300E94BC05811106C08BE994E00E94FA046C
S1130D400E94BC0580E1E0EBF1E0DE011196019028
S1130D500D928A95E1F7FE01719682E2DF011D9200
S1130D608A95E9F76091080170910901CE01019615
S1130D700E949110CE0101960E94FA040E94BC05C3
S1130D80811156C080E1E2EEF1E0DE01119601909E
S1130D900D928A95E1F7FE01719682E2DF011D92C0
S1130DA08A95E9F760910A0170910B01CE010196D1
S1130DB00E949110CE0101960E94FA040E94BC0583
S1130DC0811136C080E1E4E1F2E0DE011196019088
S1130DD00D928A95E1F7FE01719682E2DF011D9280
S1130DE08A95E9F76091060170910701CE01019699
S1130DF00E949110CE0101960E94FA040E94BC0543
S1130E00811116C08AE294E00E94FA040E94BC0593
S1130E10182F81110DC00E94FD05F701808309C0C0
S1130E2011E007C012E005C013E003C014E001C0E4
S1130E3015E0812FE2960FB6F894DEBF0FBECDBF4A
S1130E40DF91CF911F910F91FF90EF900895CF9371
S1130E50DF93CDB7DEB7C456D1090FB6F894DEBF21
S1130E600FBECDBFBC0190E1E6E4F2E0DE011196D5
S1130E7001900D929A95E1F7FE01719684E5DF01E8
S1130E801D928A95E9F7CE0101960E949110CE0138
S1130E9001960E94FA040E94BC05811108C00E94B8
S1130EA0BC05813129F481E08093210601C02A9A8E
S1130EB0CC59DF4F0FB6F894DEBF0FBECDBFDF9124
S1130EC0CF9108951092C50083E38093C40028E174
S1130ED02093C100E2ECF0E0908196609083109240
S1130EE0CD008093CC002093C900EAECF0E090811F
S1130EF0966090831092D5008093D40088E9809303
S1130F00D100E2EDF0E08081866080838CE091E0A6
S1130F1090932906809328060895E0ECF0E0808100
S1130F208823ECF78091C6000895E0ECF0E090810E
S1130F3095FFFDCF8093C6000895CF93DF93EC0116
S1130F408881882331F021960E9495078991811127
S1130F50FBCFDF91CF910895E0EDF0E0908195FF14
S1130F60FDCF8093D6000895CF93C82F8A3019F40B
S1130F708DE00E94AC078C2F0E94AC0780E090E0CB
S1130F80CF910895E0EDF0E080818823ECF7809123
S1130F90D6000895EF92FF920F931F93CF93DF93A0
S1130FA0CDB7DEB7CA5FD1090FB6F894DEBF0FBE66
S1130FB0CDBFCE0101967C0100E010E00E94C20783
S1130FC08A3079F4E1E0F0E0EC0FFD1FE00FF11F4F
S1130FD01082BE016F5F7F4F83E595E00E949C10F5
S1130FE006C0F70181937F010F5F1F4FE7CFC65003
S1130FF0DF4F0FB6F894DEBF0FBECDBFDF91CF91A8
S11310001F910F91FF90EF9008951092700080E26D
S11310108093B6002FEF89E698E1215080409040FC
S1131020E1F700C000001092B00085E08093B100A9
S1131030E6EBF0E080818371E9F717BA81E08093F1
S113104070000895E3EDF0E080818062808383B7CF
S1131050817F866083BF83B7816083BF889583B7B0
S11310608E7F83BF2FE785EB91E021508040904035
S1131070E1F700C0000080818F7D80830895EF92A6
S1131080FF920F931F93CF93DF93CDB7DEB7E29711
S11310900FB6F894DEBF0FBECDBFDC017901322F4D
S11310A0F701FF27E617F707C8F480E001E010E036
S11310B00C0F1D1F080F111DEA0FFB1F20819181CA
S11310C09053E0E12E9F900D1124F80190833E5F30
S11310D08F5FE32FF0E0E617F70740F36E197F09FF
S11310E07B01F694E794E114F10499F1E0E070E0F7
S11310F0272F30E081E090E08C0F9D1F820F931F1B
S1131100DC018C918A3318F099EA980F02C090EDB3
S1131110980FA2E0B0E0AC0FBD1F2A0F3B1FD9010E
S11311208C918A3318F029EA280F02C020ED280F89
S11311308A010E0F111DB0E19B9FC0011124822B67
S1131140D8018C937E5FEF5F872F90E08E159F050B
S113115078F2E2960FB6F894DEBF0FBECDBFDF91F2
S1131160CF911F910F91FF90EF9008950F931F93CC
S1131170CF93DF93EC01952F2617370708F5C20F9D
S1131180D31F042F152FFE01A881AA3318F0B0E055
S1131190D79702C0B0E0D097E181EA3318F0F0E0CD
S11311A0F79702C0F0E0F097A295A07FEA2BD80150
S11311B0ED938D012E5F3F4F22962617370718F3C4
S11311C0842FDF91CF911F910F9108950F931F9357
S11311D0CF93DF93CDB7DEB78EE190E00E948D0E02
S11311E0082F192F8C858F938B858F938A858F93E6
S11311F089858F9388851F928F938F811F928F93F8
S11312008FE395E09F938F931F930F930E942F1169
S11312100FB6F894DEBF0FBECDBF802F912FDF91A4
S1131220CF911F910F910895A0E1B0E0EAE1F9E0B8
S11312300C94B30C7C011B016A01FC011782168219
S1131240838181FF44C39E012F5F3F4F3901F70122
S11312509381F10193FD859193FF81911F0188236F
S113126009F431C3853239F493FD859193FF81915B
S11312701F01853239F4B70190E00E94BC10560179
S11312806501E5CF10E0512C912CFFE1F915D8F060
S11312908B3279F038F4803279F08332A1F4F92D6D
S11312A0F0612EC08D3261F0803369F4292D216004
S11312B02DC0392D3260932E892D8460982E2AC03A
S11312C0E92DE86015C097FC2DC020ED280F2A30C9
S11312D088F496FE06C03AE0139F200D1124122FC5
S11312E019C08AE0589E200D1124522EE92DE06287
S11312F09E2E10C08E3231F496FCE5C2F92DF064B6
S11313009F2E08C08C3621F4292D2068922E02C00D
S1131310883641F4F10193FD859193FF81911F017A
S11313208111B3CF9BEB980F933020F4992D9061EA
S1131330805E07C09BE9980F933008F066C1992D31
S11313409F7E96FF16E09F73992E853619F490645C
S1131350992E08C0863621F4392F3068932E02C0A6
S11313601111115097FE07C01C3350F444244394C8
S1131370410E27E00BC0183038F027E017E005C015
S113138027E09CE3492E02C0212F412C560184E022
S1131390A80EB11CF6016081718182819381042DB4
S11313A0A3010E94AE0F6C01F981FC87F0FF02C01B
S11313B0F3FF06C091FC06C092FE06C000E205C021
S11313C00DE203C00BE201C000E08C858C7019F0C3
S11313D001115AC29BC297FE10C04C0CFC85F4FF4D
S11313E004C08A81813309F44A94141474F528E002
S11313F0241578F588E0482E2CC096FC2AC0812F4D
S113140090E08C159D059CF03CEFC3163FEFD3068E
S113141074F0892D8068982E0AC0E2E0F0E0EC0FA9
S1131420FD1FE10FF11D8081803319F4115011115A
S1131430F4CF97FE0EC044244394410E812F90E0D4
S1131440C816D9062CF41C1904C04424439401C0C2
S113145010E097FE06C01C141D0434F4C601019666
S113146005C085E090E002C081E090E001110196A2
S1131470112331F0212F30E02F5F3F4F820F931F54
S1131480252D30E08217930714F4581A01C0512C0B
S1131490892D897049F4552039F0B70180E290E034
S11314A00E94BC105A94F7CF002329F0B701802F73
S11314B090E00E94BC1093FC09C0552039F0B7019C
S11314C080E390E00E94BC105A94F7CF97FE4CC082
S11314D04601D7FE02C0812C912CC60188199909B6
S11314E0F301E80FF91FFE87ED87960124193109EE
S11314F0388B2F87012F10E01195019511093FEFCB
S11315008316930629F4B7018EE290E00E94BC1082
S1131510C814D9044CF08F8598898815990524F44A
S1131520ED85FE85818101C080E3F1E08F1A910889
S11315302D853E852F5F3F4F3E872D878016910670
S11315402CF0B70190E00E94BC10D9CFC814D90484
S113155041F49A81963320F4953319F43C8534FF91
S113156081E3B70190E04EC08A81813319F09C85F4
S11315709F7E9C87B70190E00E94BC10111105C0AA
S113158094FC18C085E690E017C0B7018EE290E0A5
S11315900E94BC101E5F82E001E0080FF301E80F17
S11315A0F11D8081B70190E00E94BC10802F0113CF
S11315B0F3CFE6CF85E490E0B7010E94BC10D7FCDE
S11315C006C0C114D10441F4EC85E4FF05C0D194F4
S11315D0C194D1088DE201C08BE2B70190E00E9472
S11315E0BC1080E32AE0C216D1042CF08F5FFAE02D
S11315F0CF1AD108F7CFB70190E00E94BC10B70111
S1131600C601C0960E94BC1054C1833631F08337A2
S113161079F0833509F056C020C0560132E0A30E9C
S1131620B11CF6018081898301E010E0630112C0DE
S11316305601F2E0AF0EB11CF601C080D18096FED7
S113164003C0612F70E002C06FEF7FEFC6010E94FC
S1131650B1108C01F92DFF7714C0560122E0A20EBF
S1131660B11CF601C080D18096FE03C0612F70E0EA
S113167002C06FEF7FEFC6010E9486108C01F92D26
S1131680F0689F2EF3FD1AC0852D90E00817190706
S1131690A8F4B70180E290E00E94BC105A94F4CF01
S11316A0F60197FC859197FE81916F01B70190E057
S11316B00E94BC1051105A940150110901151105D2
S11316C079F7F7C0843611F0893661F5560197FE33
S11316D009C024E0A20EB11CF601608171818281EF
S11316E093810AC0F2E0AF0EB11CF60160817181F2
S11316F0072E000C880B990BF92DFF769F2E97FF70
S113170009C090958095709561957F4F8F4F9F4F3D
S1131710F0689F2E2AE030E0A3010E945111C82EE8
S1131720C6183FC0092D853721F40F7E2AE030E02A
S11317301DC0097F8F3691F018F4883559F0C3C065
S1131740803719F0883711F0BEC0006104FF09C06A
S1131750046007C094FE08C0066006C028E030E0BC
S113176005C020E130E002C020E132E0560107FF6D
S113177009C084E0A80EB11CF601608171818281E8
S1131780938108C0F2E0AF0EB11CF6016081718153
S113179080E090E0A3010E945111C82EC6180F7773
S11317A0902E96FE0BC0092D0E7FC11650F494FEA8
S11317B00AC092FC08C0092D0E7E05C0DC2C092D40
S11317C003C0DC2C01C0D12E04FF0DC0FE01EC0DC2
S11317D0F11D8081803311F4097E09C002FF06C027
S11317E0D394D39404C0802F867809F0D39403FD56
S11317F011C000FF06C01C2DD51480F4150D1D1951
S11318000DC0D51458F4B70180E290E00E94BC10DA
S1131810D394F7CFD51410F45D1801C0512C04FFF4
S113182010C0B70180E390E00E94BC1002FF17C013
S113183001FD03C088E790E002C088E590E0B701AD
S11318400CC0802F867859F001FF02C08BE201C0E2
S113185080E207FD8DE2B70190E00E94BC10C11642
S113186038F4B70180E390E00E94BC101150F7CF28
S1131870CA94F301EC0DF11D8081B70190E00E9440
S1131880BC10C110F5CF15C0F4E0F51560F584E087
S1131890581A93FE1FC0011127C02C8523FF2AC0AC
S11318A00CEC10E0392D3071932EF80184918111E4
S11318B024C0552009F4E4CCB70180E290E00E94F2
S11318C0BC105A94F6CFF7018681978126C08FEF1A
S11318D09FEF23C0B70180E290E00E94BC105A94AD
S11318E05110F8CFD8CF512CB701802F90E00E942F
S11318F0BC10D3CF00ED10E0D5CF91108052B701CA
S113190090E00E94BC100F5F1F4FCFCF23E025153E
S113191010F483E0BDCF512CC0CF6096E2E10C946B
S1131920CF0CA1E21A2EAA1BBB1BFD010DC0AA1FDE
S1131930BB1FEE1FFF1FA217B307E407F50720F034
S1131940A21BB30BE40BF50B661F771F881F991FAF
S11319501A9469F760957095809590959B01AC01F8
S1131960BD01CF0108952F923F924F925F926F92E3
S11319707F928F929F92AF92BF92CF92DF92EF921B
S1131980FF920F931F93CF93DF93CDB7DEB7CA1B9C
S1131990DB0B0FB6F894DEBF0FBECDBF09942A88C7
S11319A0398848885F846E847D848C849B84AA846F
S11319B0B984C884DF80EE80FD800C811B81AA81FC
S11319C0B981CE0FD11D0FB6F894DEBF0FBECDBFC7
S11319D0ED0108950E94FE0C0C94E60D0E94DF0DAB
S11319E058F00E94D80D40F029F45F3F29F00C9480
S11319F0CF0D51110C941A0E0C94D50D0E94F70DB5
S1131A0068F39923B1F3552391F3951B550BBB2729
S1131A10AA2762177307840738F09F5F5F4F220F6E
S1131A20331F441FAA1FA9F335D00E2E3AF0E0E865
S1131A3032D091505040E695001CCAF72BD0FE2FAF
S1131A4029D0660F771F881FBB1F26173707480743
S1131A50AB07B0E809F0BB0B802DBF01FF279358FB
S1131A605F4F3AF09E3F510578F00C94CF0D0C94E3
S1131A701A0E5F3FE4F3983ED4F386957795679505
S1131A80B795F7959F5FC9F7880F911D9695879530
S1131A9097F90895E1E0660F771F881FBB1F62174F
S1131AA073078407BA0720F0621B730B840BBA0B0D
S1131AB0EE1F88F7E09508950E94630D6894B111B4
S1131AC00C941A0E08950E94FF0D88F09F5798F009
S1131AD0B92F9927B751B0F0E1F0660F771F881F2F
S1131AE0991F1AF0BA95C9F714C0B13091F00E9449
S1131AF0190EB1E008950C94190E672F782F8827DA
S1131B00B85F39F0B93FCCF3869577956795B3956F
S1131B10D9F73EF490958095709561957F4F8F4FDE
S1131B209F4F0895E89409C097FB3EF490958095E3
S1131B30709561957F4F8F4F9F4F9923A9F0F92F8F
S1131B4096E9BB279395F695879577956795B7950D
S1131B50F111F8CFFAF4BB0F11F460FF1BC06F5FF3
S1131B607F4F8F4F9F4F16C0882311F096E911C005
S1131B70772321F09EE8872F762F05C0662371F026
S1131B8096E8862F70E060E02AF09A95660F771F3A
S1131B90881FDAF7880F9695879597F9089597F92E
S1131BA09F6780E870E060E008959FEF80EC0895FF
S1131BB000240A9416161706180609060895002428
S1131BC00A9412161306140605060895092E0394A2
S1131BD0000C11F4882352F0BB0F40F4BF2B11F416
S1131BE060FF04C06F5F7F4F8F4F9F4F089557FD75
S1131BF09058440F551F59F05F3F71F04795880F77
S1131C0097FB991F61F09F3F79F08795089512160D
S1131C1013061406551FF2CF4695F1DF08C01616B9
S1131C2017061806991FF1CF86957105610508946A
S1131C300895E894BB2766277727CB0197F9089581
S1131C400E94330E0C94E60D0E94D80D38F00E94C9
S1131C50DF0D20F0952311F00C94CF0D0C94D50DCD
S1131C6011240C941A0E0E94F70D70F3959FC1F382
S1131C70950F50E0551F629FF001729FBB27F00D36
S1131C80B11D639FAA27F00DB11DAA1F649F66278B
S1131C90B00DA11D661F829F2227B00DA11D621FDA
S1131CA0739FB00DA11D621F839FA00D611D221F94
S1131CB0749F3327A00D611D231F849F600D211D78
S1131CC0822F762F6A2F11249F5750409AF0F1F0FB
S1131CD088234AF0EE0FFF1FBB1F661F771F881F64
S1131CE091505040A9F79E3F510580F00C94CF0DC0
S1131CF00C941A0E5F3FE4F3983ED4F386957795DF
S1131D006795B795F795E7959F5FC1F7FE2B880F09
S1131D10911D9695879597F908950F931F93CF93E7
S1131D20DF938230910510F482E090E0E091240684
S1131D30F091250620E030E0A0E0B0E0309719F102
S1131D40408151810281138148175907C8F08417D3
S1131D50950769F4109731F012960C931297139625
S1131D601C9327C0009324061093250622C0211536
S1131D70310519F04217530718F49A01BD01EF0118
S1131D80DF01F801DBCF21153105F9F0281B390BF0
S1131D902430310580F48A819B816115710521F01D
S1131DA0FB019383828304C09093250680932406C9
S1131DB0FE01329644C0FE01E20FF31F819391931A
S1131DC022503109398328833AC020912206309168
S1131DD02306232B41F42091020130910301309317
S1131DE02306209322062091000130910101211540
S1131DF0310541F42DB73EB74091040150910501DE
S1131E00241B350BE0912206F0912306E217F30719
S1131E10A0F42E1B3F0B2817390778F0AC014E5F56
S1131E205F4F2417350748F04E0F5F1F509323066A
S1131E30409322068193919302C0E0E0F0E0CF0149
S1131E40DF91CF911F910F910895CF93DF93009766
S1131E5009F481C0FC01329713821282A0912406F6
S1131E60B0912506109781F420813181820F931F50
S1131E7020912206309123062817390751F5F09353
S1131E802306E093220667C0ED0120E030E0CE1780
S1131E90DF0740F44A815B819E0141155105F1F051
S1131EA0EA01F5CFD383C28340815181840F951F0A
S1131EB0C817D90759F488819981840F951F029610
S1131EC0918380838A819B81938382832115310549
S1131ED029F4F0932506E09324063DC0E901FB8331
S1131EE0EA8349915991C40FD51FEC17FD0761F49A
S1131EF080819181840F951F0296E90199838883DB
S1131F00828193819B838A83E0E0F0E012968D9135
S1131F109C911397009719F0FD01DC01F7CF8D9187
S1131F209C9111979D012E5F3F4F820F931F20912B
S1131F302206309123062817390769F4309729F4CB
S1131F40109225061092240602C013821282B093C6
S1131F502306A0932206DF91CF910895283008F03C
S1131F6027E03327DA01990F311D87FD9160009630
S1131F706105710539F432602E5F3D9330E32A9593
S1131F80E1F708959F3F30F080387105610509F04D
S1131F903C5F3C5F3D93913008F08068911DDF9376
S1131FA0CF931F930F93FF92EF92192F987F9695DB
S1131FB0E92F96959695E90FFF27E25DFE4F992745
S1131FC03327EE24FF24A701E70105900894079422
S1131FD028F4360FE71EF81E491F511D660F771FA0
S1131FE0881F991F0694A1F70590079428F4E70E1B
S1131FF0F81E491F561FC11D770F881F991F661FA2
S11320000694A1F70590079428F4F80E491F561F6B
S1132010C71FD11D880F991F661F771F0694A1F74C
S11320200590079420F4490F561FC71FD81F990F16
S1132030661F771F881F0694A9F78491109517705F
S113204041F0D695C79557954795F794E7941A9517
S1132050C1F7E4EDF0E06894159015913591659120
S1132060959105907FE27395E118F10A430B560BA5
S1132070C90BD009C0F7E10CF11E431F561FC91F3D
S1132080D01D7EF4703311F48A95E6CFE8940150A4
S113209030F0080F0AF40027021708F4202F2395C4
S11320A0022F7A3328F079E37D932A95E9F710C05B
S11320B07D932A9589F60694979567953795179594
S11320C01794E118F10A430B560BC90BD00998F089
S11320D023957E9173957A3308F070E37C932013F3
S11320E0B8F77E9170617D9330F0839571E37D93B1
S11320F070E32A95E1F71124EF90FF900F911F915F
S1132100CF91DF91992787FD90950895FC01059063
S1132110615070400110D8F7809590958E0F9F1FE5
S11321200895FB01DC010D900020E9F7119701905F
S11321300D920020E1F70895FB01DC0101900D925E
S11321400020E1F70895FB01DC014150504030F0DC
S11321508D910190801919F40020B9F7881B990B0F
S11321600895FC016150704001900110D8F78095EA
S113217090958E0F9F1F08950F931F93CF93DF9316
S1132180FB01238121FD03C08FEF9FEF2CC022FFB1
S113219016C046815781248135814217530744F480
S11321A0A081B1819D012F5F3F4F318320838C93A8
S11321B0268137812F5F3F4F3783268314C08B01DD
S11321C0EC01FB010084F185E02D0995892BE1F6F2
S11321D0D80116968D919C911797019617969C930A
S11321E08E931697CE01DF91CF911F910F91089591
S11321F060912806709129060E94BC1008950F93DF
S11322001F93CF93DF93E0912806F0912906238151
S113221021FF1BC08C01D0E0C0E0F80181918F0147
S11322206091280670912906DB011896ED91FC91C6
S11322301997882331F00995892B79F3DFEFCFEFD4
S1132240ECCF8AE00995892B19F08FEF9FEF02C03C
S11322508D2F9C2FDF91CF911F910F910895AEE0A8
S1132260B0E0E5E3F1E10C94C10C0D891E8986E030
S11322708C831A8309838FEF9FE79E838D83AE013E
S1132280475E5F4F6F89788DCE0101960E941409D5
S1132290EF81F885E00FF11F10822E96E4E00C9494
S11322A0DD0CFA01AA27283051F1203181F1E8949C
S11322B06F936E7F6E5F7F4F8F4F9F4FAF4FB1E035
S11322C03ED0B4E03CD0670F781F891F9A1FA11D30
S11322D0680F791F8A1F911DA11D6A0F711D811D31
S11322E0911DA11D20D009F468943F912AE0269FF6
S11322F011243019305D3193DEF6CF010895462F55
S11323004770405D4193B3E00FD0C9F7F6CF462F35
S11323104F70405D4A3318F0495D31FD405241939E
S113232002D0A9F7EACFB4E0A6959795879577955B
S11323306795BA95C9F700976105710508959B01E2
S1132340AC010A2E06945795479537952795BA956B
S1132350C9F7620F731F841F951FA01D0895F89479
S1052360FFCFA9
S113236200002C062000FC041D052E0500000003BD
S113237200000000B407000000006D616320736573
S11323827420617070736B65792000000000000096
S11323920000000000000000000000000000000037
S11323A20000000000000000000000006D616320D6
S11323B2736574206E776B736B657920000000007F
S11323C20000000000000000000000000000000007
S11323D200000000000000000000000000006D6129
S11323E263207365742064657661646472200000FE
S11323F200000000000000000000000000000000D7
S113240200000000000000000000000000000000C6
S11324126D61632073657420646576657569200057
S113242200000000000000000000000000000000A6
S11324320000000000000000000000000000000096
S113244200006D6163207365742061707065756945
S11324522000000000000000000000000000000056
S11324620000000000000000000000000000000066
S1132472000000006D616320736574206170706BED
S11324826579200000000000000000000000000048
S11324920000000000000000000000000000000036
S11324A20000000000006D616320747820756E6383
S11324B26E662033200000000000000000000000CF
S11324C20000000000000000000000000000000006
S11324D200000000000000000000000000000000F6
S11324E200000000000000000000000000000000E6
S11324F200000000000000000000000000000000D6
S11325020000000000000000000050726F6772615A
S11325126D20656E646564005472616E736D6974D6
S113252220746573740030323534303332313038CC
S11325323736006D616320726573657420383638EE
S1132542006163636570746564006D61635F7478D0
S11325525F6F6B006D61635F7278200064656E6902
S1132562656400696E76616C69645F706172616D45
S1132572006E6F5F667265655F6368616E007369A2
S11325826C656E740062757379006D61635F70616E
S113259275736564006B6579735F6E6F745F696EE2
S11325A26974006E6F745F6A6F696E656400667247
S11325B2616D655F636F756E7465725F6572725F7C
S11325C272656A6F696E5F6E656564656400696EE3
S11325D276616C69645F646174615F6C656E006DE1
S11325E261635F65727200737973207265736574D7
S11325F2006D6163206A6F696E206F746161004DC2
S11326026163206A6F696E2041425020636D643AAF
S113261220006D6163206A6F696E20616270004DF3
S11326226163206A6F696E2041425020726573753E
S11326326C743A20004C6F6164696E6720414250A9
S11326422073657474696E67732E2E2E005365743D
S113265220617070534B65793A2000536574206E83
S1132662776B534B65793A20005365742064657621
S1132672616464723A2000536176652041425020BD
S113268273657474696E673A20006D6163207361C7
S11326927665006D6163207265736574202564003C
S11326A26D61632073657420616472206F6E006DC6
S11326B2616320736574206472202564006D616314
S11326C22073657420707772696478202564006DC4
S11326D261632073657420636820646379636C6545
S11326E220302039006D6163207365742063682093
S11326F2646379636C6520312039006D61632073F2
S1132702657420636820646379636C6520322039C0
S1132712003339413738333345364134313141435B
S1132722393543443445333744423437323830350B
S113273242004233354233444243454239394646E4
S113274246414439463833453335363033414136D0
S1132752394400323630313136433000323031358B
S113276239413342344344433742363444343942A0
S113277239304234433846384646434200303030DA
S113278234413330423030454239463131003730FA
S113279242334435374544303032453533330025EE
S11327A230325825303258253034582530345800C8
S9030000FC
