:100000000C94E7000C9404010C943E030C9404013E
:100010000C9404010C9404010C9404010C9404014C
:100020000C9404010C9404010C9404010C947403CA
:100030000C9404010C9404010C9404010C9404012C
:100040000C9404010C9404010C9404010C9404011C
:100050000C9404010C9404010C9404010C9404010C
:100060000C9404010C9404010C9404010C940401FC
:100070000C9404010C9404010C9404010C940401EC
:100080000C9404010C9404010C9404010C940401DC
:100090000C9404010C9404010C9404010C940401CC
:1000A0000C9404010C9404010C9404010C940401BC
:1000B0000C9404010C9404010C9404010C944D0361
:1000C0000C9404010C9404010C9404016E616E0004
:1000D000696E660000407A10F35A00A0724E18094B
:1000E0000010A5D4E80000E87648170000E40B549F
:1000F000020000CA9A3B000000E1F505000080966E
:100100009800000040420F000000A086010000009F
:10011000102700000000E803000000006400000059
:1001200000000A00000000000100000000002C7622
:10013000D888DC674F0823DFC1DFAE59E1B1B7963D
:10014000E5E3E453C63AE651997696E8E6C284269A
:10015000EB898C9B62ED407C6FFCEFBC9C9F40F276
:10016000BAA56FA5F490055A2AF75C936B6CF967F2
:100170006DC11BFCE0E40D47FEF520E6B500D0EDB7
:10018000902E0300943577050080841E080000201F
:100190004E0A000000C80C333333330F986E1283BD
:1001A0001141EF8D2114893BE65516CFFEE6DB1891
:1001B000D1844B381BF77C1D901DA4BBE424203256
:1001C00084725E228100C9F124ECA1E53D2711244F
:1001D0001FBECFEFD8E0DEBFCDBF15E0A0E0B1E09D
:1001E000E6E2F3E202C005900D92AE3DB107D9F709
:1001F00026E0AEEDB5E001C01D92A63BB207E1F7E7
:100200000E9406010C9491110C94000084B7877F22
:1002100084BF0FB6F894A8958091600088618093A0
:100220006000109260000FBE2FEF83EC99E0215028
:1002300080409040E1F700C000002A9A0E94FC0133
:100240008EE092E00E94E11080E090E00895ACE73B
:10025000B0E01C92EAE7F0E010828C9180648C930D
:100260008081866080838081806880830895EAE74A
:10027000F0E0808180648083808184FFFDCF809165
:10028000780090917900893E23E0920714F088EE7F
:1002900093E00895ECE7F0E09081892B80830E9441
:1002A00037018AE18A95F1F700C00895892B11F092
:1002B0005C9808955C9A0895CF93DF93EC010E94B7
:1002C00027015398E9E6F0E0808188608083E99A0D
:1002D000549A80E090E00E945601CE010E94AC0644
:1002E0000E9499030E9474050E9401097894DF918D
:1002F000CF91089581E00E944A010E943701BC011C
:1003000080E090E00E94860E26EB36EC4FE15BE346
:100310000E94140F20E030E846ED53E40E94140FD1
:1003200020E030E04FE753E40E94DE0D20E030E0B3
:1003300048EC52E40E94140F26E636E646E850E404
:100340000E94DE0D0E94500E862F0895F894E0E67C
:10035000F0E0108288E080830895E1EEF5E00190FE
:100360000020E9F73197BF01615E75406D3171057D
:1003700048F029E030E04BE456E081EE95E00E9441
:100380003B0908C029E030E04BE456E081EE95E0FF
:100390000E94B20980914B068232E9F0893949F115
:1003A000813149F52A9AEBE4F6E02381828190E0DD
:1003B000A0E0B0E0DC0199278827922B2481822BD2
:1003C0002181B22B8093450690934606A093470661
:1003D000B093480608952A9AEBE4F6E0818190E014
:1003E000982F88272281822B90934A068093490672
:1003F00008950E94A6010895CF93DF93CDB7DEB78D
:1004000063970FB6F894DEBF0FBECDBF1092AF0654
:100410008EE190E090934A0680934906198224E683
:100420002A831C821B821E821D821F8218861986C7
:100430001A861B861C861D861E861F86998B888BB6
:1004400086EC95E09B8B8A8B00E010E06894EE24AC
:10045000E1F8FF24F3940F2EF3E0DF2EF02D8091CE
:10046000AF06882321F01092AF060E94AD01809163
:10047000DE05882351F01092DE058CE192E00E94A7
:10048000E1108AE292E00E9424088091E005823027
:1004900091F130F4882349F0813009F4DEC0DFCFD8
:1004A0008330A1F0843039F1DACFCE010F960E946B
:1004B0005C0187E392E00E94E1108F85882319F0A8
:1004C000D092E005CCCFE092E005C9CF82E592E082
:1004D0000E94E1100F5F1F4F0330110524F40E94AA
:1004E00087068F8705C0043B110514F000E010E07B
:1004F000F092E005B4CF85B18E2585B90E94F50450
:10050000092E000CAA0BBB0B4F81588569857A8593
:10051000840F951FA61FB71F8F839887A987BA8757
:100520000E9437054B855C856D857E85480F591F78
:10053000611D711D4B875C876D877E870E947A01E4
:100540008A832091490630914A06398B288B86345C
:1005500028F480E090E00E94560106C0803620F02A
:1005600081E090E00E945601609145067091460638
:1005700080914706909148062889398940E050E0EB
:100580000E94850D672B682B692B09F063C0809151
:10059000450690914606A0914706B0914806892BE2
:1005A0008A2B8B2B09F456C08DE592E00E94E11056
:1005B0008091DF058F3F11F41092DF058091DF05F8
:1005C00091E0980F9093DF05898388889988A12C02
:1005D000B12C6F81788589859A85A50194010E9447
:1005E000850D3C832B836B857C858D859E85A50140
:1005F00094010E94850D3E832D838DB79EB743974E
:100600000FB6F8949EBF0FBE8DBFADB7BEB71196A3
:1006100083E1FE01319601900D928A95E1F70E94E7
:10062000E2099B8B8A8B8FE19EE40197F1F700C072
:1006300000008A899B890E9424081F8218861986D7
:100640001A861B861C861D861E860FB6F894DEBF92
:100650000FBECDBFF092E00502CF8FE99FE001977A
:10066000F1F700C000000E941E098F85882319F051
:10067000D092E005F4CEE092E005F1CE1F920F9209
:100680000FB60F9211248F9381E08093DE058F9136
:100690000F900FBE0F901F9018951F920F920FB6DC
:1006A0000F9211242F933F934F935F936F937F93F8
:1006B0008F939F93AF93BF93EF93FF930E94BD08D7
:1006C00081E08093AF06FF91EF91BF91AF919F9131
:1006D0008F917F916F915F914F913F912F910F90EB
:1006E0000FBE0F901F9018951F920F920FB60F928A
:1006F00011248F939F93AF93BF9380914506909160
:100700004606A0914706B09148060196A11DB11D6D
:100710008093450690934606A0934706B0934806FB
:10072000BF91AF919F918F910F900FBE0F901F902F
:1007300018951092D90080E28093D8000895809196
:10074000DC008823BCF024E630E0ECEDF0E082E051
:100750008A95F1F700C0215031098081882324F067
:1007600021153105A1F703C02115310529F4109297
:10077000DC0002C024E630E081E0232B09F480E0B5
:1007800008958091DC0084FF17C024E630E0ECED92
:10079000F0E082E08A95F1F700C0215031098081B4
:1007A00084FF04C021153105A1F703C021153105CF
:1007B00029F41092DC0002C024E630E081E0232B13
:1007C00009F480E00895CF93C82F84EA8093DC0079
:1007D0000E949F038823E9F08091D900887F8830A8
:1007E00011F0803199F4C093DB0084E88093DC0041
:1007F0000E949F03882369F09091D900987F9831D7
:1008000039F081E0903429F480E003C081E001C038
:1008100080E0CF91089584E98093DC000E94C103B9
:1008200008958093DB0084E88093DC000E949F039E
:100830009091D900987F81E0983209F480E0089582
:1008400084EC8093DC000E949F038091DB0008957C
:1008500084E88093DC000E949F038091DB00089570
:10086000FF920F931F93CF93DF93D82FF62E8A0119
:100870000E94E303C82F8F2D0E941104C80F8AE144
:100880008A95F1F700C08D2F81600E94E303C80FA5
:100890000E942004F80181830E942804F8018083CB
:1008A0000E940B0481E0C11101C080E0DF91CF9173
:1008B0001F910F91FF9008950F931F93CF93DF9394
:1008C000062FD42F152F0E94E303C82F802F0E94DC
:1008D0001104C80F8AE18A95F1F700C0812F0E94A8
:1008E0001104C80F8D2F0E941104C80F0E940B0421
:1008F00081E0C11101C080E0DF91CF911F910F9184
:1009000008954BE951E060E080E80E945C0491E0CA
:10091000811101C090E0892F08951F93CF93DF9339
:1009200000D0CDB7DEB7AE014F5F5F4F65E080E826
:100930000E943004182F8A8190E0982F88272981FF
:10094000822B9F938F9387E692E09F938F930E94D1
:10095000CB1081E00F900F900F900F90111101C0FC
:1009600080E00F900F90DF91CF911F9108951F931A
:10097000CF93DF9300D0CDB7DEB7AE014F5F5F4FAF
:1009800060E080E80E943004182F8A8190E0982F60
:1009900088272981822B9F938F9386E792E09F93EC
:1009A0008F930E94CB1081E00F900F900F900F90CB
:1009B000111101C080E00F900F90DF91CF911F9136
:1009C0000895CF9340E85AE665E080E80E945C0411
:1009D000C82F4BE951E060E080E80E945C04C80F3A
:1009E00081E009F480E0CF9108950F931F93CF9396
:1009F000DF9300D0CDB7DEB70E9481048FEA94E088
:100A00000197F1F700C00000AE014F5F5F4F62E059
:100A100080E80E94300481111DC00A8110E0102F6F
:100A200000278981082B159507951595079515952C
:100A300007951F930F9386E892E09F938F930E94F0
:100A4000CB100F900F900F900F90013090E119078D
:100A500030F003C000E010E002C000E010E0C80188
:100A60000F900F90DF91CF911F910F9108950F93E9
:100A70001F93CF93DF9300D0CDB7DEB70E948104E0
:100A80008FEA94E00197F1F700C00000AE014F5FDC
:100A90005F4F64E080E80E943004811119C00A8130
:100AA00010E0102F00278981082B1F930F9380E9F6
:100AB00092E09F938F930E94CB100F900F900F9016
:100AC0000F90013090E8190730F4802F912F05C066
:100AD00080E090E002C080E090E00F900F90DF9106
:100AE000CF911F910F910895CF930E94E104C82FD9
:100AF000882331F08AE992E00E94E110C1E004C04D
:100B00000E948D040E94B7048C2FCF9108950E94FB
:100B100090088DE00E9488088AE00E948808089565
:100B2000CF93DF93EC0142E050E068EC72E00E946A
:100B30007610892B09F48FC048E050E068EB72E032
:100B4000CE010E947610892B09F487C049E050E05D
:100B500061EC72E0CE010E947610892B09F47FC00F
:100B600047E050E06BEC72E0CE010E947610892BDA
:100B700039F4BE0181EE95E00E946F1081E186C0DC
:100B800046E050E063ED72E0CE010E947610892BC2
:100B900009F467C04DE050E06AED72E0CE010E94BA
:100BA0007610892B09F45FC04CE050E068EE72E0EB
:100BB000CE010E947610892B09F457C046E050E020
:100BC00065EF72E0CE010E947610892B09F44FC0C8
:100BD00044E050E06CEF72E0CE010E947610892B69
:100BE00009F447C04AE050E061E073E0CE010E94A2
:100BF0007610892B09F43FC04DE050E06CE073E0C3
:100C0000CE010E947610892BC1F14AE050E06AE1E2
:100C100073E0CE010E947610892B89F14FE150E0FC
:100C200065E273E0CE010E947610892B51F140E11C
:100C300050E065E473E0CE010E947610892B19F133
:100C400047E050E066E573E0CE010E947610892B04
:100C5000E1F08AEA1BC080E019C080E017C080E1A3
:100C600015C08AE013C081E011C082E00FC083E0AC
:100C70000DC084E00BC085E009C086E007C087E0B6
:100C800005C088E003C081E001C08DE0DF91CF9115
:100C90000895EF92FF920F931F93CF93DF93CDB7F9
:100CA000DEB7CA5FD1090FB6F894DEBF0FBECDBF65
:100CB000CE0101967C0100E010E00E9480088D309A
:100CC00091F40E948008E1E0F0E0EC0FFD1FE00FDE
:100CD000F11F1082CE0101960E94E110CE01019613
:100CE0000E94900506C0F70181937F010F5F1F4F9F
:100CF000E4CFC650DF4F0FB6F894DEBF0FBECDBFB6
:100D0000DF91CF911F910F91FF90EF90089588E6AA
:100D100093E00E94E11088E793E09F938F930E94F5
:100D2000CB108BE893E00E9487050E9449060F9044
:100D30000F9081110DC089E993E09F938F930E94DA
:100D4000CB100E9449060F900F90811103C00895A7
:100D500082E2089583E20895EF92FF920F931F932A
:100D6000CF93DF93CDB7DEB7E2970FB6F894DEBF2F
:100D70000FBECDBF7C01519A59988FE19EE4019737
:100D8000F1F700C000001AB89AE19A95F1F700C097
:100D90000E94600885E50E948808AFEFB0E7E2E0B6
:100DA000A150B040E040E1F700C000008DED93E0BD
:100DB0000E94E11083E08F9384E68F938AEE93E0A4
:100DC0009F938F938E010F5F1F4F1F930F930E946E
:100DD00011111F930F9387EF93E09F938F930E94BE
:100DE000CB10C8010E9487050E9449060FB6F894EF
:100DF000DEBF0FBECDBF811110C18CEF93E09F937A
:100E00008F930E94CB1086E094E00E9487050E9499
:100E100049060F900F90811102C11F9281E08F93BC
:100E200085E194E09F938F931F930F930E9411117C
:100E30001F930F9387EF93E09F938F930E94CB10A4
:100E4000C8010E9487050E9449060FB6F894DEBFCC
:100E50000FBECDBF8111E5C01F9281E08F9383E269
:100E600094E09F938F931F930F930E9411111F93F0
:100E70000F9387EF93E09F938F930E94CB10C8014D
:100E80000E9487050E9449060FB6F894DEBF0FBE88
:100E9000CDBF8111C8C085E394E09F938F930E94DA
:100EA000CB108FE494E00E9487050E9449060F90C2
:100EB0000F9081111EC085E694E09F938F930E944E
:100EC000CB108FE794E00E9487050E9449060F909F
:100ED0000F9081110EC085E994E09F938F930E943B
:100EE000CB108FEA94E00E9487050E9449060F907C
:100EF0000F9085EC94E00E94E11080E1E4E1F1E0E4
:100F00008E010F5F1F4FD80101900D928A95E1F776
:100F1000FE01719682E2DF011D928A95E9F76091E8
:100F2000020170910301C8010E9464101F930F9386
:100F30008EED94E09F938F930E94CB10C8010E9486
:100F400087050E9449060F900F900F900F90811116
:100F50006CC084EE94E09F938F930E94CB1080E14D
:100F6000E6E4F1E0D80101900D928A95E1F7FE01E7
:100F7000719682E2DF011D928A95E9F76091040182
:100F800070910501C8010E946410C8010E94870584
:100F90000E9449060F900F90811147C080E1E8E759
:100FA000F1E0D80101900D928A95E1F7FE0171966A
:100FB00082E2DF011D928A95E9F76091000170914C
:100FC0000101C8010E94641081EF94E09F938F9308
:100FD0000E94CB10C8010E9487050E9449060F900D
:100FE0000F90811122C087E095E09F938F930E941C
:100FF000CB1087E195E00E9487050E944906182FD3
:101000000F900F90811111C00E948706F701808315
:1010100080E295E00E94E11009C011E007C012E0F3
:1010200005C013E003C014E001C015E0812FE29673
:101030000FB6F894DEBF0FBECDBFDF91CF911F91E9
:101040000F91FF90EF900895CF93DF93CDB7DEB768
:10105000C456D1090FB6F894DEBF0FBECDBFBC0198
:1010600090E1EAEAF1E0DE01119601900D929A9585
:10107000E1F7FE01719684E5DF011D928A95E9F79B
:10108000CE0101960E946410CE0101960E94870550
:101090000E944906811109C02A980E94490681319F
:1010A00029F481E08093AF0601C02A9ACC59DF4F22
:1010B0000FB6F894DEBF0FBECDBFDF91CF9108957C
:1010C0001092C50093E39093C40088E18093C1001F
:1010D000E2ECF0E08081866080831092D5009093EE
:1010E000D40088E98093D100E2EDF0E08081866051
:1010F000808386E091E09093B3068093B2060895D2
:10110000E0ECF0E080818823ECF78091C600089540
:10111000E0ECF0E0908195FFFDCF8093C60008954C
:10112000CF93DF93EC018881882331F021960E94D0
:10113000880889918111FBCFDF91CF910895E0ED6F
:10114000F0E0908195FFFDCF8093D6000895CF9376
:10115000C82F8A3019F48DE00E949F088C2F0E94BE
:101160009F0880E090E0CF910895E0EDF0E080816D
:101170008823ECF78091D6000895EF92FF920F93A9
:101180001F93CF93DF93CDB7DEB7CA5FD1090FB6F8
:10119000F894DEBF0FBECDBFCE0101967C0100E00A
:1011A00010E00E94B5088A30C1F4FE0131967F013B
:1011B000E00FF11F1082FF92EF928BEB95E09F936F
:1011C0008F930E94CB10B70181EE95E00E946F10C3
:1011D0000F900F900F900F9006C0F70181937F0141
:1011E0000F5F1F4FDECFC650DF4F0FB6F894DEBF44
:1011F0000FBECDBFDF91CF911F910F91FF90EF9068
:1012000008951092700080E28093B6002FEF89E677
:1012100098E1215080409040E1F700C0000010921A
:10122000B00085E08093B100E6EBF0E0808183714F
:10123000E9F717BA81E0809370000895E3EDF0E0DC
:1012400080818062808383B7817F866083BF83B71C
:10125000816083BF889583B78E7F83BF2FE785EB3F
:1012600091E0215080409040E1F700C00000808173
:101270008F7D80830895EF92FF920F931F93CF93FA
:10128000DF93CDB7DEB7E2970FB6F894DEBF0FBE9F
:10129000CDBFDC017901322FF701FF27E617F707F1
:1012A000C8F480E001E010E00C0F1D1F080F111DB5
:1012B000EA0FFB1F208191819053E0E12E9F900D5A
:1012C0001124F80190833E5F8F5FE32FF0E0E61773
:1012D000F70740F36E197F097B01F694E794E11458
:1012E000F10499F1E0E070E0272F30E081E090E038
:1012F0008C0F9D1F820F931FDC018C918A3318F095
:1013000099EA980F02C090ED980FA2E0B0E0AC0F00
:10131000BD1F2A0F3B1FD9018C918A3318F029EA8F
:10132000280F02C020ED280F8A010E0F111DB0E119
:101330009B9FC0011124822BD8018C937E5FEF5FAD
:10134000872F90E08E159F0578F2E2960FB6F894FD
:10135000DEBF0FBECDBFDF91CF911F910F91FF90E8
:10136000EF9008950F931F93CF93DF93EC01952F88
:101370002617370708F5C20FD31F042F152FFE01BC
:10138000A881AA3318F0B0E0D79702C0B0E0D09798
:10139000E181EA3318F0F0E0F79702C0F0E0F0974F
:1013A000A295A07FEA2BD801ED938D012E5F3F4FD0
:1013B00022962617370718F3842FDF91CF911F91BC
:1013C0000F910895CF93DF93CDB7DEB78A858F93C2
:1013D00089858F9388858F938F818F938E811F92BC
:1013E0008F938D811F928F938CEC95E09F938F93B9
:1013F00086EC95E09F938F930E9411110FB6F8949D
:10140000DEBF0FBECDBF86EC95E0DF91CF91089592
:10141000A0E1B0E0EEE0FAE00C94A70D7C011B0126
:101420006A01FC0117821682838181FF44C39E01F9
:101430002F5F3F4F3901F7019381F10193FD8591B2
:1014400093FF81911F01882309F431C3853239F458
:1014500093FD859193FF81911F01853239F4B70186
:1014600090E00E948F1056016501E5CF10E0512CED
:10147000912CFFE1F915D8F08B3279F038F48032F5
:1014800079F08332A1F4F92DF0612EC08D3261F034
:10149000803369F4292D21602DC0392D3260932EBF
:1014A000892D8460982E2AC0E92DE86015C097FC2C
:1014B0002DC020ED280F2A3088F496FE06C03AE0B1
:1014C000139F200D1124122F19C08AE0589E200D61
:1014D0001124522EE92DE0629E2E10C08E3231F47E
:1014E00096FCE5C2F92DF0649F2E08C08C3621F4DD
:1014F000292D2068922E02C0883641F4F10193FD17
:10150000859193FF81911F018111B3CF9BEB980FC0
:10151000933020F4992D9061805E07C09BE9980F6D
:10152000933008F066C1992D9F7E96FF16E09F7359
:10153000992E853619F49064992E08C0863621F4C8
:10154000392F3068932E02C01111115097FE07C039
:101550001C3350F444244394410E27E00BC0183050
:1015600038F027E017E005C027E09CE3492E02C0D1
:10157000212F412C560184E0A80EB11CF601608198
:10158000718182819381042DA3010E94810F6C01DE
:10159000F981FC87F0FF02C0F3FF06C091FC06C092
:1015A00092FE06C000E205C00DE203C00BE201C0DE
:1015B00000E08C858C7019F001115AC29BC297FE15
:1015C00010C04C0CFC85F4FF04C08A81813309F4FF
:1015D0004A94141474F528E0241578F588E0482E10
:1015E0002CC096FC2AC0812F90E08C159D059CF0A4
:1015F0003CEFC3163FEFD30674F0892D8068982E18
:101600000AC0E2E0F0E0EC0FFD1FE10FF11D808168
:10161000803319F411501111F4CF97FE0EC04424F9
:101620004394410E812F90E0C816D9062CF41C1962
:1016300004C04424439401C010E097FE06C01C146B
:101640001D0434F4C601019605C085E090E002C097
:1016500081E090E001110196112331F0212F30E05B
:101660002F5F3F4F820F931F252D30E08217930786
:1016700014F4581A01C0512C892D897049F4552051
:1016800039F0B70180E290E00E948F105A94F7CFB2
:10169000002329F0B701802F90E00E948F1093FC67
:1016A00009C0552039F0B70180E390E00E948F1007
:1016B0005A94F7CF97FE4CC04601D7FE02C0812C4A
:1016C000912CC60188199909F301E80FF91FFE87CB
:1016D000ED87960124193109388B2F87012F10E0EF
:1016E0001195019511093FEF8316930629F4B7016F
:1016F0008EE290E00E948F10C814D9044CF08F85C0
:1017000098898815990524F4ED85FE85818101C0AD
:1017100080E3F1E08F1A91082D853E852F5F3F4FC2
:101720003E872D87801691062CF0B70190E00E942D
:101730008F10D9CFC814D90441F49A81963320F47C
:10174000953319F43C8534FF81E3B70190E04EC036
:101750008A81813319F09C859F7E9C87B70190E038
:101760000E948F10111105C094FC18C085E690E00E
:1017700017C0B7018EE290E00E948F101E5F82E0DA
:1017800001E0080FF301E80FF11D8081B70190E03F
:101790000E948F10802F0113F3CFE6CF85E490E0F5
:1017A000B7010E948F10D7FC06C0C114D10441F4C8
:1017B000EC85E4FF05C0D194C194D1088DE201C04D
:1017C0008BE2B70190E00E948F1080E32AE0C216FE
:1017D000D1042CF08F5FFAE0CF1AD108F7CFB70110
:1017E00090E00E948F10B701C601C0960E948F1032
:1017F00054C1833631F0833779F0833509F056C010
:1018000020C0560132E0A30EB11CF601808189830D
:1018100001E010E0630112C05601F2E0AF0EB11C0E
:10182000F601C080D18096FE03C0612F70E002C037
:101830006FEF7FEFC6010E9484108C01F92DFF77B6
:1018400014C0560122E0A20EB11CF601C080D18066
:1018500096FE03C0612F70E002C06FEF7FEFC601FC
:101860000E9459108C01F92DF0689F2EF3FD1AC0CB
:10187000852D90E008171907A8F4B70180E290E0E1
:101880000E948F105A94F4CFF60197FC859197FE31
:1018900081916F01B70190E00E948F1051105A940E
:1018A000015011090115110579F7F7C0843611F0BF
:1018B000893661F5560197FE09C024E0A20EB11CDD
:1018C000F60160817181828193810AC0F2E0AF0EDE
:1018D000B11CF60160817181072E000C880B990BF9
:1018E000F92DFF769F2E97FF09C0909580957095F2
:1018F00061957F4F8F4F9F4FF0689F2E2AE030E019
:10190000A3010E943311C82EC6183FC0092D853788
:1019100021F40F7E2AE030E01DC0097F8F3691F060
:1019200018F4883559F0C3C0803719F0883711F0A2
:10193000BEC0006104FF09C0046007C094FE08C077
:10194000066006C028E030E005C020E130E002C0BB
:1019500020E132E0560107FF09C084E0A80EB11C67
:10196000F601608171818281938108C0F2E0AF0E3F
:10197000B11CF6016081718180E090E0A3010E94BA
:101980003311C82EC6180F77902E96FE0BC0092D66
:101990000E7FC11650F494FE0AC092FC08C0092DB7
:1019A0000E7E05C0DC2C092D03C0DC2C01C0D12E1D
:1019B00004FF0DC0FE01EC0DF11D8081803311F498
:1019C000097E09C002FF06C0D394D39404C0802FBF
:1019D000867809F0D39403FD11C000FF06C01C2DCA
:1019E000D51480F4150D1D190DC0D51458F4B70188
:1019F00080E290E00E948F10D394F7CFD51410F4BA
:101A00005D1801C0512C04FF10C0B70180E390E0C5
:101A10000E948F1002FF17C001FD03C088E790E00D
:101A200002C088E590E0B7010CC0802F867859F09D
:101A300001FF02C08BE201C080E207FD8DE2B70129
:101A400090E00E948F10C11638F4B70180E390E057
:101A50000E948F101150F7CFCA94F301EC0DF11DC5
:101A60008081B70190E00E948F10C110F5CF15C0A2
:101A7000F4E0F51560F584E0581A93FE1FC00111DB
:101A800027C02C8523FF2AC00CEC10E0392D3071C3
:101A9000932EF8018491811124C0552009F4E4CCDF
:101AA000B70180E290E00E948F105A94F6CFF701C0
:101AB0008681978126C08FEF9FEF23C0B70180E218
:101AC00090E00E948F105A945110F8CFD8CF512C2B
:101AD000B701802F90E00E948F10D3CF00ED10E06F
:101AE000D5CF91108052B70190E00E948F100F5F08
:101AF0001F4FCFCF23E0251510F483E0BDCF512C2D
:101B0000C0CF6096E2E10C94C30DA1E21A2EAA1B8D
:101B1000BB1BFD010DC0AA1FBB1FEE1FFF1FA2179D
:101B2000B307E407F50720F0A21BB30BE40BF50B9A
:101B3000661F771F881F991F1A9469F76095709523
:101B4000809590959B01AC01BD01CF0108952F9226
:101B50003F924F925F926F927F928F929F92AF923D
:101B6000BF92CF92DF92EF92FF920F931F93CF938A
:101B7000DF93CDB7DEB7CA1BDB0B0FB6F894DEBF21
:101B80000FBECDBF09942A88398848885F846E8447
:101B90007D848C849B84AA84B984C884DF80EE8091
:101BA000FD800C811B81AA81B981CE0FD11D0FB69A
:101BB000F894DEBF0FBECDBFED0108950E94F20D77
:101BC0000C94DA0E0E94D30E58F00E94CC0E40F016
:101BD00029F45F3F29F00C94C30E51110C940E0FA1
:101BE0000C94C90E0E94EB0E68F39923B1F35523B0
:101BF00091F3951B550BBB27AA2762177307840720
:101C000038F09F5F5F4F220F331F441FAA1FA9F3B5
:101C100035D00E2E3AF0E0E832D091505040E695A3
:101C2000001CCAF72BD0FE2F29D0660F771F881F04
:101C3000BB1F261737074807AB07B0E809F0BB0BF7
:101C4000802DBF01FF2793585F4F3AF09E3F51050B
:101C500078F00C94C30E0C940E0F5F3FE4F3983EA3
:101C6000D4F3869577956795B795F7959F5FC9F7F4
:101C7000880F911D9695879597F90895E1E0660F75
:101C8000771F881FBB1F621773078407BA0720F0EE
:101C9000621B730B840BBA0BEE1F88F7E095089557
:101CA0000E94570E6894B1110C940E0F08950E9473
:101CB000F30E88F09F5798F0B92F9927B751B0F0DD
:101CC000E1F0660F771F881F991F1AF0BA95C9F7C0
:101CD00014C0B13091F00E940D0FB1E008950C9442
:101CE0000D0F672F782F8827B85F39F0B93FCCF3F5
:101CF000869577956795B395D9F73EF4909580953D
:101D0000709561957F4F8F4F9F4F0895E89409C05C
:101D100097FB3EF490958095709561957F4F8F4F1E
:101D20009F4F9923A9F0F92F96E9BB279395F69534
:101D3000879577956795B795F111F8CFFAF4BB0FB2
:101D400011F460FF1BC06F5F7F4F8F4F9F4F16C016
:101D5000882311F096E911C0772321F09EE8872FA0
:101D6000762F05C0662371F096E8862F70E060E05C
:101D70002AF09A95660F771F881FDAF7880F9695D5
:101D8000879597F9089597F99F6780E870E060E07C
:101D900008959FEF80EC089500240A941616170604
:101DA00018060906089500240A941216130614064C
:101DB00005060895092E0394000C11F4882352F0AF
:101DC000BB0F40F4BF2B11F460FF04C06F5F7F4F67
:101DD0008F4F9F4F089557FD9058440F551F59F04E
:101DE0005F3F71F04795880F97FB991F61F09F3F08
:101DF00079F087950895121613061406551FF2CF31
:101E00004695F1DF08C0161617061806991FF1CF80
:101E100086957105610508940895E894BB276627A7
:101E20007727CB0197F908950E94270F0C94DA0EBB
:101E30000E94CC0E38F00E94D30E20F0952311F0B2
:101E40000C94C30E0C94C90E11240C940E0F0E9416
:101E5000EB0E70F3959FC1F3950F50E0551F629FF5
:101E6000F001729FBB27F00DB11D639FAA27F00DF3
:101E7000B11DAA1F649F6627B00DA11D661F829F1A
:101E80002227B00DA11D621F739FB00DA11D621FFF
:101E9000839FA00D611D221F749F3327A00D611D1C
:101EA000231F849F600D211D822F762F6A2F1124FE
:101EB0009F5750409AF0F1F088234AF0EE0FFF1F31
:101EC000BB1F661F771F881F91505040A9F79E3F88
:101ED000510580F00C94C30E0C940E0F5F3FE4F399
:101EE000983ED4F3869577956795B795F795E795DE
:101EF0009F5FC1F7FE2B880F911D9695879597F9E7
:101F00000895283008F027E03327DA01990F311DB2
:101F100087FD916000966105710539F432602E5F8E
:101F20003D9330E32A95E1F708959F3F30F08038E4
:101F30007105610509F03C5F3C5F3D93913008F00D
:101F40008068911DDF93CF931F930F93FF92EF92C1
:101F5000192F987F9695E92F96959695E90FFF276B
:101F6000E25DFE4F99273327EE24FF24A701E70106
:101F700005900894079428F4360FE71EF81E491FB1
:101F8000511D660F771F881F991F0694A1F70590B2
:101F9000079428F4E70EF81E491F561FC11D770F3E
:101FA000881F991F661F0694A1F70590079428F4CF
:101FB000F80E491F561FC71FD11D880F991F661F96
:101FC000771F0694A1F70590079420F4490F561F38
:101FD000C71FD81F990F661F771F881F0694A9F780
:101FE00084911095177041F0D695C79557954795F0
:101FF000F794E7941A95C1F7E4EDF0E06894159032
:10200000159135916591959105907FE27395E11851
:10201000F10A430B560BC90BD009C0F7E10CF11EB6
:10202000431F561FC91FD01D7EF4703311F48A95CB
:10203000E6CFE894015030F0080F0AF400270217A9
:1020400008F4202F2395022F7A3328F079E37D932B
:102050002A95E9F710C07D932A9589F606949795FD
:102060006795379517951794E118F10A430B560BAE
:10207000C90BD00998F023957E9173957A3308F0B7
:1020800070E37C932013B8F77E9170617D9330F0FC
:10209000839571E37D9370E32A95E1F71124EF9026
:1020A000FF900F911F91CF91DF91992787FD909518
:1020B0000895FC010590615070400110D8F780959B
:1020C00090958E0F9F1F0895FB01DC010D9000205D
:1020D000E9F7119701900D920020E1F70895FB01B7
:1020E000DC0101900D920020E1F70895FB01DC0175
:1020F0004150504030F08D910190801919F400202A
:10210000B9F7881B990B0895FC016150704001904C
:102110000110D8F7809590958E0F9F1F08950F930B
:102120001F93CF93DF93FB01238121FD03C08FEF2A
:102130009FEF2CC022FF16C0468157812481358134
:102140004217530744F4A081B1819D012F5F3F4F97
:10215000318320838C93268137812F5F3F4F3783D4
:10216000268314C08B01EC01FB010084F185E02D76
:102170000995892BE1F6D80116968D919C911797B8
:10218000019617969C938E931697CE01DF91CF916F
:102190001F910F910895A0E0B0E0E1EDF0E10C9403
:1021A000B70DAE014B5F5F4FFA0161917191AF01C5
:1021B0008091B2069091B3060E94080AE2E00C9466
:1021C000D30D0F931F93CF93DF93E091B206F0915D
:1021D000B306238121FF1BC08C01D0E0C0E0F801D1
:1021E00081918F016091B2067091B306DB01189660
:1021F000ED91FC911997882331F00995892B79F39A
:10220000DFEFCFEFECCF8AE00995892B19F08FEF44
:102210009FEF02C08D2F9C2FDF91CF911F910F91C7
:102220000895AEE0B0E0E7E1F1E10C94B50D0D8961
:102230001E8986E08C831A8309838FEF9FE79E8334
:102240008D83AE01475E5F4F6F89788DCE01019619
:102250000E94080AEF81F885E00FF11F10822E9688
:10226000E4E00C94D10DFA01AA27283051F1203175
:1022700081F1E8946F936E7F6E5F7F4F8F4F9F4F1A
:10228000AF4FB1E03ED0B4E03CD0670F781F891F5C
:102290009A1FA11D680F791F8A1F911DA11D6A0F2A
:1022A000711D811D911DA11D20D009F468943F91DD
:1022B0002AE0269F11243019305D3193DEF6CF01DC
:1022C0000895462F4770405D4193B3E00FD0C9F7A2
:1022D000F6CF462F4F70405D4A3318F0495D31FD0F
:1022E0004052419302D0A9F7EACFB4E0A695979562
:1022F000879577956795BA95C9F700976105710538
:1023000008959B01AC010A2E069457954795379581
:102310002795BA95C9F7620F731F841F951FA01DDB
:062320000895F894FFCFC0
:1023260078059905AA050000000300000000A7082B
:10233600000000006D616320736574206465766536
:102346007569200000000000000000000000000089
:102356000000000000000000000000000000000077
:102366000000000000006D616320736574206170D9
:102376007065756920000000000000000000000084
:102386000000000000000000000000000000000047
:1023960000000000000000006D616320736574207A
:1023A6006170706B6579200000000000000000007D
:1023B6000000000000000000000000000000000017
:1023C600000000000000000000006D6163207478CA
:1023D60020756E636E66203320000000000000004A
:1023E60000000000000000000000000000000000E7
:1023F60000000000000000000000000000000000D7
:1024060000000000000000000000000000000000C6
:1024160000000000000000000000000000000000B6
:1024260000000000000000000000000000005072E4
:102436006F6772616D20656E646564005472616ECB
:10244600736D6974207465737400303235343033BB
:1024560032313038373600496E697420636F6D70DB
:102466006C6574652C2046534D2072756E6E696ED0
:1024760067004E6F74206A6F696E65640049742741
:10248600732074696D650043616C696220726567CB
:102496003A2025750A00436F6E6669672072656784
:1024A6003A2025780A00766275733A2025750A0067
:1024B600637572723A2025750A0053657474696EE5
:1024C600672063616C6962726174696F6E20666110
:1024D600696C65642E2E2E00616363657074656495
:1024E600006D61635F74785F6F6B006D61635F722F
:1024F60078200064656E69656400696E76616C6952
:10250600645F706172616D006E6F5F667265655FB4
:102516006368616E0073696C656E740062757379C9
:10252600006D61635F706175736564006B657973D7
:102536005F6E6F745F696E6974006E6F745F6A6F49
:10254600696E6564006672616D655F636F756E7452
:1025560065725F6572725F72656A6F696E5F6E65DE
:102566006564656400696E76616C69645F64617454
:10257600615F6C656E006D61635F65727200737991
:1025860073207265736574006A6F696E696E672081
:102596004F5441412E2E2E004D6163206A6F696EA5
:1025A60020636F6D6D616E643A20006D6163206A11
:1025B6006F696E206F746161004A6F696E20726583
:1025C60073756C743A20004D6163206A6F696E20E2
:1025D60041425020636D643A20006D6163206A6F4A
:1025E600696E20616270004D6163206A6F696E20BA
:1025F60041425020726573756C743A20004C6F72BC
:102606006120696E69742E2E2E006D6163207265DD
:102616007365742025640025733A20005365742081
:102626004144523A20006D616320736574206164F1
:1026360072206F6E006D6163207365742064722072
:102646002564006D61632073657420707772696418
:10265600782025640053657474696E672064637915
:10266600636C6520666F7220636820303A20006DC7
:1026760061632073657420636820646379636C65A5
:10268600203020390053657474696E67206463795D
:10269600636C6520666F7220636820313A20006D96
:1026A60061632073657420636820646379636C6575
:1026B600203120390053657474696E67206463792C
:1026C600636C6520666F7220636820323A20006D65
:1026D60061632073657420636820646379636C6545
:1026E60020322039004C6F6164696E67204F544177
:1026F600412073657474696E67732E2E2E002573E0
:102706003A202000536574206170706575693A201F
:10271600006D616320736574206170706B6579204C
:102726002A2A2A2A3A200053617665207365747432
:10273600696E67733A20006D616320736176650088
:10274600496E697420737563636573730033394129
:1027560037383333453641343131414339354344D3
:102766003445333744423437323830354200423309
:102776003542334442434542393946464641443957
:1027860046383345333536303341413639440032E5
:10279600363031313643300032303135394133420B
:1027A6003443444337423634443439423930423470
:1027B60043384638464643420030303034413330A1
:1027C60042303045423946313100373042334435A4
:1027D6003745443030324535333300727820696EE0
:1027E600743A2025730A0025303278002530325895
:0E27F600253032582530345825303458000034
:00000001FF
