:100000000C94E7000C9404010C94A2020C940401DB
:100010000C9404010C9404010C9404010C9404014C
:100020000C9404010C9404010C9404010C94EC0253
:100030000C9404010C9404010C9404010C9404012C
:100040000C9404010C9404010C9404010C9404011C
:100050000C9404010C9404010C9404010C9404010C
:100060000C9404010C9404010C9404010C940401FC
:100070000C9404010C9404010C9404010C940401EC
:100080000C9404010C9404010C9404010C940401DC
:100090000C9404010C9404010C9404010C940401CC
:1000A0000C9404010C9404010C9404010C940401BC
:1000B0000C9404010C9404010C9404010C94C802E7
:1000C0000C9404010C9404010C9404016E616E0004
:1000D000696E660000407A10F35A00A0724E18094B
:1000E0000010A5D4E80000E87648170000E40B549F
:1000F000020000CA9A3B000000E1F505000080966E
:100100009800000040420F000000A086010000009F
:10011000102700000000E803000000006400000059
:1001200000000A00000000000100000000002C7622
:10013000D888DC674F0823DFC1DFAE59E1B1B7963D
:10014000E5E3E453C63AE651997696E8E6C284269A
:10015000EB898C9B62ED407C6FFCEFBC9C9F40F276
:10016000BAA56FA5F490055A2AF75C936B6CF967F2
:100170006DC11BFCE0E40D47FEF520E6B500D0EDB7
:10018000902E0300943577050080841E080000201F
:100190004E0A000000C80C333333330F986E1283BD
:1001A0001141EF8D2114893BE65516CFFEE6DB1891
:1001B000D1844B381BF77C1D901DA4BBE424203256
:1001C00084725E228100C9F124ECA1E53D2711244F
:1001D0001FBECFEFD8E0DEBFCDBF16E0A0E0B1E09C
:1001E000E0EFF0E202C005900D92A638B107D9F712
:1001F00027E0A6E8B6E001C01D92AA37B207E1F7F2
:100200000E9406010C9476100C9400002FEF83ECF2
:1002100099E0215080409040E1F700C000000E942A
:10022000950186E292E00E94C60F80E090E008957A
:10023000ACE7B0E01C92EAE7F0E010828C918064B9
:100240008C9380818660808380818068808308951C
:10025000EAE7F0E0808180648083808184FFFDCFC5
:100260008091780090917900893E23E0920714F004
:1002700088EE93E00895ECE7F0E09081892B80838D
:100280000E9428018AE18A95F1F700C00895892B20
:1002900011F05C9808955C9A0895CF93DF93EC0178
:1002A0000E9418015398E9E6F0E08081886080831D
:1002B000E99A549A80E090E00E944701CE010E94A2
:1002C00068050E9411030E9400087894DF91CF9185
:1002D000089581E00E943B010E942801BC0180E05A
:1002E00090E00E946B0D26EB36EC4FE15BE30E9441
:1002F000F90D20E030E846ED53E40E94F90D20E0CE
:1003000030E04FE753E40E94C30C20E030E048ECBB
:1003100052E40E94F90D26E636E646E850E40E94D3
:10032000C30C0E94350D862F0895CF93DF93CDB770
:10033000DEB768970FB6F894DEBF0FBECDBF88E179
:10034000E4E1F1E0DE01119601900D928A95E1F76A
:1003500000E010E06894DD24D1F80F2EF3E0EF2EDA
:10036000F02DFF24F3940F2EF8E58F2EF2E09F2E50
:10037000A12CB12CF02D80918706813009F4D1C0D9
:1003800028F0823049F1833091F0F7CFCE014496C6
:100390000E944D0184E392E00E94C60F8C8988235D
:1003A00019F0E0928706E7CFD0928706E4CF8FE47A
:1003B00092E00E94C60F0F5F1F4F0330110524F417
:1003C0000E9443058C8B05C0043B110514F000E02E
:1003D00010E0F0928706CFCF0E94D403092E000CC4
:1003E000AA0BBB0B4C855D856E857F85840F951FA1
:1003F000A61FB71F8C879D87AE87BF870E940E04FC
:10040000488959896A897B89480F591F611D711D67
:10041000488B598B6A8B7B8B0E9469018F838C334D
:1004200028F480E090E00E94470106C0803620F06A
:1004300081E090E00E9447016091A6067091A706B6
:100440008091A8069091A9062D893E8940E050E050
:100450000E946A0C672B682B692B09F05FC08091A2
:10046000A6069091A706A091A806B091A906892B8F
:100470008A2B8B2B09F452C0809186068F3F11F492
:10048000109286068091860691E0980F90938606DA
:100490008A836C857D858E859F85A50194010E9448
:1004A0006A0C39872887688979898A899B89A50197
:1004B00094010E946A0C3B872A878091A60690913E
:1004C000A706A091A806B091A9068B839C83AD8353
:1004D000BE838DB79EB748970FB6F8949EBF0FBEE8
:1004E0008DBFADB7BEB7119688E1FE013196019080
:1004F0000D928A95E1F70E94BC08988F8F8B0E941D
:1005000039071C861D861E861F86188A198A1A8A34
:100510001B8A0FB6F894DEBF0FBECDBFF0928706E0
:100520002ACF8FE99FE00197F1F700C000000E94F9
:100530001D088C89882319F0E09287061CCFD09281
:10054000870619CF1F920F920FB60F9211242F9387
:100550003F934F935F936F937F938F939F93AF934B
:10056000BF93EF93FF938AE592E00E943907FF91D2
:10057000EF91BF91AF919F918F917F916F915F911B
:100580004F913F912F910F900FBE0F901F90189594
:100590001F920F920FB60F9211242F933F934F93F8
:1005A0005F936F937F938F939F93AF93BF93EF93DB
:1005B000FF930E94E107FF91EF91BF91AF919F914F
:1005C0008F917F916F915F914F913F912F910F90FC
:1005D0000FBE0F901F9018951F920F920FB60F929B
:1005E00011248F939F93AF93BF938091A606909110
:1005F000A706A091A806B091A9060196A11DB11D5C
:100600008093A6069093A706A093A806B093A90688
:10061000BF91AF919F918F910F900FBE0F901F9040
:1006200018951092D90080E28093D80008958091A7
:10063000DC008823BCF024E630E0ECEDF0E082E062
:100640008A95F1F700C0215031098081882324F078
:1006500021153105A1F703C02115310529F41092A8
:10066000DC0002C024E630E081E0232B09F480E0C6
:1006700008958091DC0084FF17C024E630E0ECEDA3
:10068000F0E082E08A95F1F700C0215031098081C5
:1006900084FF04C021153105A1F703C021153105E0
:1006A00029F41092DC0002C024E630E081E0232B24
:1006B00009F480E00895CF93C82F84EA8093DC008A
:1006C0000E9417038823E9F08091D900887F883041
:1006D00011F0803199F4C093DB0084E88093DC0052
:1006E0000E941703882369F09091D900987F983170
:1006F00039F081E0903429F480E003C081E001C04A
:1007000080E0CF91089584E98093DC000E94390352
:1007100008958093DB0084E88093DC000E94170337
:100720009091D900987F81E0983209F480E0089593
:1007300084EC8093DC000E9417038091DB00089515
:1007400084E88093DC000E9417038091DB00089509
:10075000FF920F931F93CF93DF93D82FF62E8A012A
:100760000E945B03C82F8F2D0E948903C80F8AE166
:100770008A95F1F700C08D2F81600E945B03C80F3E
:100780000E949803F80181830E94A003F8018083EE
:100790000E94830381E0C11101C080E0DF91CF910D
:1007A0001F910F91FF9008950F931F93CF93DF93A5
:1007B00000D0CDB7DEB7AE014F5F5F4F62E080E89B
:1007C0000E94A80381111DC00A8110E0102F00278C
:1007D0008981082B1595079515950795159507950A
:1007E0001F930F9380E992E09F938F930E94B00F25
:1007F0000F900F900F900F90011580E1180730F4C3
:1008000003C000E010E002C000E010E0C8010F905B
:100810000F90DF91CF911F910F9108950F931F9328
:10082000CF93DF9300D0CDB7DEB7AE014F5F5F4F00
:1008300064E080E80E94A803811119C00A8110E0D9
:10084000102F00278981082B1F930F938FE992E0C7
:100850009F938F930E94B00F0F900F900F900F9067
:10086000013080E8180730F4802F912F05C080E018
:1008700090E002C080E090E00F900F90DF91CF9168
:100880001F910F9108950E94CA078DE00E94C20730
:100890008AE00E94C2070895CF93DF93EC0142E003
:1008A00050E06CED72E00E945B0F892B09F48FC061
:1008B00048E050E06CEC72E0CE010E945B0F892BA7
:1008C00009F487C049E050E065ED72E0CE010E9476
:1008D0005B0F892B09F47FC047E050E06FED72E0B9
:1008E000CE010E945B0F892B39F4BE018AEA96E0A3
:1008F0000E94540F81E186C046E050E067EE72E04E
:10090000CE010E945B0F892B09F467C04DE050E0D7
:100910006EEE72E0CE010E945B0F892B09F45FC07E
:100920004CE050E06CEF72E0CE010E945B0F892B2F
:1009300009F457C046E050E069E073E0CE010E9440
:100940005B0F892B09F44FC044E050E060E173E095
:10095000CE010E945B0F892B09F447C04AE050E0AA
:1009600065E173E0CE010E945B0F892B09F43FC063
:100970004DE050E060E273E0CE010E945B0F892BF6
:10098000C1F14AE050E06EE273E0CE010E945B0FDD
:10099000892B89F14FE150E069E373E0CE010E94B9
:1009A0005B0F892B51F140E150E069E573E0CE0126
:1009B0000E945B0F892B19F147E050E06AE673E073
:1009C000CE010E945B0F892BE1F08AEA1BC080E018
:1009D00019C080E017C080E115C08AE013C081E033
:1009E00011C082E00FC083E00DC084E00BC085E041
:1009F00009C086E007C087E005C088E003C081E049
:100A000001C08DE0DF91CF910895EF92FF920F9397
:100A10001F93CF93DF93CDB7DEB7CA5FD1090FB66F
:100A2000F894DEBF0FBECDBFCE0101967C0100E081
:100A300010E00E94BA078D3091F40E94BA07E1E0FD
:100A4000F0E0EC0FFD1FE00FF11F1082CE010196C8
:100A50000E94C60FCE0101960E944C0406C0F70109
:100A600081937F010F5F1F4FE4CFC650DF4F0FB65A
:100A7000F894DEBF0FBECDBFDF91CF911F910F91D4
:100A8000FF90EF90089585E993E00E94C60F85EAF4
:100A900093E09F938F930E94B00F88EB93E00E94A6
:100AA00043040E9405050F900F9081110DC086EC44
:100AB00093E09F938F930E94B00F0E9405050F90C3
:100AC0000F90811103C0089582E2089583E2089592
:100AD000EF92FF920F931F93CF93DF93CDB7DEB7C3
:100AE000E2970FB6F894DEBF0FBECDBF7C01519ADE
:100AF00059988FE19EE40197F1F700C000001AB801
:100B00009AE19A95F1F700C00E949A0785E50E9444
:100B1000C207AFEFB0E7E2E0A150B040E040E1F73C
:100B200000C000008AE094E00E94C60F87E194E0D4
:100B30009F938F930E94B00F83E08F9384E68F93EF
:100B400087E294E09F938F938E010F5F1F4F1F9357
:100B50000F930E94F60FC8010E9443040E940505EE
:100B60000FB6F894DEBF0FBECDBF81110EC184E376
:100B700094E09F938F930E94B00F8EE394E00E94C5
:100B800043040E9405050F900F90811100C18DE470
:100B900094E09F938F930E94B00F1F9281E08F93F8
:100BA00086E594E09F938F931F930F930E94F60F17
:100BB000C8010E9443040E9405050FB6F894DEBFE9
:100BC0000FBECDBF8111E5C084E694E09F938F9363
:100BD0000E94B00F1F9281E08F9381E794E09F9372
:100BE0008F931F930F930E94F60FC8010E94430436
:100BF0000E9405050FB6F894DEBF0FBECDBF811170
:100C0000CAC083E894E09F938F930E94B00F8DE950
:100C100094E00E9443040E9405050F900F908111FB
:100C20001EC083EB94E09F938F930E94B00F8DECD6
:100C300094E00E9443040E9405050F900F908111DB
:100C40000EC083EE94E09F938F930E94B00F8DEFC0
:100C500094E00E9443040E9405050F900F9083E1E9
:100C600095E00E94C60F8CE295E09F938F930E94BF
:100C7000B00F80E1ECE2F1E0DE01119601900D92FF
:100C80008A95E1F7FE01719682E2DF011D928A9555
:100C9000E9F76091040170910501CE0101960E946F
:100CA000490FCE0101960E9443040E9405050F9052
:100CB0000F90811172C089E395E09F938F930E94FA
:100CC000B00F80E1EEE5F1E0DE01119601900D92AA
:100CD0008A95E1F7FE01719682E2DF011D928A9505
:100CE000E9F76091020170910301CE0101960E9423
:100CF000490FCE0101960E9443040E9405050F9002
:100D00000F9081114AC086E495E09F938F930E94D3
:100D1000B00F80E1E0E9F1E0DE01119601900D9263
:100D20008A95E1F7FE01719682E2DF011D928A95B4
:100D3000E9F76091000170910101CE0101960E94D6
:100D4000490FCE0101960E9443040E9405050F90B1
:100D50000F90811122C083E595E09F938F930E94AD
:100D6000B00F83E695E00E9443040E940505182F0A
:100D70000F900F90811111C00E944305F7018083ED
:100D80008CE695E00E94C60F09C011E007C012E092
:100D900005C013E003C014E001C015E0812FE29606
:100DA0000FB6F894DEBF0FBECDBFDF91CF911F917C
:100DB0000F91FF90EF90089589E795E00E94C60F8C
:100DC000EAEAF6E001900020E9F73197BF016A5A9C
:100DD000764029E030E04EE057E08AEA96E00E9453
:100DE0003A0880910E07823009F042C080910F07C7
:100DF000803B99F1803CB1F18A30D1F5EEE0F7E02B
:100E00002281838190E0A0E0B0E0B82FAA27992743
:100E10008827A22B82609A608093A6069093A706EB
:100E2000A093A806B093A9068091A6069091A70664
:100E3000A091A806B091A906BF93AF939F938F93FB
:100E40008CE895E09F938F930E94B00F0F900F90C6
:100E50000F900F900F900F90089583EA95E00E94F5
:100E6000C60F0895F894E0E6F0E0108288E08083F1
:100E70000895CF93DF93CDB7DEB7C456D1090FB62F
:100E8000F894DEBF0FBECDBFBC0190E1E2ECF1E013
:100E9000DE01119601900D929A95E1F7FE0171968F
:100EA00084E5DF011D928A95E9F7CE0101960E9443
:100EB000490F86EB95E09F938F930E94B00FCE0170
:100EC00001960E9443040E9405050F900F90811126
:100ED00010C083EC95E09F938F930E94B00F0E9407
:100EE00005050F900F90813121F48AEA96E00E9467
:100EF000DC0680E0CC59DF4F0FB6F894DEBF0FBEA2
:100F0000CDBFDF91CF910895E0EDF0E0908195FFA6
:100F1000FDCF8093D6000895CF93C82F8A3019F45F
:100F20008DE00E9484078C2F0E94840780E090E06F
:100F3000CF9108951092C50093E39093C40088E187
:100F40008093C100E2ECF0E08081866080831092A3
:100F5000D5009093D40088E98093D100E2EDF0E0D1
:100F600080818660808386E091E09093770780930C
:100F700076070895E0ECF0E080818823ECF780911B
:100F8000C6000895E0ECF0E0908195FFFDCF8093DE
:100F9000C6000895CF93DF93EC018881882331F058
:100FA00021960E94C20789918111FBCFDF91CF91D9
:100FB0000895E0EDF0E080818823ECF78091D60081
:100FC00008950F931F93CF93DF9308E816E0C0E0D6
:100FD000D0E00E94D9078A3029F0F80181938F016F
:100FE0002196F7CFC857D94F188288E896E00E941B
:100FF000C60F88E896E0DF91CF911F910F91089579
:101000001092700080E28093B6002FEF89E698E19D
:10101000215080409040E1F700C000001092B000E5
:1010200085E08093B100E6EBF0E080818371E9F721
:1010300017BA81E0809370000895E3EDF0E08081BD
:101040008062808383B7817F866083BF83B781603E
:1010500083BF889583B78E7F83BF2FE785EB91E0B1
:10106000215080409040E1F700C0000080818F7DDA
:1010700080830895AF92BF92CF92DF92EF92FF925A
:101080000F931F93CF93DF93CDB7DEB72A970FB699
:10109000F894DEBF0FBECDBF8C017B01722F3327CA
:1010A0002E153F0508F047C0A0E0CC24C394D12CF6
:1010B000CC0EDD1ECA0ED11CF801E20FF31F808199
:1010C0009181905320E1829F900D1124F60190832D
:1010D0007E5FAF5F272F30E02E153F0530F32BC02A
:1010E000F50180818A3318F099EA980F02C090EDDB
:1010F000980F81818A3318F029EA280F02C020ED69
:10110000280FF0E19F9FC0011124822BD8018C93FE
:101110001F928F93FF92EF920E94B00FB2E0AB0E3E
:10112000B11C0E5F1F4F0F900F900F900F90AC14DB
:10113000BD04B1F610C0FE0131965F01042F152FDA
:101140006E01FBE0CF0ED11C0F2EF1E6EF2EF6E084
:10115000FF2EF02DC5CF2A960FB6F894DEBF0FBE36
:10116000CDBFDF91CF911F910F91FF90EF90DF9056
:10117000CF90BF90AF900895CF93DF93CDB7DEB7F8
:101180008F858F938E858F938D858F938C858F938D
:101190008B851F928F938A858F9389858F938885FE
:1011A0008F938F818F938D811F928F938E811F924A
:1011B0008F938CE696E09F938F9382EA95E09F93BE
:1011C0008F930E94F60F0FB6F894DEBF0FBECDBF0F
:1011D00082EA95E0DF91CF910895A0E1B0E0E3EFDE
:1011E000F8E00C948C0C7C011B016A01FC01178255
:1011F0001682838181FF44C39E012F5F3F4F3901D7
:10120000F7019381F10193FD859193FF81911F0176
:10121000882309F431C3853239F493FD859193FF16
:1012200081911F01853239F4B70190E00E94740F5B
:1012300056016501E5CF10E0512C912CFFE1F91525
:10124000D8F08B3279F038F4803279F08332A1F41F
:10125000F92DF0612EC08D3261F0803369F4292DB3
:1012600021602DC0392D3260932E892D8460982EF7
:101270002AC0E92DE86015C097FC2DC020ED280F8D
:101280002A3088F496FE06C03AE0139F200D112400
:10129000122F19C08AE0589E200D1124522EE92DDC
:1012A000E0629E2E10C08E3231F496FCE5C2F92D1C
:1012B000F0649F2E08C08C3621F4292D2068922ED0
:1012C00002C0883641F4F10193FD859193FF81912D
:1012D0001F018111B3CF9BEB980F933020F4992D10
:1012E0009061805E07C09BE9980F933008F066C15B
:1012F000992D9F7E96FF16E09F73992E853619F4DF
:101300009064992E08C0863621F4392F3068932EC8
:1013100002C01111115097FE07C01C3350F4442431
:101320004394410E27E00BC0183038F027E017E057
:1013300005C027E09CE3492E02C0212F412C560115
:1013400084E0A80EB11CF6016081718182819381D5
:10135000042DA3010E94660E6C01F981FC87F0FF49
:1013600002C0F3FF06C091FC06C092FE06C000E278
:1013700005C00DE203C00BE201C000E08C858C705B
:1013800019F001115AC29BC297FE10C04C0CFC858B
:10139000F4FF04C08A81813309F44A94141474F56B
:1013A00028E0241578F588E0482E2CC096FC2AC049
:1013B000812F90E08C159D059CF03CEFC3163FEF0C
:1013C000D30674F0892D8068982E0AC0E2E0F0E020
:1013D000EC0FFD1FE10FF11D8081803319F41150D6
:1013E0001111F4CF97FE0EC044244394410E812F77
:1013F00090E0C816D9062CF41C1904C04424439468
:1014000001C010E097FE06C01C141D0434F4C60190
:10141000019605C085E090E002C081E090E00111F6
:101420000196112331F0212F30E02F5F3F4F820FC3
:10143000931F252D30E08217930714F4581A01C02A
:10144000512C892D897049F4552039F0B70180E27B
:1014500090E00E94740F5A94F7CF002329F0B7014F
:10146000802F90E00E94740F93FC09C0552039F042
:10147000B70180E390E00E94740F5A94F7CF97FE73
:101480004CC04601D7FE02C0812C912CC6018819A0
:101490009909F301E80FF91FFE87ED8796012419DA
:1014A0003109388B2F87012F10E011950195110913
:1014B0003FEF8316930629F4B7018EE290E00E9475
:1014C000740FC814D9044CF08F8598898815990534
:1014D00024F4ED85FE85818101C080E3F1E08F1A5F
:1014E00091082D853E852F5F3F4F3E872D878016C3
:1014F00091062CF0B70190E00E94740FD9CFC81468
:10150000D90441F49A81963320F4953319F43C853B
:1015100034FF81E3B70190E04EC08A81813319F036
:101520009C859F7E9C87B70190E00E94740F1111EB
:1015300005C094FC18C085E690E017C0B7018EE2A4
:1015400090E00E94740F1E5F82E001E0080FF3013B
:10155000E80FF11D8081B70190E00E94740F802F89
:101560000113F3CFE6CF85E490E0B7010E94740F3A
:10157000D7FC06C0C114D10441F4EC85E4FF05C0DA
:10158000D194C194D1088DE201C08BE2B70190E003
:101590000E94740F80E32AE0C216D1042CF08F5F02
:1015A000FAE0CF1AD108F7CFB70190E00E94740F8C
:1015B000B701C601C0960E94740F54C1833631F042
:1015C000833779F0833509F056C020C0560132E0E8
:1015D000A30EB11CF6018081898301E010E0630154
:1015E00012C05601F2E0AF0EB11CF601C080D180EE
:1015F00096FE03C0612F70E002C06FEF7FEFC6015F
:101600000E94690F8C01F92DFF7714C0560122E06A
:10161000A20EB11CF601C080D18096FE03C0612FDE
:1016200070E002C06FEF7FEFC6010E943E0F8C0199
:10163000F92DF0689F2EF3FD1AC0852D90E0081754
:101640001907A8F4B70180E290E00E94740F5A9441
:10165000F4CFF60197FC859197FE81916F01B70158
:1016600090E00E94740F51105A9401501109011515
:10167000110579F7F7C0843611F0893661F5560106
:1016800097FE09C024E0A20EB11CF60160817181B1
:10169000828193810AC0F2E0AF0EB11CF601608135
:1016A0007181072E000C880B990BF92DFF769F2E68
:1016B00097FF09C090958095709561957F4F8F4FEA
:1016C0009F4FF0689F2E2AE030E0A3010E9418107F
:1016D000C82EC6183FC0092D853721F40F7E2AE099
:1016E00030E01DC0097F8F3691F018F4883559F02D
:1016F000C3C0803719F0883711F0BEC0006104FF05
:1017000009C0046007C094FE08C0066006C028E057
:1017100030E005C020E130E002C020E132E05601B7
:1017200007FF09C084E0A80EB11CF6016081718139
:101730008281938108C0F2E0AF0EB11CF601608196
:10174000718180E090E0A3010E941810C82EC61895
:101750000F77902E96FE0BC0092D0E7FC11650F408
:1017600094FE0AC092FC08C0092D0E7E05C0DC2C38
:10177000092D03C0DC2C01C0D12E04FF0DC0FE01D9
:10178000EC0DF11D8081803311F4097E09C002FF48
:1017900006C0D394D39404C0802F867809F0D394E4
:1017A00003FD11C000FF06C01C2DD51480F4150DDB
:1017B0001D190DC0D51458F4B70180E290E00E94C5
:1017C000740FD394F7CFD51410F45D1801C0512CC9
:1017D00004FF10C0B70180E390E00E94740F02FF85
:1017E00017C001FD03C088E790E002C088E590E0E3
:1017F000B7010CC0802F867859F001FF02C08BE240
:1018000001C080E207FD8DE2B70190E00E94740FF5
:10181000C11638F4B70180E390E00E94740F1150B4
:10182000F7CFCA94F301EC0DF11D8081B70190E070
:101830000E94740FC110F5CF15C0F4E0F51560F5E6
:1018400084E0581A93FE1FC0011127C02C8523FF86
:101850002AC00CEC10E0392D3071932EF8018491E0
:10186000811124C0552009F4E4CCB70180E290E056
:101870000E94740F5A94F6CFF7018681978126C093
:101880008FEF9FEF23C0B70180E290E00E94740FBA
:101890005A945110F8CFD8CF512CB701802F90E037
:1018A0000E94740FD3CF00ED10E0D5CF911080527D
:1018B000B70190E00E94740F0F5F1F4FCFCF23E05E
:1018C000251510F483E0BDCF512CC0CF6096E2E126
:1018D0000C94A80CA1E21A2EAA1BBB1BFD010DC083
:1018E000AA1FBB1FEE1FFF1FA217B307E407F507D0
:1018F00020F0A21BB30BE40BF50B661F771F881FAC
:10190000991F1A9469F760957095809590959B0141
:10191000AC01BD01CF0108952F923F924F925F928B
:101920006F927F928F929F92AF92BF92CF92DF92EF
:10193000EF92FF920F931F93CF93DF93CDB7DEB754
:10194000CA1BDB0B0FB6F894DEBF0FBECDBF0994E8
:101950002A88398848885F846E847D848C849B843F
:10196000AA84B984C884DF80EE80FD800C811B814D
:10197000AA81B981CE0FD11D0FB6F894DEBF0FBE7C
:10198000CDBFED0108950E94D70C0C94BF0D0E94AD
:10199000B80D58F00E94B10D40F029F45F3F29F0D6
:1019A0000C94A80D51110C94F30D0C94AE0D0E94E3
:1019B000D00D68F39923B1F3552391F3951B550B83
:1019C000BB27AA2762177307840738F09F5F5F4F12
:1019D000220F331F441FAA1FA9F335D00E2E3AF051
:1019E000E0E832D091505040E695001CCAF72BD069
:1019F000FE2F29D0660F771F881FBB1F26173707BA
:101A00004807AB07B0E809F0BB0B802DBF01FF27EB
:101A100093585F4F3AF09E3F510578F00C94A80D13
:101A20000C94F30D5F3FE4F3983ED4F386957795DD
:101A30006795B795F7959F5FC9F7880F911D9695A4
:101A4000879597F90895E1E0660F771F881FBB1F00
:101A5000621773078407BA0720F0621B730B840BAD
:101A6000BA0BEE1F88F7E09508950E943C0D68942C
:101A7000B1110C94F30D08950E94D80D88F09F5772
:101A800098F0B92F9927B751B0F0E1F0660F771FA2
:101A9000881F991F1AF0BA95C9F714C0B13091F098
:101AA0000E94F20DB1E008950C94F20D672F782F8B
:101AB0008827B85F39F0B93FCCF38695779567955D
:101AC000B395D9F73EF490958095709561957F4FC9
:101AD0008F4F9F4F0895E89409C097FB3EF490956F
:101AE0008095709561957F4F8F4F9F4F9923A9F0F7
:101AF000F92F96E9BB279395F69587957795679586
:101B0000B795F111F8CFFAF4BB0F11F460FF1BC0C9
:101B10006F5F7F4F8F4F9F4F16C0882311F096E95C
:101B200011C0772321F09EE8872F762F05C066230A
:101B300071F096E8862F70E060E02AF09A95660FC3
:101B4000771F881FDAF7880F9695879597F908957C
:101B500097F99F6780E870E060E008959FEF80EC60
:101B6000089500240A941616170618060906089503
:101B700000240A9412161306140605060895092E69
:101B80000394000C11F4882352F0BB0F40F4BF2BD8
:101B900011F460FF04C06F5F7F4F8F4F9F4F089518
:101BA00057FD9058440F551F59F05F3F71F047950E
:101BB000880F97FB991F61F09F3F79F087950895F3
:101BC000121613061406551FF2CF4695F1DF08C012
:101BD000161617061806991FF1CF8695710561052F
:101BE00008940895E894BB2766277727CB0197F9D7
:101BF00008950E940C0E0C94BF0D0E94B10D38F098
:101C00000E94B80D20F0952311F00C94A80D0C94AF
:101C1000AE0D11240C94F30D0E94D00D70F3959F1E
:101C2000C1F3950F50E0551F629FF001729FBB27D3
:101C3000F00DB11D639FAA27F00DB11DAA1F649F6F
:101C40006627B00DA11D661F829F2227B00DA11D22
:101C5000621F739FB00DA11D621F839FA00D611DA8
:101C6000221F749F3327A00D611D231F849F600DC9
:101C7000211D822F762F6A2F11249F5750409AF0F2
:101C8000F1F088234AF0EE0FFF1FBB1F661F771F7E
:101C9000881F91505040A9F79E3F510580F00C9449
:101CA000A80D0C94F30D5F3FE4F3983ED4F38695B2
:101CB00077956795B795F795E7959F5FC1F7FE2BE9
:101CC000880F911D9695879597F90895283008F00B
:101CD00027E03327DA01990F311D87FD91600096C7
:101CE0006105710539F432602E5F3D9330E32A952A
:101CF000E1F708959F3F30F080387105610509F0E4
:101D00003C5F3C5F3D93913008F08068911DDF930C
:101D1000CF931F930F93FF92EF92192F987F969571
:101D2000E92F96959695E90FFF27E25DFE4F9927DB
:101D30003327EE24FF24A701E701059008940794B8
:101D400028F4360FE71EF81E491F511D660F771F36
:101D5000881F991F0694A1F70590079428F4E70EB1
:101D6000F81E491F561FC11D770F881F991F661F38
:101D70000694A1F70590079428F4F80E491F561F02
:101D8000C71FD11D880F991F661F771F0694A1F7E3
:101D90000590079420F4490F561FC71FD81F990FAD
:101DA000661F771F881F0694A9F7849110951770F6
:101DB00041F0D695C79557954795F794E7941A95AE
:101DC000C1F7E4EDF0E068941590159135916591B7
:101DD000959105907FE27395E118F10A430B560B3C
:101DE000C90BD009C0F7E10CF11E431F561FC91FD4
:101DF000D01D7EF4703311F48A95E6CFE89401503B
:101E000030F0080F0AF40027021708F4202F23955A
:101E1000022F7A3328F079E37D932A95E9F710C0F1
:101E20007D932A9589F6069497956795379517952A
:101E30001794E118F10A430B560BC90BD00998F01F
:101E400023957E9173957A3308F070E37C93201389
:101E5000B8F77E9170617D9330F0839571E37D9347
:101E600070E32A95E1F71124EF90FF900F911F91F5
:101E7000CF91DF91992787FD90950895FC010590FA
:101E8000615070400110D8F7809590958E0F9F1F7C
:101E90000895FB01DC010D900020E9F711970190F6
:101EA0000D920020E1F70895FB01DC0101900D92F5
:101EB0000020E1F70895FB01DC014150504030F073
:101EC0008D910190801919F40020B9F7881B990BA6
:101ED0000895FC016150704001900110D8F7809581
:101EE00090958E0F9F1F08950F931F93CF93DF93AD
:101EF000FB01238121FD03C08FEF9FEF2CC022FF48
:101F000016C046815781248135814217530744F416
:101F1000A081B1819D012F5F3F4F318320838C933E
:101F2000268137812F5F3F4F3783268314C08B0173
:101F3000EC01FB010084F185E02D0995892BE1F688
:101F4000D80116968D919C911797019617969C93A0
:101F50008E931697CE01DF91CF911F910F91089527
:101F6000A0E0B0E0E6EBFFE00C949C0CAE014B5F10
:101F70005F4FFA0161917191AF0180917607909165
:101F800077070E94ED08E2E00C94B80C0F931F93C2
:101F9000CF93DF93E0917607F0917707238121FFBC
:101FA0001BC08C01D0E0C0E0F80181918F016091ED
:101FB000760770917707DB011896ED91FC911997E0
:101FC000882331F00995892B79F3DFEFCFEFECCF40
:101FD0008AE00995892B19F08FEF9FEF02C08D2FB2
:101FE0009C2FDF91CF911F910F910895AEE0B0E04B
:101FF000ECEFFFE00C949A0C0D891E8986E08C832F
:102000001A8309838FEF9FE79E838D83AE01475E1E
:102010005F4F6F89788DCE0101960E94ED08EF81A8
:10202000F885E00FF11F10822E96E4E00C94B60CB8
:10203000FA01AA27283051F1203181F1E8946F93F9
:102040006E7F6E5F7F4F8F4F9F4FAF4FB1E03ED09F
:10205000B4E03CD0670F781F891F9A1FA11D680F3D
:10206000791F8A1F911DA11D6A0F711D811D911D70
:10207000A11D20D009F468943F912AE0269F1124E5
:102080003019305D3193DEF6CF010895462F477049
:10209000405D4193B3E00FD0C9F7F6CF462F4F70A4
:1020A000405D4A3318F0495D31FD4052419302D002
:1020B000A9F7EACFB4E0A6959795879577956795A8
:1020C000BA95C9F700976105710508959B01AC01A8
:1020D0000A2E06945795479537952795BA95C9F7CF
:1020E000620F731F841F951FA01D0895F894FFCFE2
:1020F0001E063F06500600000003000000008C078B
:102100000000000002000000000064000000000069
:1021100000000000000000005802A2056D6163206D
:1021200073657420646576657569200000000000A1
:10213000000000000000000000000000000000009F
:1021400000000000000000000000000000006D61C1
:1021500063207365742061707065756920000000EC
:10216000000000000000000000000000000000006F
:10217000000000000000000000000000000000005F
:102180006D616320736574206170706B65792000E8
:10219000000000000000000000000000000000003F
:1021A000000000000000000000000000000000002F
:1021B00000006D616320747820756E636E66203355
:1021C00020000000000000000000000000000000EF
:1021D00000000000000000000000000000000000FF
:1021E00000000000000000000000000000000000EF
:1021F00000000000000000000000000000000000DF
:1022000000000000000000000000000000000000CE
:1022100000000000000050726F6772616D20656EF3
:1022200064656400496E697420636F6D706C6574D9
:10223000652C2046534D2072756E6E696E67004E98
:102240006F74206A6F696E656400303230323535E4
:1022500062313766333535343033323130383736E2
:102260000043616C6962207265673A2025750A0037
:10227000436F6E666967207265673A2025780A00A9
:102280007265616C20766275733A2025750A00725A
:1022900065616C20637572723A2025750A0053657A
:1022A0007474696E672063616C6962726174696FCE
:1022B0006E206661696C65642E2E2E006163636515
:1022C00070746564006D61635F74785F6F6B006D3F
:1022D00061635F7278200064656E69656400696E91
:1022E00076616C69645F706172616D006E6F5F66CC
:1022F0007265655F6368616E0073696C656E74001A
:1023000062757379006D61635F70617573656400F8
:102310006B6579735F6E6F745F696E6974006E6F61
:10232000745F6A6F696E6564006672616D655F6394
:102330006F756E7465725F6572725F72656A6F69E0
:102340006E5F6E656564656400696E76616C696474
:102350005F646174615F6C656E006D61635F65727F
:1023600072007379732072657365740073797320DA
:102370006765742068776575690074657374206398
:102380006D643A20006A6F696E696E67204F544130
:10239000412E2E2E004D6163206A6F696E20636F9F
:1023A0006D6D616E643A20006D6163206A6F696EC5
:1023B000206F746161004A6F696E20726573756C7D
:1023C000743A20004D6163206A6F696E204142506B
:1023D00020636D643A20006D6163206A6F696E202E
:1023E000616270004D6163206A6F696E20414250E6
:1023F00020726573756C743A20004C6F72612069AD
:102400006E69742E2E2E00526573657420746F20D1
:1024100062616E643A20006D616320726573657459
:1024200020256400536574204144523A20006D61B8
:10243000632073657420616472206F6E005365744D
:102440002044523A20006D616320736574206472E9
:1024500020256400536574207077726964783A208F
:10246000006D6163207365742070777269647820F1
:1024700025640053657474696E6720646379636CC6
:102480006520666F7220636820303A20006D6163BA
:102490002073657420636820646379636C65203001
:1024A00020390053657474696E6720646379636CC6
:1024B0006520666F7220636820313A20006D616389
:1024C0002073657420636820646379636C652031D0
:1024D00020390053657474696E6720646379636C96
:1024E0006520666F7220636820323A20006D616358
:1024F0002073657420636820646379636C6520329F
:102500002039004C6F6164696E67204F544141204F
:1025100073657474696E67732E2E2E005365742074
:102520006465766575693A20005365742061707042
:102530006575693A2000536574206170706B657928
:102540003A2000536176652073657474696E677311
:102550003A20006D6163207361766500496E69748D
:102560002073756363657373004173736572746977
:102570006E6720646F776E6C696E6B004368616E86
:102580006765642074696D6520746F3A20256C75E9
:10259000200A006368616E67696E67206461746118
:1025A0002072617465004D616320747820636D64EE
:1025B0003A20004D616320747820726573756C74E5
:1025C0003A200033394137383333453641343131DD
:1025D0004143393543443445333744423437323844
:1025E0003035420042333542334442434542393963
:1025F0004646464144394638334533353630334113
:1026000041363944003236303131364330003635C8
:1026100034453537313846434342423836453935FB
:10262000323732413142423234433939364400374D
:10263000304233443537454430303245353333004A
:10264000303030344133304230304542394636360E
:10265000002530327820002025782000253032589F
:10266000253032582530386C5825303258253034D2
:062670005825303458002B
:00000001FF
