:100000000C94E7000C9404010C9404010C9404017A
:100010000C9404010C9404010C9404010C9404014C
:100020000C9404010C9404010C9404010C94BB0185
:100030000C9404010C9404010C9404010C9404012C
:100040000C9404010C9404010C9404010C9404011C
:100050000C9404010C9404010C9404010C9404010C
:100060000C9404010C9404010C9404010C940401FC
:100070000C9404010C9404010C9404010C940401EC
:100080000C9404010C9404010C9404010C940401DC
:100090000C9404010C9404010C9404010C940401CC
:1000A0000C9404010C9404010C9404010C940401BC
:1000B0000C9404010C9404010C9404010C9494011C
:1000C0000C9404010C9404010C9404016E616E0004
:1000D000696E660000407A10F35A00A0724E18094B
:1000E0000010A5D4E80000E87648170000E40B549F
:1000F000020000CA9A3B000000E1F505000080966E
:100100009800000040420F000000A086010000009F
:10011000102700000000E803000000006400000059
:1001200000000A00000000000100000000002C7622
:10013000D888DC674F0823DFC1DFAE59E1B1B7963D
:10014000E5E3E453C63AE651997696E8E6C284269A
:10015000EB898C9B62ED407C6FFCEFBC9C9F40F276
:10016000BAA56FA5F490055A2AF75C936B6CF967F2
:100170006DC11BFCE0E40D47FEF520E6B500D0EDB7
:10018000902E0300943577050080841E080000201F
:100190004E0A000000C80C333333330F986E1283BD
:1001A0001141EF8D2114893BE65516CFFEE6DB1891
:1001B000D1844B381BF77C1D901DA4BBE424203256
:1001C00084725E228100C9F124ECA1E53D2711244F
:1001D0001FBECFEFD8E0DEBFCDBF11E0A0E0B1E0A1
:1001E000EAECF4E102C005900D92A033B107D9F713
:1001F00022E0A0E3B1E001C01D92A730B207E1F711
:100200000E9406010C94630A0C940000CF93DF93C4
:100210001F92CDB7DEB72FEF83EC99E021508040DD
:100220009040E1F700C00000CE0101960E947301EA
:100230008EE091E00E94D5090F2EF2E1EF2EF1E061
:10024000FF2EF02D5C9A22E02A95F1F700C00E9463
:10025000DC028C010E941103BC0180E090E00E944E
:1002600093072FE832EC45E75CE30E9421089F9357
:100270008F937F936F93B80180E090E00E94930783
:100280002FE632E143E85BE30E9421089F938F93BE
:100290007F936F93FF92EF920E94BF098FEF9EE9C9
:1002A00024E2815090402040E1F700C000000FB6EA
:1002B000F894DEBF0FBECDBFC5CFACE7B0E01C9257
:1002C000EAE7F0E010828C9180648C9380818660F4
:1002D00080838081806880830895892B11F05C9AE7
:1002E00008955C980895CF93DF93EC010E943E033C
:1002F0000E945D015398E9E6F0E080818860808388
:10030000E99A549A209A219A229A80E090E00E94D9
:100310006D0118820E94E0010E9436030E94C20310
:100320007894DF91CF9108951F920F920FB60F929C
:1003300011242F933F934F935F936F937F938F93EA
:100340009F93AF93BF93EF93FF930E94870381E046
:1003500080930002FF91EF91BF91AF919F918F9198
:100360007F916F915F914F913F912F910F900FBEB1
:100370000F901F9018951F920F920FB60F92112495
:100380008F939F93AF93BF93809194019091950128
:10039000A0919601B09197010196A11DB11D809386
:1003A000940190939501A0939601B0939701BF910A
:1003B000AF919F918F910F900FBE0F901F90189546
:1003C0001092D90080E28093D80008958091DC00DB
:1003D0008823BCF024E630E0ECEDF0E082E08A9582
:1003E000F1F700C0215031098081882324F02115C4
:1003F0003105A1F703C02115310529F41092DC0065
:1004000002C024E630E081E0232B09F480E0089567
:100410008091DC0084FF17C024E630E0ECEDF0E0D2
:1004200082E08A95F1F700C021503109808184FF74
:1004300004C021153105A1F703C02115310529F4A8
:100440001092DC0002C024E630E081E0232B09F4A6
:1004500080E00895CF93C82F84EA8093DC000E9447
:10046000E6018823E9F08091D900887F883011F077
:10047000803199F4C093DB0084E88093DC000E9413
:10048000E601882369F09091D900987F983139F07E
:1004900081E0903429F480E003C081E001C080E075
:1004A000CF91089584E98093DC000E9408020895AA
:1004B0008093DB0084E88093DC000E94E601909149
:1004C000D900987F81E0983209F480E0089584ECA7
:1004D0008093DC000E94E6018091DB00089584E8AF
:1004E0008093DC000E94E6018091DB000895FF927A
:1004F0000F931F93CF93DF93D82FF62E8A010E947C
:100500002A02C82F8F2D0E945802C80F8AE18A95AF
:10051000F1F700C08D2F81600E942A02C80F0E944F
:100520006702F80181830E946F02F80180830E94B4
:10053000520281E0C11101C080E0DF91CF911F9193
:100540000F91FF9008950F931F93CF93DF93062F82
:10055000D42F152F0E942A02C82F802F0E945802E4
:10056000C80F8AE18A95F1F700C0812F0E945802D6
:10057000C80F8D2F0E945802C80F0E94520281E0BE
:10058000C11101C080E0DF91CF911F910F910895BB
:10059000CF9340E85AE665E080E80E94A302C82FA6
:1005A0004BE951E060E080E80E94A302C80F81E0BF
:1005B00009F480E0CF910895CF93DF9300D0CDB7B9
:1005C000DEB74BE951E060E080E80E94A3028FEAC9
:1005D00094E00197F1F700C00000AE014F5F5F4F5C
:1005E00062E080E80E947702811111C08A8190E068
:1005F000982F88272981822B9595879595958795A2
:1006000095958795813020E1920730F003C080E016
:1006100090E002C080E090E00F900F90DF91CF91CA
:100620000895CF93DF9300D0CDB7DEB7AE014F5F13
:100630005F4F64E080E80E94770281110DC02A813B
:1006400030E0322F22278981282B213080E838079B
:1006500030F4822F932F05C080E090E002C080E04C
:1006600090E00F900F90DF91CF9108950E94C80203
:1006700091E0811101C090E0892F08951092C5008A
:1006800083E38093C40028E12093C100E2ECF0E012
:100690009081966090831092CD008093CC0020933F
:1006A000C900EAECF0E09081966090831092D5004A
:1006B0008093D40088E98093D100E2EDF0E080815E
:1006C0008660808380E091E090930402809303022F
:1006D0000895E0EDF0E0908195FFFDCF8093D60086
:1006E0000895CF93C82F8A3019F48DE00E946903D2
:1006F0008C2F0E94690380E090E0CF910895E0ED97
:10070000F0E080818823ECF78091D6000895EF9285
:10071000FF920F931F93CF93DF93CDB7DEB7CA5FDE
:10072000D1090FB6F894DEBF0FBECDBFCE01019642
:100730007C0100E010E00E947F038A3079F4E1E060
:10074000F0E0EC0FFD1FE00FF11F1082BE016F5FA4
:100750007F4F80E391E00E94710906C0F701819309
:100760007F010F5F1F4FE7CFC650DF4F0FB6F894E2
:10077000DEBF0FBECDBFDF91CF911F910F91FF90D4
:10078000EF9008951092700080E28093B6002FEFF2
:1007900089E698E1215080409040E1F700C00000D8
:1007A0001092B00085E08093B100E6EBF0E080812C
:1007B0008371E9F717BA81E0809370000895A0E192
:1007C000B0E0E5EEF3E00C945C077C011B016A01EC
:1007D000FC0117821682838181FF44C39E012F5F33
:1007E0003F4F3901F7019381F10193FD859193FF0B
:1007F00081911F01882309F431C3853239F493FDB7
:10080000859193FF81911F01853239F4B70190E002
:100810000E94830956016501E5CF10E0512C912C0F
:10082000FFE1F915D8F08B3279F038F4803279F0A5
:100830008332A1F4F92DF0612EC08D3261F0803346
:1008400069F4292D21602DC0392D3260932E892D18
:100850008460982E2AC0E92DE86015C097FC2DC051
:1008600020ED280F2A3088F496FE06C03AE0139F48
:10087000200D1124122F19C08AE0589E200D11243A
:10088000522EE92DE0629E2E10C08E3231F496FC7D
:10089000E5C2F92DF0649F2E08C08C3621F4292D75
:1008A0002068922E02C0883641F4F10193FD8591B3
:1008B00093FF81911F018111B3CF9BEB980F933070
:1008C00020F4992D9061805E07C09BE9980F9330CA
:1008D00008F066C1992D9F7E96FF16E09F73992EB2
:1008E000853619F49064992E08C0863621F4392F84
:1008F0003068932E02C01111115097FE07C01C33AF
:1009000050F444244394410E27E00BC0183038F0D3
:1009100027E017E005C027E09CE3492E02C0212F05
:10092000412C560184E0A80EB11CF6016081718152
:1009300082819381042DA3010E948E086C01F981AC
:10094000FC87F0FF02C0F3FF06C091FC06C092FED8
:1009500006C000E205C00DE203C00BE201C000E0EA
:100960008C858C7019F001115AC29BC297FE10C081
:100970004C0CFC85F4FF04C08A81813309F44A944D
:10098000141474F528E0241578F588E0482E2CC05E
:1009900096FC2AC0812F90E08C159D059CF03CEFC1
:1009A000C3163FEFD30674F0892D8068982E0AC0D5
:1009B000E2E0F0E0EC0FFD1FE10FF11D80818033DC
:1009C00019F411501111F4CF97FE0EC04424439432
:1009D000410E812F90E0C816D9062CF41C1904C0D2
:1009E0004424439401C010E097FE06C01C141D046B
:1009F00034F4C601019605C085E090E002C081E0B4
:100A000090E001110196112331F0212F30E02F5F8A
:100A10003F4F820F931F252D30E08217930714F468
:100A2000581A01C0512C892D897049F4552039F08C
:100A3000B70180E290E00E9483095A94F7CF002327
:100A400029F0B701802F90E00E94830993FC09C030
:100A5000552039F0B70180E390E00E9483095A9451
:100A6000F7CF97FE4CC04601D7FE02C0812C912CD7
:100A7000C60188199909F301E80FF91FFE87ED8770
:100A8000960124193109388B2F87012F10E0119519
:100A9000019511093FEF8316930629F4B7018EE201
:100AA00090E00E948309C814D9044CF08F8598897E
:100AB0008815990524F4ED85FE85818101C080E3C8
:100AC000F1E08F1A91082D853E852F5F3F4F3E87BD
:100AD0002D87801691062CF0B70190E00E948309C3
:100AE000D9CFC814D90441F49A81963320F49533B0
:100AF00019F43C8534FF81E3B70190E04EC08A8150
:100B0000813319F09C859F7E9C87B70190E00E94FD
:100B10008309111105C094FC18C085E690E017C048
:100B2000B7018EE290E00E9483091E5F82E001E03F
:100B3000080FF301E80FF11D8081B70190E00E94DA
:100B40008309802F0113F3CFE6CF85E490E0B7014E
:100B50000E948309D7FC06C0C114D10441F4EC857E
:100B6000E4FF05C0D194C194D1088DE201C08BE2AD
:100B7000B70190E00E94830980E32AE0C216D10405
:100B80002CF08F5FFAE0CF1AD108F7CFB70190E0D1
:100B90000E948309B701C601C0960E94830954C10F
:100BA000833631F0833779F0833509F056C020C0A1
:100BB000560132E0A30EB11CF6018081898301E069
:100BC00010E0630112C05601F2E0AF0EB11CF60155
:100BD000C080D18096FE03C0612F70E002C06FEF2D
:100BE0007FEFC6010E9478098C01F92DFF7714C0B0
:100BF000560122E0A20EB11CF601C080D18096FE03
:100C000003C0612F70E002C06FEF7FEFC6010E944A
:100C100066098C01F92DF0689F2EF3FD1AC0852D11
:100C200090E008171907A8F4B70180E290E00E944D
:100C300083095A94F4CFF60197FC859197FE819130
:100C40006F01B70190E00E94830951105A9401503E
:100C500011090115110579F7F7C0843611F08936AD
:100C600061F5560197FE09C024E0A20EB11CF60101
:100C700060817181828193810AC0F2E0AF0EB11C64
:100C8000F60160817181072E000C880B990BF92DFC
:100C9000FF769F2E97FF09C090958095709561957E
:100CA0007F4F8F4F9F4FF0689F2E2AE030E0A301C7
:100CB0000E94050AC82EC6183FC0092D853721F4A9
:100CC0000F7E2AE030E01DC0097F8F3691F018F4C6
:100CD000883559F0C3C0803719F0883711F0BEC08D
:100CE000006104FF09C0046007C094FE08C00660EC
:100CF00006C028E030E005C020E130E002C020E17D
:100D000032E0560107FF09C084E0A80EB11CF601CD
:100D1000608171818281938108C0F2E0AF0EB11CC5
:100D2000F6016081718180E090E0A3010E94050AD4
:100D3000C82EC6180F77902E96FE0BC0092D0E7F79
:100D4000C11650F494FE0AC092FC08C0092D0E7E14
:100D500005C0DC2C092D03C0DC2C01C0D12E04FF02
:100D60000DC0FE01EC0DF11D8081803311F4097E70
:100D700009C002FF06C0D394D39404C0802F8678A4
:100D800009F0D39403FD11C000FF06C01C2DD5143B
:100D900080F4150D1D190DC0D51458F4B70180E26B
:100DA00090E00E948309D394F7CFD51410F45D1816
:100DB00001C0512C04FF10C0B70180E390E00E94F5
:100DC000830902FF17C001FD03C088E790E002C05D
:100DD00088E590E0B7010CC0802F867859F001FFBC
:100DE00002C08BE201C080E207FD8DE2B70190E016
:100DF0000E948309C11638F4B70180E390E00E9495
:100E000083091150F7CFCA94F301EC0DF11D8081D5
:100E1000B70190E00E948309C110F5CF15C0F4E03E
:100E2000F51560F584E0581A93FE1FC0011127C024
:100E30002C8523FF2AC00CEC10E0392D3071932E45
:100E4000F8018491811124C0552009F4E4CCB70144
:100E500080E290E00E9483095A94F6CFF7018681E0
:100E6000978126C08FEF9FEF23C0B70180E290E00B
:100E70000E9483095A945110F8CFD8CF512CB70152
:100E8000802F90E00E948309D3CF00ED10E0D5CFF2
:100E900091108052B70190E00E9483090F5F1F4FAD
:100EA000CFCF23E0251510F483E0BDCF512CC0CF68
:100EB0006096E2E10C9478072F923F924F925F92F6
:100EC0006F927F928F929F92AF92BF92CF92DF925A
:100ED000EF92FF920F931F93CF93DF93CDB7DEB7BF
:100EE000CA1BDB0B0FB6F894DEBF0FBECDBF099453
:100EF0002A88398848885F846E847D848C849B84AA
:100F0000AA84B984C884DF80EE80FD800C811B81B7
:100F1000AA81B981CE0FD11D0FB6F894DEBF0FBEE6
:100F2000CDBFED010895E89409C097FB3EF490957C
:100F30008095709561957F4F8F4F9F4F9923A9F0B2
:100F4000F92F96E9BB279395F69587957795679541
:100F5000B795F111F8CFFAF4BB0F11F460FF1BC085
:100F60006F5F7F4F8F4F9F4F16C0882311F096E918
:100F700011C0772321F09EE8872F762F05C06623C6
:100F800071F096E8862F70E060E02AF09A95660F7F
:100F9000771F881FDAF7880F9695879597F9089538
:100FA00097F99F6780E870E060E008959FEF80EC1C
:100FB000089500240A9416161706180609060895BF
:100FC00000240A9412161306140605060895092E25
:100FD0000394000C11F4882352F0BB0F40F4BF2B94
:100FE00011F460FF04C06F5F7F4F8F4F9F4F0895D4
:100FF00057FD9058440F551F59F05F3F71F04795CA
:10100000880F97FB991F61F09F3F79F087950895AE
:10101000121613061406551FF2CF4695F1DF08C0CD
:10102000161617061806991FF1CF869571056105EA
:1010300008940895E894BB2766277727CB0197F992
:1010400008950E9434080C94E7070E94D90738F0ED
:101050000E94E00720F0952311F00C94D0070C9427
:10106000D60711240C941B080E94F80770F3959F73
:10107000C1F3950F50E0551F629FF001729FBB278F
:10108000F00DB11D639FAA27F00DB11DAA1F649F2B
:101090006627B00DA11D661F829F2227B00DA11DDE
:1010A000621F739FB00DA11D621F839FA00D611D64
:1010B000221F749F3327A00D611D231F849F600D85
:1010C000211D822F762F6A2F11249F5750409AF0AE
:1010D000F1F088234AF0EE0FFF1FBB1F661F771F3A
:1010E000881F91505040A9F79E3F510580F00C9405
:1010F000D0070C941B085F3FE4F3983ED4F3869529
:1011000077956795B795F795E7959F5FC1F7FE2BA4
:10111000880F911D9695879597F90895283008F0C6
:1011200027E03327DA01990F311D87FD9160009682
:101130006105710539F432602E5F3D9330E32A95E5
:10114000E1F708959F3F30F080387105610509F09F
:101150003C5F3C5F3D93913008F08068911DDF93C8
:10116000CF931F930F93FF92EF92192F987F96952D
:10117000E92F96959695E90FFF27E25DFE4F992797
:101180003327EE24FF24A701E70105900894079474
:1011900028F4360FE71EF81E491F511D660F771FF2
:1011A000881F991F0694A1F70590079428F4E70E6D
:1011B000F81E491F561FC11D770F881F991F661FF4
:1011C0000694A1F70590079428F4F80E491F561FBE
:1011D000C71FD11D880F991F661F771F0694A1F79F
:1011E0000590079420F4490F561FC71FD81F990F69
:1011F000661F771F881F0694A9F7849110951770B2
:1012000041F0D695C79557954795F794E7941A9569
:10121000C1F7E4EDF0E06894159015913591659172
:10122000959105907FE27395E118F10A430B560BF7
:10123000C90BD009C0F7E10CF11E431F561FC91F8F
:10124000D01D7EF4703311F48A95E6CFE8940150F6
:1012500030F0080F0AF40027021708F4202F239516
:10126000022F7A3328F079E37D932A95E9F710C0AD
:101270007D932A9589F606949795679537951795E6
:101280001794E118F10A430B560BC90BD00998F0DB
:1012900023957E9173957A3308F070E37C93201345
:1012A000B8F77E9170617D9330F0839571E37D9303
:1012B00070E32A95E1F71124EF90FF900F911F91B1
:1012C000CF91DF91992787FD90950895FC010590B6
:1012D000615070400110D8F7809590958E0F9F1F38
:1012E0000895FB01DC0101900D920020E1F70895C3
:1012F000FC016150704001900110D8F780959095E5
:101300008E0F9F1F08950F931F93CF93DF93FB01C1
:10131000238121FD03C08FEF9FEF2CC022FF16C059
:1013200046815781248135814217530744F4A081B7
:10133000B1819D012F5F3F4F318320838C932681A4
:1013400037812F5F3F4F3783268314C08B01EC0119
:10135000FB010084F185E02D0995892BE1F6D80188
:1013600016968D919C911797019617969C938E9344
:101370001697CE01DF91CF911F910F910895A0E0B4
:10138000B0E0E5ECF9E00C946C07AE014B5F5F4F09
:10139000FA0161917191AF01809103029091040271
:1013A0000E94DF03E2E00C9488070F931F93CF9312
:1013B000DF93E0910302F0910402238121FF1BC01F
:1013C0008C01D0E0C0E0F80181918F0160910302AF
:1013D00070910402DB011896ED91FC911997882316
:1013E00031F00995892B79F3DFEFCFEFECCF8AE06D
:1013F0000995892B19F08FEF9FEF02C08D2F9C2F3D
:10140000DF91CF911F910F910895FA01AA272830FB
:1014100051F1203181F1E8946F936E7F6E5F7F4FC1
:101420008F4F9F4FAF4FB1E03ED0B4E03CD0670F3D
:10143000781F891F9A1FA11D680F791F8A1F911D90
:10144000A11D6A0F711D811D911DA11D20D009F4E0
:1014500068943F912AE0269F11243019305D319322
:10146000DEF6CF010895462F4770405D4193B3E00B
:101470000FD0C9F7F6CF462F4F70405D4A3318F0B2
:10148000495D31FD4052419302D0A9F7EACFB4E063
:10149000A6959795879577956795BA95C9F700971B
:1014A0006105710508959B01AC010A2E06945795BC
:1014B000479537952795BA95C9F7620F731F841F13
:0A14C000951FA01D0895F894FFCFBA
:1014CA0000000003000000007103000000006865CE
:1014DA006900766275733A20252E32662020202014
:1014EA002020637572723A20252E3266200A000087
:00000001FF
