S01100004C6F52612D6E6F64652E73726563D2
S11300000C94E7000C9404010C9434030C94040144
S11300100C9404010C9404010C9404010C94040148
S11300200C9404010C9404010C9404010C946A03D0
S11300300C9404010C9404010C9404010C94040128
S11300400C9404010C9404010C9404010C94040118
S11300500C9404010C9404010C9404010C94040108
S11300600C9404010C9404010C9404010C940401F8
S11300700C9404010C9404010C9404010C940401E8
S11300800C9404010C9404010C9404010C940401D8
S11300900C9404010C9404010C9404010C940401C8
S11300A00C9404010C9404010C9404010C940401B8
S11300B00C9404010C9404010C9404010C94430367
S11300C00C9404010C9404010C9404016E616E0000
S11300D0696E660000407A10F35A00A0724E180947
S11300E00010A5D4E80000E87648170000E40B549B
S11300F0020000CA9A3B000000E1F505000080966A
S11301009800000040420F000000A086010000009B
S1130110102700000000E803000000006400000055
S113012000000A00000000000100000000002C761E
S1130130D888DC674F0823DFC1DFAE59E1B1B79639
S1130140E5E3E453C63AE651997696E8E6C2842696
S1130150EB898C9B62ED407C6FFCEFBC9C9F40F272
S1130160BAA56FA5F490055A2AF75C936B6CF967EE
S11301706DC11BFCE0E40D47FEF520E6B500D0EDB3
S1130180902E0300943577050080841E080000201B
S11301904E0A000000C80C333333330F986E1283B9
S11301A01141EF8D2114893BE65516CFFEE6DB188D
S11301B0D1844B381BF77C1D901DA4BBE424203252
S11301C084725E228100C9F124ECA1E53D2711244B
S11301D01FBECFEFD8E0DEBFCDBF13E0A0E0B1E09B
S11301E0E0E6FDE102C005900D92AE31B107D9F70A
S11301F023E0AEE1B3E001C01D92A63FB207E1F7F0
S11302000E9406010C94AE0E0C94000084B7877F04
S113021084BF0FB6F894A89580916000886180939C
S11302206000109260000FBE2FEF83EC99E0215024
S113023080409040E1F700C000000E94EF018EE092
S113024091E00E94FE0D80E090E00895ACE7B0E0FC
S11302501C92EAE7F0E010828C9180648C93808198
S1130260866080838081806880830895EAE7F0E077
S1130270808180648083808184FFFDCF80917800B9
S113028090917900893E23E0920714F088EE93E080
S11302900895ECE7F0E09081892B80830E94360179
S11302A08AE18A95F1F700C00895892B11F05C98D2
S11302B008955C9A0895CF93DF93EC010E94EE05B4
S11302C00E9426015398E9E6F0E0808188608083EB
S11302D0E99A549A80E090E00E94550118820E94A5
S11302E08F030E94D9040E9498067894DF91CF91DD
S11302F0089581E00E9449010E943601BC0180E01A
S113030090E00E94AE0B26EB36EC4FE15BE30E94DB
S11303103C0C20E030E846ED53E40E943C0C20E025
S113032030E04FE753E40E94060B20E030E048EC55
S113033052E40E943C0C26E636E646E850E40E946D
S1130340060B0E94780B862F0895F894E0E6F0E0FF
S1130350108288E080830895E1E2F3E001900020B8
S1130360E9F73197BF016152734020E030E04BE878
S113037053E081E293E00E94D20680918B038232A3
S1130380E9F0893949F1813149F52A9AEBE8F3E03A
S11303902381828190E0A0E0B0E0DC0199278827E6
S11303A0922B2481822B2181B22B809385039093FD
S11303B08603A0938703B093880308952A9AEBE8F1
S11303C0F3E0818190E0982F88272281822B9093FB
S11303D08A038093890308950E94A5010895CF9309
S11303E0DF93CDB7DEB767970FB6F894DEBF0FBEC5
S11303F0CDBF1092EF038CE390E090938A03809337
S1130400890319821A821B821C821D8224E62E8390
S113041018861F821A8619861B861C861D861E86D0
S11304201F86188A198A1A8A1B8A9D8B8C8B84E0F2
S113043092E09F8B8E8B00E010E06894CC24C1F88E
S1130440DD24D3940F2EF1E3EF2EF1E0FF2EF02DF7
S11304500F2EF3E0BF2EF02D8091EF03882321F0BF
S11304601092EF030E94AC0180911E03882331F0A7
S113047010921E038CE191E00E944B0680912003B0
S1130480823051F130F4882349F0813009F4DBC023
S1130490E3CF833081F08430F9F0DECFCE01439690
S11304A00E945B018B89882319F0B0922003D4CF7A
S11304B0C0922003D1CF0F5F1F4F0330110524F4E6
S11304C00E94DD058B8B05C0043B110514F000E090
S11304D010E0D0922003C0CF85B18C2585B90E944D
S11304E08B04092E000CAA0BBB0B4B855C856D8518
S11304F07E85840F951FA61FB71F8B879C87AD87AA
S1130500BE870E94B4044F85588969897A89480F47
S1130510591F611D711D4F87588B698B7A8B0E94FF
S113052079018E832091890330918A033D8B2C8B32
S1130530863428F480E090E00E94550106C080369D
S113054020F081E090E00E94550160918503709154
S1130550860380918703909188034C885D88612C81
S1130560712CA30192010E94AD0A672B682B692BA1
S113057009F066C08091850390918603A09187035A
S1130580B0918803892B8A2B8B2B09F459C0809155
S11305901F038F3F11F410921F0380911F0391E0FA
S11305A0980F90931F0389836B857C858D859E8529
S11305B0A30192010E94AD0A38872F836F85788941
S11305C089899A89A30192010E94AD0A3A872987F1
S11305D08091850390918603A0918703B09188034D
S11305E08A839B83AC83BD838DB79EB747970FB631
S11305F0F8949EBF0FBE8DBFADB7BEB7119687E10D
S1130600FE01319601900D928A95E1F70E9402074E
S11306108E8B9F8B9F938F93FF92EF920E94E80D96
S11306208AE00E942D061B861C861D861E861F8658
S1130630188A198A1A8A0FB6F894DEBF0FBECDBF86
S1130640D092200309CF8FE99FE00197F1F700C012
S113065000000E94B5068B89882319F0B09220030C
S1130660FBCEC0922003F8CE1F920F920FB60F92CA
S113067011248F9381E080931E038F910F900FBEFE
S11306800F901F9018951F920F920FB60F9211247E
S11306902F933F934F935F936F937F938F939F9386
S11306A0AF93BF93EF93FF930E945D0681E0809325
S11306B0EF03FF91EF91BF91AF919F918F917F9144
S11306C06F915F914F913F912F910F900FBE0F90BB
S11306D01F9018951F920F920FB60F9211248F93AB
S11306E09F93AF93BF938091850390918603A091CC
S11306F08703B09188030196A11DB11D80938503E2
S113070090938603A0938703B0938803BF91AF911E
S11307109F918F910F900FBE0F901F90189510927C
S1130720D90080E28093D80008958091DC0088236A
S1130730BCF024E630E0ECEDF0E082E08A95F1F7DD
S113074000C0215031098081882324F0211531050E
S1130750A1F703C02115310529F41092DC0002C071
S113076024E630E081E0232B09F480E008958091B1
S1130770DC0084FF17C024E630E0ECEDF0E082E01A
S11307808A95F1F700C021503109808184FF04C0AB
S113079021153105A1F703C02115310529F4109263
S11307A0DC0002C024E630E081E0232B09F480E081
S11307B00895CF93C82F84EA8093DC000E949503A8
S11307C08823E9F08091D900887F883011F0803146
S11307D099F4C093DB0084E88093DC000E949503C5
S11307E0882369F09091D900987F983139F081E09D
S11307F0903429F480E003C081E001C080E0CF910F
S1130800089584E98093DC000E94B70308958093DF
S1130810DB0084E88093DC000E9495039091D9006A
S1130820987F81E0983209F480E0089584EC809305
S1130830DC000E9495038091DB00089584E8809396
S1130840DC000E9495038091DB000895FF920F93D2
S11308501F93CF93DF93D82FF62E8A010E94D903DA
S1130860C82F8F2D0E940704C80F8AE18A95F1F7DB
S113087000C08D2F81600E94D903C80F0E94160406
S1130880F80181830E941E04F80180830E94010400
S113089081E0C11101C080E0DF91CF911F910F91E0
S11308A0FF9008950F931F93CF93DF93062FD42FB8
S11308B0152F0E94D903C82F802F0E940704C80F48
S11308C08AE18A95F1F700C0812F0E940704C80FBE
S11308D08D2F0E940704C80F0E94010481E0C111FA
S11308E001C080E0DF91CF911F910F910895CF93C4
S11308F040E85AE665E080E80E945204C82F4FE9B8
S113090051E060E080E80E945204C80F81E009F4DD
S113091080E0CF910895CF93DF9300D0CDB7DEB7B9
S1130920AE014F5F5F4F62E080E80E9426048111B0
S113093011C08A8190E0982F88272981822B959570
S113094087959595879595958795813020E19207B0
S113095030F003C080E090E002C080E090E00F90AF
S11309600F90DF91CF910895CF93DF9300D0CDB74F
S1130970DEB7AE014F5F5F4F64E080E80E9426045B
S113098081110DC02A8130E0322F22278981282B42
S1130990213080E8380730F4822F932F05C080E09F
S11309A090E002C080E090E00F900F90DF91CF9133
S11309B008950E94770491E0811101C090E0892F8D
S11309C008950E941E068DE00E9416068AE00E9489
S11309D016060895CF93DF93EC0142E050E064E4FF
S11309E071E00E94930D892B09F48FC048E050E018
S11309F064E371E0CE010E94930D892B09F487C052
S1130A0049E050E06DE371E0CE010E94930D892B23
S1130A1009F47FC047E050E067E471E0CE010E9432
S1130A20930D892B39F4BE0181E293E00E948C0D71
S1130A3081E186C046E050E06FE471E0CE010E949F
S1130A40930D892B09F467C04DE050E066E571E031
S1130A50CE010E94930D892B09F45FC04CE050E055
S1130A6064E671E0CE010E94930D892B09F457C00E
S1130A7046E050E061E771E0CE010E94930D892BBE
S1130A8009F44FC044E050E068E771E0CE010E94F1
S1130A90930D892B09F447C04AE050E06DE771E0FB
S1130AA0CE010E94930D892B09F43FC04DE050E024
S1130AB068E871E0CE010E94930D892BC1F14AE0F0
S1130AC050E066E971E0CE010E94930D892B89F113
S1130AD04FE150E061EA71E0CE010E94930D892B51
S1130AE051F140E150E061EC71E0CE010E94930DC0
S1130AF0892B19F147E050E062ED71E0CE010E94CC
S1130B00930D892BE1F08AEA1BC080E019C080E0D4
S1130B1017C080E115C08AE013C081E011C082E0F3
S1130B200FC083E00DC084E00BC085E009C086E0FF
S1130B3007C087E005C088E003C081E001C08DE004
S1130B40DF91CF910895EF92FF920F931F93CF936C
S1130B50DF93CDB7DEB7CA5FD1090FB6F894DEBF15
S1130B600FBECDBFCE0101967C0100E010E00E94D3
S1130B700E068D3071F40E940E06E1E0F0E0EC0FF9
S1130B80FD1FE00FF11F1082CE0101960E94EA04BE
S1130B9006C0F70181937F010F5F1F4FE8CFC65056
S1130BA0DF4F0FB6F894DEBF0FBECDBFDF91CF91FC
S1130BB01F910F91FF90EF90089584EE91E00E94B1
S1130BC0E1040E94A305811105C00E94A3058111BF
S1130BD003C0089582E2089583E208951092C50047
S1130BE093E39093C40088E18093C100E2ECF0E0C9
S1130BF08081866080831092D5009093D40088E928
S1130C008093D100E2EDF0E080818660808380E013
S1130C1091E09093F3038093F2030895E0ECF0E005
S1130C2080818823ECF78091C6000895E0ECF0E021
S1130C30908195FFFDCF8093C6000895CF93DF93F5
S1130C40EC018881882331F021960E94160689914F
S1130C508111FBCFDF91CF910895E0EDF0E0908119
S1130C6095FFFDCF8093D6000895CF93C82F8A3087
S1130C7019F48DE00E942D068C2F0E942D0680E031
S1130C8090E0CF910895E0EDF0E080818823ECF7C7
S1130C908091D6000895CF93DF93EC018881882357
S1130CA031F021960E942D0689918111FBCF8AE0B3
S1130CB00E942D06DF91CF910895EF92FF920F933A
S1130CC01F93CF93DF93CDB7DEB7CA5FD1090FB6B9
S1130CD0F894DEBF0FBECDBFCE0101967C0100E0CB
S1130CE010E00E9443068A3079F4E1E0F0E0EC0F72
S1130CF0FD1FE00FF11F1082BE016F5F7F4F81E285
S1130D0093E00E948C0D06C0F70181937F010F5F71
S1130D101F4FE7CFC650DF4F0FB6F894DEBF0FBEAC
S1130D20CDBFDF91CF911F910F91FF90EF90089568
S1130D301092700080E28093B6002FEF89E698E16C
S1130D40215080409040E1F700C000001092B000B4
S1130D5085E08093B100E6EBF0E080818371E9F7F0
S1130D6017BA81E0809370000895E3EDF0E080818C
S1130D708062808383B7817F866083BF83B781600D
S1130D8083BF889583B78E7F83BF2FE785EB91E080
S1130D90215080409040E1F700C0000080818F7DA9
S1130DA0808308950F931F93CF93DF93EC01952FC6
S1130DB02617370708F5C20FD31F042F152FFE017E
S1130DC0A881AA3318F0B0E0D79702C0B0E0D0975A
S1130DD0E181EA3318F0F0E0F79702C0F0E0F09711
S1130DE0A295A07FEA2BD801ED938D012E5F3F4F92
S1130DF022962617370718F3842FDF91CF911F917E
S1130E000F910895CF93DF93CDB7DEB78E858F937F
S1130E108D858F938C858F938B858F938A851F9275
S1130E208F9389858F9388858F938F818F938E81FC
S1130E308F938D811F928F9388E093E09F938F937C
S1130E4084E092E09F938F930E942E0E0FB6F89445
S1130E50DEBF0FBECDBF84E092E0DF91CF91089555
S1130E60A0E1B0E0E6E3F7E00C94CF0A7C011B01BB
S1130E706A01FC0117821682838181FF44C39E01AB
S1130E802F5F3F4F3901F7019381F10193FD859164
S1130E9093FF81911F01882309F431C3853239F40A
S1130EA093FD859193FF81911F01853239F4B70138
S1130EB090E00E94AC0D56016501E5CF10E0512C85
S1130EC0912CFFE1F915D8F08B3279F038F48032A7
S1130ED079F08332A1F4F92DF0612EC08D3261F0E6
S1130EE0803369F4292D21602DC0392D3260932E71
S1130EF0892D8460982E2AC0E92DE86015C097FCDE
S1130F002DC020ED280F2A3088F496FE06C03AE062
S1130F10139F200D1124122F19C08AE0589E200D12
S1130F201124522EE92DE0629E2E10C08E3231F42F
S1130F3096FCE5C2F92DF0649F2E08C08C3621F48E
S1130F40292D2068922E02C0883641F4F10193FDC8
S1130F50859193FF81911F018111B3CF9BEB980F72
S1130F60933020F4992D9061805E07C09BE9980F1F
S1130F70933008F066C1992D9F7E96FF16E09F730B
S1130F80992E853619F49064992E08C0863621F47A
S1130F90392F3068932E02C01111115097FE07C0EB
S1130FA01C3350F444244394410E27E00BC0183002
S1130FB038F027E017E005C027E09CE3492E02C083
S1130FC0212F412C560184E0A80EB11CF60160814A
S1130FD0718182819381042DA3010E94A90C6C016B
S1130FE0F981FC87F0FF02C0F3FF06C091FC06C044
S1130FF092FE06C000E205C00DE203C00BE201C090
S113100000E08C858C7019F001115AC29BC297FEC6
S113101010C04C0CFC85F4FF04C08A81813309F4B0
S11310204A94141474F528E0241578F588E0482EC1
S11310302CC096FC2AC0812F90E08C159D059CF055
S11310403CEFC3163FEFD30674F0892D8068982EC9
S11310500AC0E2E0F0E0EC0FFD1FE10FF11D80811A
S1131060803319F411501111F4CF97FE0EC04424AB
S11310704394410E812F90E0C816D9062CF41C1914
S113108004C04424439401C010E097FE06C01C141D
S11310901D0434F4C601019605C085E090E002C049
S11310A081E090E001110196112331F0212F30E00D
S11310B02F5F3F4F820F931F252D30E08217930738
S11310C014F4581A01C0512C892D897049F4552003
S11310D039F0B70180E290E00E94AC0D5A94F7CF4A
S11310E0002329F0B701802F90E00E94AC0D93FCFF
S11310F009C0552039F0B70180E390E00E94AC0D9F
S11311005A94F7CF97FE4CC04601D7FE02C0812CFB
S1131110912CC60188199909F301E80FF91FFE877C
S1131120ED87960124193109388B2F87012F10E0A0
S11311301195019511093FEF8316930629F4B70120
S11311408EE290E00E94AC0DC814D9044CF08F8557
S113115098898815990524F4ED85FE85818101C05F
S113116080E3F1E08F1A91082D853E852F5F3F4F74
S11311703E872D87801691062CF0B70190E00E94DF
S1131180AC0DD9CFC814D90441F49A81963320F414
S1131190953319F43C8534FF81E3B70190E04EC0E8
S11311A08A81813319F09C859F7E9C87B70190E0EA
S11311B00E94AC0D111105C094FC18C085E690E0A6
S11311C017C0B7018EE290E00E94AC0D1E5F82E072
S11311D001E0080FF301E80FF11D8081B70190E0F1
S11311E00E94AC0D802F0113F3CFE6CF85E490E08D
S11311F0B7010E94AC0DD7FC06C0C114D10441F460
S1131200EC85E4FF05C0D194C194D1088DE201C0FE
S11312108BE2B70190E00E94AC0D80E32AE0C21695
S1131220D1042CF08F5FFAE0CF1AD108F7CFB701C1
S113123090E00E94AC0DB701C601C0960E94AC0DAF
S113124054C1833631F0833779F0833509F056C0C1
S113125020C0560132E0A30EB11CF60180818983BF
S113126001E010E0630112C05601F2E0AF0EB11CC0
S1131270F601C080D18096FE03C0612F70E002C0E9
S11312806FEF7FEFC6010E94A10D8C01F92DFF774E
S113129014C0560122E0A20EB11CF601C080D18018
S11312A096FE03C0612F70E002C06FEF7FEFC601AE
S11312B00E94810D8C01F92DF0689F2EF3FD1AC058
S11312C0852D90E008171907A8F4B70180E290E093
S11312D00E94AC0D5A94F4CFF60197FC859197FEC9
S11312E081916F01B70190E00E94AC0D51105A94A6
S11312F0015011090115110579F7F7C0843611F071
S1131300893661F5560197FE09C024E0A20EB11C8E
S1131310F60160817181828193810AC0F2E0AF0E8F
S1131320B11CF60160817181072E000C880B990BAA
S1131330F92DFF769F2E97FF09C0909580957095A3
S113134061957F4F8F4F9F4FF0689F2E2AE030E0CA
S1131350A3010E94500EC82EC6183FC0092D853720
S113136021F40F7E2AE030E01DC0097F8F3691F012
S113137018F4883559F0C3C0803719F0883711F054
S1131380BEC0006104FF09C0046007C094FE08C029
S1131390066006C028E030E005C020E130E002C06D
S11313A020E132E0560107FF09C084E0A80EB11C19
S11313B0F601608171818281938108C0F2E0AF0EF1
S11313C0B11CF6016081718180E090E0A3010E946C
S11313D0500EC82EC6180F77902E96FE0BC0092DFE
S11313E00E7FC11650F494FE0AC092FC08C0092D69
S11313F00E7E05C0DC2C092D03C0DC2C01C0D12ECF
S113140004FF0DC0FE01EC0DF11D8081803311F449
S1131410097E09C002FF06C0D394D39404C0802F70
S1131420867809F0D39403FD11C000FF06C01C2D7B
S1131430D51480F4150D1D190DC0D51458F4B70139
S113144080E290E00E94AC0DD394F7CFD51410F451
S11314505D1801C0512C04FF10C0B70180E390E077
S11314600E94AC0D02FF17C001FD03C088E790E0A5
S113147002C088E590E0B7010CC0802F867859F04F
S113148001FF02C08BE201C080E207FD8DE2B701DB
S113149090E00E94AC0DC11638F4B70180E390E0EF
S11314A00E94AC0D1150F7CFCA94F301EC0DF11D5D
S11314B08081B70190E00E94AC0DC110F5CF15C03A
S11314C0F4E0F51560F584E0581A93FE1FC001118D
S11314D027C02C8523FF2AC00CEC10E0392D307175
S11314E0932EF8018491811124C0552009F4E4CC91
S11314F0B70180E290E00E94AC0D5A94F6CFF70158
S11315008681978126C08FEF9FEF23C0B70180E2C9
S113151090E00E94AC0D5A945110F8CFD8CF512CC2
S1131520B701802F90E00E94AC0DD3CF00ED10E006
S1131530D5CF91108052B70190E00E94AC0D0F5F9F
S11315401F4FCFCF23E0251510F483E0BDCF512CDE
S1131550C0CF6096E2E10C94EB0AA1E21A2EAA1B1A
S1131560BB1BFD010DC0AA1FBB1FEE1FFF1FA2174F
S1131570B307E407F50720F0A21BB30BE40BF50B4C
S1131580661F771F881F991F1A9469F760957095D5
S1131590809590959B01AC01BD01CF0108952F92D8
S11315A03F924F925F926F927F928F929F92AF92EF
S11315B0BF92CF92DF92EF92FF920F931F93CF933C
S11315C0DF93CDB7DEB7CA1BDB0B0FB6F894DEBFD3
S11315D00FBECDBF09942A88398848885F846E84F9
S11315E07D848C849B84AA84B984C884DF80EE8043
S11315F0FD800C811B81AA81B981CE0FD11D0FB64C
S1131600F894DEBF0FBECDBFED0108950E941A0B02
S11316100C94020C0E94FB0B58F00E94F40B40F057
S113162029F45F3F29F00C94EB0B51110C94360C08
S11316300C94F10B0E94130C68F39923B1F3552316
S113164091F3951B550BBB27AA27621773078407D1
S113165038F09F5F5F4F220F331F441FAA1FA9F367
S113166035D00E2E3AF0E0E832D091505040E69555
S1131670001CCAF72BD0FE2F29D0660F771F881FB6
S1131680BB1F261737074807AB07B0E809F0BB0BA9
S1131690802DBF01FF2793585F4F3AF09E3F5105BD
S11316A078F00C94EB0B0C94360C5F3FE4F3983E0B
S11316B0D4F3869577956795B795F7959F5FC9F7A6
S11316C0880F911D9695879597F90895E1E0660F27
S11316D0771F881FBB1F621773078407BA0720F0A0
S11316E0621B730B840BBA0BEE1F88F7E095089509
S11316F00E947F0B6894B1110C94360C08950E94DB
S11317001B0C88F09F5798F0B92F9927B751B0F068
S1131710E1F0660F771F881F991F1AF0BA95C9F771
S113172014C0B13091F00E94350CB1E008950C94CE
S1131730350C672F782F8827B85F39F0B93FCCF381
S1131740869577956795B395D9F73EF490958095EE
S1131750709561957F4F8F4F9F4F0895E89409C00E
S113176097FB3EF490958095709561957F4F8F4FD0
S11317709F4F9923A9F0F92F96E9BB279395F695E6
S1131780879577956795B795F111F8CFFAF4BB0F64
S113179011F460FF1BC06F5F7F4F8F4F9F4F16C0C8
S11317A0882311F096E911C0772321F09EE8872F52
S11317B0762F05C0662371F096E8862F70E060E00E
S11317C02AF09A95660F771F881FDAF7880F969587
S11317D0879597F9089597F99F6780E870E060E02E
S11317E008959FEF80EC089500240A9416161706B6
S11317F018060906089500240A94121613061406FE
S113180005060895092E0394000C11F4882352F060
S1131810BB0F40F4BF2B11F460FF04C06F5F7F4F18
S11318208F4F9F4F089557FD9058440F551F59F0FF
S11318305F3F71F04795880F97FB991F61F09F3FB9
S113184079F087950895121613061406551FF2CFE2
S11318504695F1DF08C0161617061806991FF1CF32
S113186086957105610508940895E894BB27662759
S11318707727CB0197F908950E944F0C0C94020C22
S11318800E94F40B38F00E94FB0B20F0952311F01A
S11318900C94EB0B0C94F10B11240C94360C0E9459
S11318A0130C70F3959FC1F3950F50E0551F629F81
S11318B0F001729FBB27F00DB11D639FAA27F00DA5
S11318C0B11DAA1F649F6627B00DA11D661F829FCC
S11318D02227B00DA11D621F739FB00DA11D621FB1
S11318E0839FA00D611D221F749F3327A00D611DCE
S11318F0231F849F600D211D822F762F6A2F1124B0
S11319009F5750409AF0F1F088234AF0EE0FFF1FE2
S1131910BB1F661F771F881F91505040A9F79E3F39
S1131920510580F00C94EB0B0C94360C5F3FE4F300
S1131930983ED4F3869577956795B795F795E7958F
S11319409F5FC1F7FE2B880F911D9695879597F998
S11319500895283008F027E03327DA01990F311D64
S113196087FD916000966105710539F432602E5F40
S11319703D9330E32A95E1F708959F3F30F0803896
S11319807105610509F03C5F3C5F3D93913008F0BF
S11319908068911DDF93CF931F930F93FF92EF9273
S11319A0192F987F9695E92F96959695E90FFF271D
S11319B0E25DFE4F99273327EE24FF24A701E701B8
S11319C005900894079428F4360FE71EF81E491F63
S11319D0511D660F771F881F991F0694A1F7059064
S11319E0079428F4E70EF81E491F561FC11D770FF0
S11319F0881F991F661F0694A1F70590079428F481
S1131A00F80E491F561FC71FD11D880F991F661F47
S1131A10771F0694A1F70590079420F4490F561FE9
S1131A20C71FD81F990F661F771F881F0694A9F731
S1131A3084911095177041F0D695C79557954795A1
S1131A40F794E7941A95C1F7E4EDF0E068941590E3
S1131A50159135916591959105907FE27395E11803
S1131A60F10A430B560BC90BD009C0F7E10CF11E68
S1131A70431F561FC91FD01D7EF4703311F48A957D
S1131A80E6CFE894015030F0080F0AF4002702175B
S1131A9008F4202F2395022F7A3328F079E37D93DD
S1131AA02A95E9F710C07D932A9589F606949795AF
S1131AB06795379517951794E118F10A430B560B60
S1131AC0C90BD00998F023957E9173957A3308F069
S1131AD070E37C932013B8F77E9170617D9330F0AE
S1131AE0839571E37D9370E32A95E1F71124EF90D8
S1131AF0FF900F911F91CF91DF91992787FD9095CA
S1131B000895FC010590615070400110D8F780954C
S1131B1090958E0F9F1F0895FB01DC0101900D929B
S1131B200020E1F70895FB01DC014150504030F002
S1131B308D910190801919F40020B9F7881B990B35
S1131B400895FC016150704001900110D8F7809510
S1131B5090958E0F9F1F08950F931F93CF93DF933C
S1131B60FB01238121FD03C08FEF9FEF2CC022FFD7
S1131B7016C046815781248135814217530744F4A6
S1131B80A081B1819D012F5F3F4F318320838C93CE
S1131B90268137812F5F3F4F3783268314C08B0103
S1131BA0EC01FB010084F185E02D0995892BE1F618
S1131BB0D80116968D919C911797019617969C9330
S1131BC08E931697CE01DF91CF911F910F910895B7
S1131BD0A0E0B0E0EEEEFDE00C94DF0AAE014B5F56
S1131BE05F4FFA0161917191AF018091F20390917D
S1131BF0F3030E943007E2E00C94FB0A0F931F9357
S1131C00CF93DF93E091F203F091F303238121FF5B
S1131C101BC08C01D0E0C0E0F80181918F0160917C
S1131C20F2037091F303DB011896ED91FC9119977F
S1131C30882331F00995892B79F3DFEFCFEFECCFCF
S1131C408AE00995892B19F08FEF9FEF02C08D2F41
S1131C509C2FDF91CF911F910F910895AEE0B0E0DA
S1131C60E4E3FEE00C94DD0A0D891E8986E08C8392
S1131C701A8309838FEF9FE79E838D83AE01475EAE
S1131C805F4F6F89788DCE0101960E943007EF81F6
S1131C90F885E00FF11F10822E96E4E00C94F90A07
S1131CA0FA01AA27283051F1203181F1E8946F9389
S1131CB06E7F6E5F7F4F8F4F9F4FAF4FB1E03ED02F
S1131CC0B4E03CD0670F781F891F9A1FA11D680FCD
S1131CD0791F8A1F911DA11D6A0F711D811D911D00
S1131CE0A11D20D009F468943F912AE0269F112475
S1131CF03019305D3193DEF6CF010895462F4770D9
S1131D00405D4193B3E00FD0C9F7F6CF462F4F7033
S1131D10405D4A3318F0495D31FD4052419302D091
S1131D20A9F7EACFB4E0A695979587957795679537
S1131D30BA95C9F700976105710508959B01AC0137
S1131D400A2E06945795479537952795BA95C9F75E
S1131D50620F731F841F951FA01D0895F894FFCF71
S1131D60000000030000000035060000000050726F
S1131D706F6772616D20656E64656400303235652D
S1131D806262653864303534303332313038373656
S1131D90002573006163636570746564006D61633D
S1131DA05F74785F6F6B006D61635F7278200064AD
S1131DB0656E69656400696E76616C69645F706103
S1131DC072616D006E6F5F667265655F6368616EF8
S1131DD00073696C656E740062757379006D61637C
S1131DE05F706175736564006B6579735F6E6F74A2
S1131DF05F696E6974006E6F745F6A6F696E6564A3
S1131E00006672616D655F636F756E7465725F65A0
S1131E1072725F72656A6F696E5F6E656564656430
S1131E2000696E76616C69645F646174615F6C659E
S1131E306E006D61635F6572720073797320726501
S1131E40736574006D6163206A6F696E206F7461DD
S1131E5061004D6163206A6F696E204142502063C6
S1131E606D643A20006D6163206A6F696E2061625F
S1131E7070004D6163206A6F696E20414250207288
S1131E806573756C743A20006D616320736574200A
S1131E90616472206F6666006D61632073657420EF
S1131EA0636820646379636C6520302039006D6158
S1131EB0632073657420636820646379636C6520B0
S1131EC0312039006D616320736574206368206478
S1131ED06379636C652032203900333941373833F4
S1131EE03345364134313141433935434434453344
S1131EF03744423437323830354200423335423386
S1131F0044424345423939464646414439463833CA
S1131F104533353630334141363944003236303179
S1131F203136433000434139383144363332444446
S1131F30324231413732314436313035463332451D
S1131F403630334146003030303441333042303063
S1131F5045423946333300373042334435374544FC
S1131F603030324535333300253032582530386C23
S1111F70582530325825303458253034580066
S9030000FC
